{"abi":[{"type":"constructor","inputs":[{"name":"_deployer","type":"address","internalType":"address"}],"stateMutability":"nonpayable"},{"type":"function","name":"createFile","inputs":[{"name":"filename","type":"string","internalType":"string"},{"name":"contents","type":"string","internalType":"string"}],"outputs":[{"name":"pointer","type":"address","internalType":"address"},{"name":"file","type":"tuple","internalType":"struct File","components":[{"name":"size","type":"uint256","internalType":"uint256"},{"name":"slices","type":"tuple[]","internalType":"struct BytecodeSlice[]","components":[{"name":"pointer","type":"address","internalType":"address"},{"name":"start","type":"uint32","internalType":"uint32"},{"name":"end","type":"uint32","internalType":"uint32"}]}]}],"stateMutability":"nonpayable"},{"type":"function","name":"createFile","inputs":[{"name":"filename","type":"string","internalType":"string"},{"name":"contents","type":"string","internalType":"string"},{"name":"metadata","type":"bytes","internalType":"bytes"}],"outputs":[{"name":"pointer","type":"address","internalType":"address"},{"name":"file","type":"tuple","internalType":"struct File","components":[{"name":"size","type":"uint256","internalType":"uint256"},{"name":"slices","type":"tuple[]","internalType":"struct BytecodeSlice[]","components":[{"name":"pointer","type":"address","internalType":"address"},{"name":"start","type":"uint32","internalType":"uint32"},{"name":"end","type":"uint32","internalType":"uint32"}]}]}],"stateMutability":"nonpayable"},{"type":"function","name":"createFileFromChunks","inputs":[{"name":"filename","type":"string","internalType":"string"},{"name":"chunks","type":"string[]","internalType":"string[]"},{"name":"metadata","type":"bytes","internalType":"bytes"}],"outputs":[{"name":"pointer","type":"address","internalType":"address"},{"name":"file","type":"tuple","internalType":"struct File","components":[{"name":"size","type":"uint256","internalType":"uint256"},{"name":"slices","type":"tuple[]","internalType":"struct BytecodeSlice[]","components":[{"name":"pointer","type":"address","internalType":"address"},{"name":"start","type":"uint32","internalType":"uint32"},{"name":"end","type":"uint32","internalType":"uint32"}]}]}],"stateMutability":"nonpayable"},{"type":"function","name":"createFileFromChunks","inputs":[{"name":"filename","type":"string","internalType":"string"},{"name":"chunks","type":"string[]","internalType":"string[]"}],"outputs":[{"name":"pointer","type":"address","internalType":"address"},{"name":"file","type":"tuple","internalType":"struct File","components":[{"name":"size","type":"uint256","internalType":"uint256"},{"name":"slices","type":"tuple[]","internalType":"struct BytecodeSlice[]","components":[{"name":"pointer","type":"address","internalType":"address"},{"name":"start","type":"uint32","internalType":"uint32"},{"name":"end","type":"uint32","internalType":"uint32"}]}]}],"stateMutability":"nonpayable"},{"type":"function","name":"createFileFromPointers","inputs":[{"name":"filename","type":"string","internalType":"string"},{"name":"pointers","type":"address[]","internalType":"address[]"},{"name":"metadata","type":"bytes","internalType":"bytes"}],"outputs":[{"name":"pointer","type":"address","internalType":"address"},{"name":"file","type":"tuple","internalType":"struct File","components":[{"name":"size","type":"uint256","internalType":"uint256"},{"name":"slices","type":"tuple[]","internalType":"struct BytecodeSlice[]","components":[{"name":"pointer","type":"address","internalType":"address"},{"name":"start","type":"uint32","internalType":"uint32"},{"name":"end","type":"uint32","internalType":"uint32"}]}]}],"stateMutability":"nonpayable"},{"type":"function","name":"createFileFromPointers","inputs":[{"name":"filename","type":"string","internalType":"string"},{"name":"pointers","type":"address[]","internalType":"address[]"}],"outputs":[{"name":"pointer","type":"address","internalType":"address"},{"name":"file","type":"tuple","internalType":"struct File","components":[{"name":"size","type":"uint256","internalType":"uint256"},{"name":"slices","type":"tuple[]","internalType":"struct BytecodeSlice[]","components":[{"name":"pointer","type":"address","internalType":"address"},{"name":"start","type":"uint32","internalType":"uint32"},{"name":"end","type":"uint32","internalType":"uint32"}]}]}],"stateMutability":"nonpayable"},{"type":"function","name":"createFileFromSlices","inputs":[{"name":"filename","type":"string","internalType":"string"},{"name":"slices","type":"tuple[]","internalType":"struct BytecodeSlice[]","components":[{"name":"pointer","type":"address","internalType":"address"},{"name":"start","type":"uint32","internalType":"uint32"},{"name":"end","type":"uint32","internalType":"uint32"}]},{"name":"metadata","type":"bytes","internalType":"bytes"}],"outputs":[{"name":"pointer","type":"address","internalType":"address"},{"name":"file","type":"tuple","internalType":"struct File","components":[{"name":"size","type":"uint256","internalType":"uint256"},{"name":"slices","type":"tuple[]","internalType":"struct BytecodeSlice[]","components":[{"name":"pointer","type":"address","internalType":"address"},{"name":"start","type":"uint32","internalType":"uint32"},{"name":"end","type":"uint32","internalType":"uint32"}]}]}],"stateMutability":"nonpayable"},{"type":"function","name":"createFileFromSlices","inputs":[{"name":"filename","type":"string","internalType":"string"},{"name":"slices","type":"tuple[]","internalType":"struct BytecodeSlice[]","components":[{"name":"pointer","type":"address","internalType":"address"},{"name":"start","type":"uint32","internalType":"uint32"},{"name":"end","type":"uint32","internalType":"uint32"}]}],"outputs":[{"name":"pointer","type":"address","internalType":"address"},{"name":"file","type":"tuple","internalType":"struct File","components":[{"name":"size","type":"uint256","internalType":"uint256"},{"name":"slices","type":"tuple[]","internalType":"struct BytecodeSlice[]","components":[{"name":"pointer","type":"address","internalType":"address"},{"name":"start","type":"uint32","internalType":"uint32"},{"name":"end","type":"uint32","internalType":"uint32"}]}]}],"stateMutability":"nonpayable"},{"type":"function","name":"deployer","inputs":[],"outputs":[{"name":"","type":"address","internalType":"address"}],"stateMutability":"view"},{"type":"function","name":"fileExists","inputs":[{"name":"filename","type":"string","internalType":"string"}],"outputs":[{"name":"","type":"bool","internalType":"bool"}],"stateMutability":"view"},{"type":"function","name":"files","inputs":[{"name":"filename","type":"string","internalType":"string"}],"outputs":[{"name":"pointer","type":"address","internalType":"address"}],"stateMutability":"view"},{"type":"function","name":"getFile","inputs":[{"name":"filename","type":"string","internalType":"string"}],"outputs":[{"name":"file","type":"tuple","internalType":"struct File","components":[{"name":"size","type":"uint256","internalType":"uint256"},{"name":"slices","type":"tuple[]","internalType":"struct BytecodeSlice[]","components":[{"name":"pointer","type":"address","internalType":"address"},{"name":"start","type":"uint32","internalType":"uint32"},{"name":"end","type":"uint32","internalType":"uint32"}]}]}],"stateMutability":"view"},{"type":"function","name":"getPointer","inputs":[{"name":"filename","type":"string","internalType":"string"}],"outputs":[{"name":"pointer","type":"address","internalType":"address"}],"stateMutability":"view"},{"type":"function","name":"readFile","inputs":[{"name":"filename","type":"string","internalType":"string"}],"outputs":[{"name":"contents","type":"string","internalType":"string"}],"stateMutability":"view"},{"type":"event","name":"Deployed","inputs":[],"anonymous":false},{"type":"event","name":"FileCreated","inputs":[{"name":"indexedFilename","type":"string","indexed":true,"internalType":"string"},{"name":"pointer","type":"address","indexed":true,"internalType":"address"},{"name":"filename","type":"string","indexed":false,"internalType":"string"},{"name":"size","type":"uint256","indexed":false,"internalType":"uint256"},{"name":"metadata","type":"bytes","indexed":false,"internalType":"bytes"}],"anonymous":false},{"type":"error","name":"FileEmpty","inputs":[]},{"type":"error","name":"FileNotFound","inputs":[{"name":"filename","type":"string","internalType":"string"}]},{"type":"error","name":"FilenameExists","inputs":[{"name":"filename","type":"string","internalType":"string"}]},{"type":"error","name":"InvalidPointer","inputs":[{"name":"pointer","type":"address","internalType":"address"}]},{"type":"error","name":"SliceEmpty","inputs":[{"name":"pointer","type":"address","internalType":"address"},{"name":"start","type":"uint32","internalType":"uint32"},{"name":"end","type":"uint32","internalType":"uint32"}]},{"type":"error","name":"SliceOutOfBounds","inputs":[{"name":"pointer","type":"address","internalType":"address"},{"name":"codeSize","type":"uint32","internalType":"uint32"},{"name":"sliceStart","type":"uint32","internalType":"uint32"},{"name":"sliceEnd","type":"uint32","internalType":"uint32"}]}],"bytecode":{"object":"0x60a060405234801561000f575f5ffd5b506040516127ff3803806127ff833981810160405281019061003191906100f5565b8073ffffffffffffffffffffffffffffffffffffffff1660808173ffffffffffffffffffffffffffffffffffffffff16815250507f3fad920548ed9f22deb8333b4cc1e4f9bc36666a1c2aa30ad59a0a3bb9dcbb9260405160405180910390a150610120565b5f5ffd5b5f73ffffffffffffffffffffffffffffffffffffffff82169050919050565b5f6100c48261009b565b9050919050565b6100d4816100ba565b81146100de575f5ffd5b50565b5f815190506100ef816100cb565b92915050565b5f6020828403121561010a57610109610097565b5b5f610117848285016100e1565b91505092915050565b6080516126b96101465f395f81816105e301528181610c0101526111cd01526126b95ff3fe608060405234801561000f575f5ffd5b50600436106100e8575f3560e01c8063d0e11f721161008a578063e24eaca411610064578063e24eaca4146102c0578063e7755761146102f1578063e9c7b51c14610321578063fae172e614610352576100e8565b8063d0e11f7214610241578063d5f3948814610272578063e0876aa814610290576100e8565b806381ad193a116100c657806381ad193a1461017e57806383e870d3146101af5780639bccd6ad146101e05780639d3127df14610210576100e8565b806355bb7d2c146100ec57806360f9bb111461011d5780637611cb021461014d575b5f5ffd5b610106600480360381019061010191906118ad565b610382565b604051610114929190611ab8565b60405180910390f35b61013760048036038101906101329190611ae6565b6103aa565b6040516101449190611b8d565b60405180910390f35b61016760048036038101906101629190611c6d565b6103c4565b604051610175929190611ab8565b60405180910390f35b61019860048036038101906101939190611d11565b6103ec565b6040516101a6929190611ab8565b60405180910390f35b6101c960048036038101906101c49190611e65565b61045f565b6040516101d7929190611ab8565b60405180910390f35b6101fa60048036038101906101f59190611ae6565b610487565b6040516102079190611f23565b60405180910390f35b61022a60048036038101906102259190611f3c565b6104fb565b604051610238929190611ab8565b60405180910390f35b61025b60048036038101906102569190611fb2565b61056e565b604051610269929190611ab8565b60405180910390f35b61027a6105e1565b6040516102879190612028565b60405180910390f35b6102aa60048036038101906102a59190611ae6565b610605565b6040516102b79190612041565b60405180910390f35b6102da60048036038101906102d59190612061565b6106e1565b6040516102e8929190611ab8565b60405180910390f35b61030b60048036038101906103069190611ae6565b610754565b6040516103189190612028565b60405180910390f35b61033b600480360381019061033691906120d7565b61079b565b604051610349929190611ab8565b60405180910390f35b61036c60048036038101906103679190611ae6565b6107c3565b6040516103799190612028565b60405180910390f35b5f61038b6114a9565b61039e8561039886610878565b85610b0b565b91509150935093915050565b60606103bd6103b883610605565b610d1b565b9050919050565b5f6103cd6114a9565b6103e0856103da86610dc7565b85610b0b565b91509150935093915050565b5f6103f56114a9565b610454846104028561103d565b5f67ffffffffffffffff81111561041c5761041b61152b565b5b6040519080825280601f01601f19166020018201604052801561044e5781602001600182028036833780820191505090505b50610b0b565b915091509250929050565b5f6104686114a9565b61047b8561047586611156565b85610b0b565b91509150935093915050565b5f5f73ffffffffffffffffffffffffffffffffffffffff165f836040516104ae91906121b5565b90815260200160405180910390205f9054906101000a900473ffffffffffffffffffffffffffffffffffffffff1673ffffffffffffffffffffffffffffffffffffffff1614159050919050565b5f6105046114a9565b6105638461051185610878565b5f67ffffffffffffffff81111561052b5761052a61152b565b5b6040519080825280601f01601f19166020018201604052801561055d5781602001600182028036833780820191505090505b50610b0b565b915091509250929050565b5f6105776114a9565b6105d68461058485611156565b5f67ffffffffffffffff81111561059e5761059d61152b565b5b6040519080825280601f01601f1916602001820160405280156105d05781602001600182028036833780820191505090505b50610b0b565b915091509250929050565b7f000000000000000000000000000000000000000000000000000000000000000081565b61060d6114a9565b5f5f8360405161061d91906121b5565b90815260200160405180910390205f9054906101000a900473ffffffffffffffffffffffffffffffffffffffff1690505f73ffffffffffffffffffffffffffffffffffffffff168173ffffffffffffffffffffffffffffffffffffffff16036106bd57826040517f5aeb32f80000000000000000000000000000000000000000000000000000000081526004016106b49190611b8d565b60405180910390fd5b6106c68161136d565b8060200190518101906106d9919061237c565b915050919050565b5f6106ea6114a9565b610749846106f785610dc7565b5f67ffffffffffffffff8111156107115761071061152b565b5b6040519080825280601f01601f1916602001820160405280156107435781602001600182028036833780820191505090505b50610b0b565b915091509250929050565b5f818051602081018201805184825260208301602085012081835280955050505050505f915054906101000a900473ffffffffffffffffffffffffffffffffffffffff1681565b5f6107a46114a9565b6107b7856107b18661103d565b85610b0b565b91509150935093915050565b5f5f826040516107d391906121b5565b90815260200160405180910390205f9054906101000a900473ffffffffffffffffffffffffffffffffffffffff1690505f73ffffffffffffffffffffffffffffffffffffffff168173ffffffffffffffffffffffffffffffffffffffff160361087357816040517f5aeb32f800000000000000000000000000000000000000000000000000000000815260040161086a9190611b8d565b60405180910390fd5b919050565b6108806114a9565b5f5f90505f5f90505b8351811015610aed575f8482815181106108a6576108a56123c3565b5b6020026020010151602001518583815181106108c5576108c46123c3565b5b6020026020010151604001516108db919061241d565b63ffffffff1611610980578381815181106108f9576108f86123c3565b5b60200260200101515f0151848281518110610917576109166123c3565b5b602002602001015160200151858381518110610936576109356123c3565b5b6020026020010151604001516040517ffb55db1000000000000000000000000000000000000000000000000000000000815260040161097793929190612463565b60405180910390fd5b5f848281518110610994576109936123c3565b5b60200260200101515f015173ffffffffffffffffffffffffffffffffffffffff163b90508063ffffffff168583815181106109d2576109d16123c3565b5b60200260200101516040015163ffffffff161115610a86578482815181106109fd576109fc6123c3565b5b60200260200101515f015181868481518110610a1c57610a1b6123c3565b5b602002602001015160200151878581518110610a3b57610a3a6123c3565b5b6020026020010151604001516040517f86d14d89000000000000000000000000000000000000000000000000000000008152600401610a7d9493929190612498565b60405180910390fd5b848281518110610a9957610a986123c3565b5b602002602001015160200151858381518110610ab857610ab76123c3565b5b602002602001015160400151610ace919061241d565b63ffffffff1683610adf91906124db565b925050806001019050610889565b50604051806040016040528082815260200184815250915050919050565b5f610b146114a9565b5f845f015103610b50576040517fd74d341f00000000000000000000000000000000000000000000000000000000815260040160405180910390fd5b5f73ffffffffffffffffffffffffffffffffffffffff165f86604051610b7691906121b5565b90815260200160405180910390205f9054906101000a900473ffffffffffffffffffffffffffffffffffffffff1673ffffffffffffffffffffffffffffffffffffffff1614610bfc57846040517f30add8a0000000000000000000000000000000000000000000000000000000008152600401610bf39190611b8d565b60405180910390fd5b610c457f000000000000000000000000000000000000000000000000000000000000000085604051602001610c319190612041565b60405160208183030381529060405261139d565b9150815f86604051610c5791906121b5565b90815260200160405180910390205f6101000a81548173ffffffffffffffffffffffffffffffffffffffff021916908373ffffffffffffffffffffffffffffffffffffffff1602179055508173ffffffffffffffffffffffffffffffffffffffff1685604051610cc791906121b5565b60405180910390207f656833a15067acdf08730a6a38b6ab9ed5e3265936848d56eac08e7b3b72396487875f015187604051610d059392919061256f565b60405180910390a3818491509150935093915050565b60605f826020015190505f6386d14d8960e01b90508151602060405194505f5f5f5f5f5f5b87811015610da557602081026020018a01519550855194506020860151935060408601519250843b915081831115610d8a57885f528460045281602452836044528260645260845ffd5b83830384888d01873c83830387019650600181019050610d40565b50602086038a52601f19601f8701168a01604052505050505050505050919050565b610dcf6114a9565b5f5f90505f835167ffffffffffffffff811115610def57610dee61152b565b5b604051908082528060200260200182016040528015610e2857816020015b610e156114c2565b815260200190600190039081610e0d5790505b5090505f5f90505b845181101561101e57610e5c858281518110610e4f57610e4e6123c3565b5b60200260200101516113af565b610eb757848181518110610e7357610e726123c3565b5b60200260200101516040517f26cd2837000000000000000000000000000000000000000000000000000000008152600401610eae9190612028565b60405180910390fd5b848181518110610eca57610ec96123c3565b5b6020026020010151828281518110610ee557610ee46123c3565b5b60200260200101515f019073ffffffffffffffffffffffffffffffffffffffff16908173ffffffffffffffffffffffffffffffffffffffff16815250506001828281518110610f3757610f366123c3565b5b60200260200101516020019063ffffffff16908163ffffffff1681525050848181518110610f6857610f676123c3565b5b602002602001015173ffffffffffffffffffffffffffffffffffffffff163b828281518110610f9a57610f996123c3565b5b60200260200101516040019063ffffffff16908163ffffffff1681525050818181518110610fcb57610fca6123c3565b5b602002602001015160200151828281518110610fea57610fe96123c3565b5b602002602001015160400151611000919061241d565b63ffffffff168361101191906124db565b9250806001019050610e30565b5060405180604001604052808381526020018281525092505050919050565b6110456114a9565b5f825190505f615fff90505f816001838561106091906124db565b61106a91906125b2565b6110749190612612565b90505f8167ffffffffffffffff8111156110915761109061152b565b5b6040519080825280602002602001820160405280156110c457816020015b60608152602001906001900390816110af5790505b5090505f5f90505b82811015611141575f84826110e19190612642565b90505f8686836110f191906124db565b1161110757858261110291906124db565b611109565b865b90506111168983836113dd565b848481518110611129576111286123c3565b5b602002602001018190525050508060010190506110cc565b5061114b81611156565b945050505050919050565b61115e6114a9565b5f5f90505f835167ffffffffffffffff81111561117e5761117d61152b565b5b6040519080825280602002602001820160405280156111b757816020015b6111a46114c2565b81526020019060019003908161119c5790505b5090505f5f90505b845181101561134e5761120c7f00000000000000000000000000000000000000000000000000000000000000008683815181106111ff576111fe6123c3565b5b602002602001015161139d565b82828151811061121f5761121e6123c3565b5b60200260200101515f019073ffffffffffffffffffffffffffffffffffffffff16908173ffffffffffffffffffffffffffffffffffffffff16815250506001828281518110611271576112706123c3565b5b60200260200101516020019063ffffffff16908163ffffffff16815250508481815181106112a2576112a16123c3565b5b60200260200101515160016112b791906124db565b8282815181106112ca576112c96123c3565b5b60200260200101516040019063ffffffff16908163ffffffff16815250508181815181106112fb576112fa6123c3565b5b60200260200101516020015182828151811061131a576113196123c3565b5b602002602001015160400151611330919061241d565b63ffffffff168361134191906124db565b92508060010190506111bf565b5060405180604001604052808381526020018281525092505050919050565b606060405190506001823b0364ffffffffff16602181015f601f8401853c80825260408201810160405250919050565b5f6113a7826113f3565b905092915050565b5f813b60fe5f8211156113d15760405160015f82873c60ff601f820351169150505b5f811492505050919050565b60606113ea848484611437565b90509392505050565b5f81518060401b6bfe61000180600a3d393df3000161fffe8211840152600b8101601584015ff091508161142e5763301164255f526004601cfd5b80835250919050565b60608351828111611446578092505b838111611451578093505b828410156114a1576040519150838303848601601f1980601f8401165b60011561148857808301518187015281810190508061146e575b508260208601015f815260208101604052838652505050505b509392505050565b60405180604001604052805f8152602001606081525090565b60405180606001604052805f73ffffffffffffffffffffffffffffffffffffffff1681526020015f63ffffffff1681526020015f63ffffffff1681525090565b5f604051905090565b5f5ffd5b5f5ffd5b5f5ffd5b5f5ffd5b5f601f19601f8301169050919050565b7f4e487b71000000000000000000000000000000000000000000000000000000005f52604160045260245ffd5b6115618261151b565b810181811067ffffffffffffffff821117156115805761157f61152b565b5b80604052505050565b5f611592611502565b905061159e8282611558565b919050565b5f67ffffffffffffffff8211156115bd576115bc61152b565b5b6115c68261151b565b9050602081019050919050565b828183375f83830152505050565b5f6115f36115ee846115a3565b611589565b90508281526020810184848401111561160f5761160e611517565b5b61161a8482856115d3565b509392505050565b5f82601f83011261163657611635611513565b5b81356116468482602086016115e1565b91505092915050565b5f67ffffffffffffffff8211156116695761166861152b565b5b602082029050602081019050919050565b5f5ffd5b5f5ffd5b5f5ffd5b5f73ffffffffffffffffffffffffffffffffffffffff82169050919050565b5f6116af82611686565b9050919050565b6116bf816116a5565b81146116c9575f5ffd5b50565b5f813590506116da816116b6565b92915050565b5f63ffffffff82169050919050565b6116f8816116e0565b8114611702575f5ffd5b50565b5f81359050611713816116ef565b92915050565b5f6060828403121561172e5761172d61167e565b5b6117386060611589565b90505f611747848285016116cc565b5f83015250602061175a84828501611705565b602083015250604061176e84828501611705565b60408301525092915050565b5f61178c6117878461164f565b611589565b905080838252602082019050606084028301858111156117af576117ae61167a565b5b835b818110156117d857806117c48882611719565b8452602084019350506060810190506117b1565b5050509392505050565b5f82601f8301126117f6576117f5611513565b5b813561180684826020860161177a565b91505092915050565b5f67ffffffffffffffff8211156118295761182861152b565b5b6118328261151b565b9050602081019050919050565b5f61185161184c8461180f565b611589565b90508281526020810184848401111561186d5761186c611517565b5b6118788482856115d3565b509392505050565b5f82601f83011261189457611893611513565b5b81356118a484826020860161183f565b91505092915050565b5f5f5f606084860312156118c4576118c361150b565b5b5f84013567ffffffffffffffff8111156118e1576118e061150f565b5b6118ed86828701611622565b935050602084013567ffffffffffffffff81111561190e5761190d61150f565b5b61191a868287016117e2565b925050604084013567ffffffffffffffff81111561193b5761193a61150f565b5b61194786828701611880565b9150509250925092565b61195a816116a5565b82525050565b5f819050919050565b61197281611960565b82525050565b5f81519050919050565b5f82825260208201905092915050565b5f819050602082019050919050565b6119aa816116a5565b82525050565b6119b9816116e0565b82525050565b606082015f8201516119d35f8501826119a1565b5060208201516119e660208501826119b0565b5060408201516119f960408501826119b0565b50505050565b5f611a0a83836119bf565b60608301905092915050565b5f602082019050919050565b5f611a2c82611978565b611a368185611982565b9350611a4183611992565b805f5b83811015611a71578151611a5888826119ff565b9750611a6383611a16565b925050600181019050611a44565b5085935050505092915050565b5f604083015f830151611a935f860182611969565b5060208301518482036020860152611aab8282611a22565b9150508091505092915050565b5f604082019050611acb5f830185611951565b8181036020830152611add8184611a7e565b90509392505050565b5f60208284031215611afb57611afa61150b565b5b5f82013567ffffffffffffffff811115611b1857611b1761150f565b5b611b2484828501611622565b91505092915050565b5f81519050919050565b5f82825260208201905092915050565b8281835e5f83830152505050565b5f611b5f82611b2d565b611b698185611b37565b9350611b79818560208601611b47565b611b828161151b565b840191505092915050565b5f6020820190508181035f830152611ba58184611b55565b905092915050565b5f67ffffffffffffffff821115611bc757611bc661152b565b5b602082029050602081019050919050565b5f611bea611be584611bad565b611589565b90508083825260208201905060208402830185811115611c0d57611c0c61167a565b5b835b81811015611c365780611c2288826116cc565b845260208401935050602081019050611c0f565b5050509392505050565b5f82601f830112611c5457611c53611513565b5b8135611c64848260208601611bd8565b91505092915050565b5f5f5f60608486031215611c8457611c8361150b565b5b5f84013567ffffffffffffffff811115611ca157611ca061150f565b5b611cad86828701611622565b935050602084013567ffffffffffffffff811115611cce57611ccd61150f565b5b611cda86828701611c40565b925050604084013567ffffffffffffffff811115611cfb57611cfa61150f565b5b611d0786828701611880565b9150509250925092565b5f5f60408385031215611d2757611d2661150b565b5b5f83013567ffffffffffffffff811115611d4457611d4361150f565b5b611d5085828601611622565b925050602083013567ffffffffffffffff811115611d7157611d7061150f565b5b611d7d85828601611622565b9150509250929050565b5f67ffffffffffffffff821115611da157611da061152b565b5b602082029050602081019050919050565b5f611dc4611dbf84611d87565b611589565b90508083825260208201905060208402830185811115611de757611de661167a565b5b835b81811015611e2e57803567ffffffffffffffff811115611e0c57611e0b611513565b5b808601611e198982611622565b85526020850194505050602081019050611de9565b5050509392505050565b5f82601f830112611e4c57611e4b611513565b5b8135611e5c848260208601611db2565b91505092915050565b5f5f5f60608486031215611e7c57611e7b61150b565b5b5f84013567ffffffffffffffff811115611e9957611e9861150f565b5b611ea586828701611622565b935050602084013567ffffffffffffffff811115611ec657611ec561150f565b5b611ed286828701611e38565b925050604084013567ffffffffffffffff811115611ef357611ef261150f565b5b611eff86828701611880565b9150509250925092565b5f8115159050919050565b611f1d81611f09565b82525050565b5f602082019050611f365f830184611f14565b92915050565b5f5f60408385031215611f5257611f5161150b565b5b5f83013567ffffffffffffffff811115611f6f57611f6e61150f565b5b611f7b85828601611622565b925050602083013567ffffffffffffffff811115611f9c57611f9b61150f565b5b611fa8858286016117e2565b9150509250929050565b5f5f60408385031215611fc857611fc761150b565b5b5f83013567ffffffffffffffff811115611fe557611fe461150f565b5b611ff185828601611622565b925050602083013567ffffffffffffffff8111156120125761201161150f565b5b61201e85828601611e38565b9150509250929050565b5f60208201905061203b5f830184611951565b92915050565b5f6020820190508181035f8301526120598184611a7e565b905092915050565b5f5f604083850312156120775761207661150b565b5b5f83013567ffffffffffffffff8111156120945761209361150f565b5b6120a085828601611622565b925050602083013567ffffffffffffffff8111156120c1576120c061150f565b5b6120cd85828601611c40565b9150509250929050565b5f5f5f606084860312156120ee576120ed61150b565b5b5f84013567ffffffffffffffff81111561210b5761210a61150f565b5b61211786828701611622565b935050602084013567ffffffffffffffff8111156121385761213761150f565b5b61214486828701611622565b925050604084013567ffffffffffffffff8111156121655761216461150f565b5b61217186828701611880565b9150509250925092565b5f81905092915050565b5f61218f82611b2d565b612199818561217b565b93506121a9818560208601611b47565b80840191505092915050565b5f6121c08284612185565b915081905092915050565b6121d481611960565b81146121de575f5ffd5b50565b5f815190506121ef816121cb565b92915050565b5f81519050612203816116b6565b92915050565b5f81519050612217816116ef565b92915050565b5f606082840312156122325761223161167e565b5b61223c6060611589565b90505f61224b848285016121f5565b5f83015250602061225e84828501612209565b602083015250604061227284828501612209565b60408301525092915050565b5f61229061228b8461164f565b611589565b905080838252602082019050606084028301858111156122b3576122b261167a565b5b835b818110156122dc57806122c8888261221d565b8452602084019350506060810190506122b5565b5050509392505050565b5f82601f8301126122fa576122f9611513565b5b815161230a84826020860161227e565b91505092915050565b5f604082840312156123285761232761167e565b5b6123326040611589565b90505f612341848285016121e1565b5f83015250602082015167ffffffffffffffff81111561236457612363611682565b5b612370848285016122e6565b60208301525092915050565b5f602082840312156123915761239061150b565b5b5f82015167ffffffffffffffff8111156123ae576123ad61150f565b5b6123ba84828501612313565b91505092915050565b7f4e487b71000000000000000000000000000000000000000000000000000000005f52603260045260245ffd5b7f4e487b71000000000000000000000000000000000000000000000000000000005f52601160045260245ffd5b5f612427826116e0565b9150612432836116e0565b9250828203905063ffffffff81111561244e5761244d6123f0565b5b92915050565b61245d816116e0565b82525050565b5f6060820190506124765f830186611951565b6124836020830185612454565b6124906040830184612454565b949350505050565b5f6080820190506124ab5f830187611951565b6124b86020830186612454565b6124c56040830185612454565b6124d26060830184612454565b95945050505050565b5f6124e582611960565b91506124f083611960565b9250828201905080821115612508576125076123f0565b5b92915050565b61251781611960565b82525050565b5f81519050919050565b5f82825260208201905092915050565b5f6125418261251d565b61254b8185612527565b935061255b818560208601611b47565b6125648161151b565b840191505092915050565b5f6060820190508181035f8301526125878186611b55565b9050612596602083018561250e565b81810360408301526125a88184612537565b9050949350505050565b5f6125bc82611960565b91506125c783611960565b92508282039050818111156125df576125de6123f0565b5b92915050565b7f4e487b71000000000000000000000000000000000000000000000000000000005f52601260045260245ffd5b5f61261c82611960565b915061262783611960565b925082612637576126366125e5565b5b828204905092915050565b5f61264c82611960565b915061265783611960565b925082820261266581611960565b9150828204841483151761267c5761267b6123f0565b5b509291505056fea2646970667358221220c839140089aff92794f11c74a63c01c2b9ec20af677e8a1d857ea422f8aed8f164736f6c634300081e0033","linkReferences":{}},"methodIdentifiers":{"createFile(string,string)":"81ad193a","createFile(string,string,bytes)":"e9c7b51c","createFileFromChunks(string,string[])":"d0e11f72","createFileFromChunks(string,string[],bytes)":"83e870d3","createFileFromPointers(string,address[])":"e24eaca4","createFileFromPointers(string,address[],bytes)":"7611cb02","createFileFromSlices(string,(address,uint32,uint32)[])":"9d3127df","createFileFromSlices(string,(address,uint32,uint32)[],bytes)":"55bb7d2c","deployer()":"d5f39488","fileExists(string)":"9bccd6ad","files(string)":"e7755761","getFile(string)":"e0876aa8","getPointer(string)":"fae172e6","readFile(string)":"60f9bb11"},"id":48}