{"abi":[{"type":"constructor","inputs":[{"name":"ethfsFileStore_","type":"address","internalType":"contract IFileStore"},{"name":"initialOwner","type":"address","internalType":"address"}],"stateMutability":"nonpayable"},{"type":"function","name":"addChunkToContent","inputs":[{"name":"name","type":"string","internalType":"string"},{"name":"chunk","type":"bytes","internalType":"bytes"}],"outputs":[],"stateMutability":"nonpayable"},{"type":"function","name":"contents","inputs":[{"name":"","type":"string","internalType":"string"}],"outputs":[{"name":"isFrozen","type":"bool","internalType":"bool"},{"name":"owner","type":"address","internalType":"address"},{"name":"size","type":"uint256","internalType":"uint256"},{"name":"details","type":"bytes","internalType":"bytes"}],"stateMutability":"view"},{"type":"function","name":"createContent","inputs":[{"name":"name","type":"string","internalType":"string"},{"name":"details","type":"bytes","internalType":"bytes"}],"outputs":[],"stateMutability":"nonpayable"},{"type":"function","name":"ethfsFileStore","inputs":[],"outputs":[{"name":"","type":"address","internalType":"contract IFileStore"}],"stateMutability":"view"},{"type":"function","name":"freezeContent","inputs":[{"name":"name","type":"string","internalType":"string"}],"outputs":[],"stateMutability":"nonpayable"},{"type":"function","name":"getContent","inputs":[{"name":"name","type":"string","internalType":"string"},{"name":"data","type":"bytes","internalType":"bytes"}],"outputs":[{"name":"content","type":"bytes","internalType":"bytes"}],"stateMutability":"view"},{"type":"function","name":"getContentChunkPointers","inputs":[{"name":"name","type":"string","internalType":"string"}],"outputs":[{"name":"pointers","type":"address[]","internalType":"address[]"}],"stateMutability":"view"},{"type":"function","name":"owner","inputs":[],"outputs":[{"name":"","type":"address","internalType":"address"}],"stateMutability":"view"},{"type":"function","name":"renounceOwnership","inputs":[],"outputs":[],"stateMutability":"nonpayable"},{"type":"function","name":"submitToEthFSFileStore","inputs":[{"name":"name","type":"string","internalType":"string"},{"name":"metadata","type":"bytes","internalType":"bytes"}],"outputs":[],"stateMutability":"nonpayable"},{"type":"function","name":"submitToEthFSFileStoreWithFileName","inputs":[{"name":"name","type":"string","internalType":"string"},{"name":"fileName","type":"string","internalType":"string"},{"name":"metadata","type":"bytes","internalType":"bytes"}],"outputs":[],"stateMutability":"nonpayable"},{"type":"function","name":"transferOwnership","inputs":[{"name":"newOwner","type":"address","internalType":"address"}],"outputs":[],"stateMutability":"nonpayable"},{"type":"function","name":"updateDetails","inputs":[{"name":"name","type":"string","internalType":"string"},{"name":"details","type":"bytes","internalType":"bytes"}],"outputs":[],"stateMutability":"nonpayable"},{"type":"event","name":"ChunkStored","inputs":[{"name":"name","type":"string","indexed":true,"internalType":"string"},{"name":"size","type":"uint256","indexed":false,"internalType":"uint256"}],"anonymous":false},{"type":"event","name":"ContentCreated","inputs":[{"name":"name","type":"string","indexed":true,"internalType":"string"},{"name":"details","type":"bytes","indexed":false,"internalType":"bytes"}],"anonymous":false},{"type":"event","name":"ContentDetailsUpdated","inputs":[{"name":"name","type":"string","indexed":true,"internalType":"string"},{"name":"details","type":"bytes","indexed":false,"internalType":"bytes"}],"anonymous":false},{"type":"event","name":"ContentFrozen","inputs":[{"name":"name","type":"string","indexed":true,"internalType":"string"}],"anonymous":false},{"type":"event","name":"ContentSubmittedToEthFSFileStore","inputs":[{"name":"name","type":"string","indexed":true,"internalType":"string"},{"name":"fileName","type":"string","indexed":true,"internalType":"string"}],"anonymous":false},{"type":"event","name":"OwnershipTransferred","inputs":[{"name":"previousOwner","type":"address","indexed":true,"internalType":"address"},{"name":"newOwner","type":"address","indexed":true,"internalType":"address"}],"anonymous":false},{"type":"error","name":"ContentExists","inputs":[]},{"type":"error","name":"ContentIsFrozen","inputs":[{"name":"name","type":"string","internalType":"string"}]},{"type":"error","name":"NotContentOwner","inputs":[]},{"type":"error","name":"OwnableInvalidOwner","inputs":[{"name":"owner","type":"address","internalType":"address"}]},{"type":"error","name":"OwnableUnauthorizedAccount","inputs":[{"name":"account","type":"address","internalType":"address"}]}],"bytecode":{"object":"0x60a060405234801561000f575f5ffd5b50604051612c1a380380612c1a83398181016040528101906100319190610247565b805f73ffffffffffffffffffffffffffffffffffffffff168173ffffffffffffffffffffffffffffffffffffffff16036100a2575f6040517f1e4fbdf70000000000000000000000000000000000000000000000000000000081526004016100999190610294565b60405180910390fd5b6100b1816100ed60201b60201c565b508173ffffffffffffffffffffffffffffffffffffffff1660808173ffffffffffffffffffffffffffffffffffffffff168152505050506102ad565b5f5f5f9054906101000a900473ffffffffffffffffffffffffffffffffffffffff169050815f5f6101000a81548173ffffffffffffffffffffffffffffffffffffffff021916908373ffffffffffffffffffffffffffffffffffffffff1602179055508173ffffffffffffffffffffffffffffffffffffffff168173ffffffffffffffffffffffffffffffffffffffff167f8be0079c531659141344cd1fd0a4f28419497f9722a3daafe3b4186f6b6457e060405160405180910390a35050565b5f5ffd5b5f73ffffffffffffffffffffffffffffffffffffffff82169050919050565b5f6101db826101b2565b9050919050565b5f6101ec826101d1565b9050919050565b6101fc816101e2565b8114610206575f5ffd5b50565b5f81519050610217816101f3565b92915050565b610226816101d1565b8114610230575f5ffd5b50565b5f815190506102418161021d565b92915050565b5f5f6040838503121561025d5761025c6101ae565b5b5f61026a85828601610209565b925050602061027b85828601610233565b9150509250929050565b61028e816101d1565b82525050565b5f6020820190506102a75f830184610285565b92915050565b6080516129406102da5f395f81816104da0152818161088901528181610e36015261120501526129405ff3fe608060405234801561000f575f5ffd5b50600436106100cd575f3560e01c80637a2c57011161008a578063a6acce3511610064578063a6acce35146101d3578063c3766aff14610206578063f2fde38b14610222578063f71e55c61461023e576100cd565b80637a2c57011461017b5780638da5cb5b1461019757806397228f67146101b5576100cd565b80631a4165e4146100d157806324fcb5b0146100ed5780632647c23d146101095780634f1165ce146101395780635fe5069914610155578063715018a614610171575b5f5ffd5b6100eb60048036038101906100e69190611a48565b61026e565b005b61010760048036038101906101029190611ac1565b61061d565b005b610123600480360381019061011e9190611c0c565b6109ce565b6040516101309190611ce2565b60405180910390f35b610153600480360381019061014e9190611d57565b610a83565b005b61016f600480360381019061016a9190611d57565b610d12565b005b610179611026565b005b61019560048036038101906101909190611dd5565b611039565b005b61019f6111dc565b6040516101ac9190611e5f565b60405180910390f35b6101bd611203565b6040516101ca9190611ed3565b60405180910390f35b6101ed60048036038101906101e89190611eec565b611227565b6040516101fd9493929190611f65565b60405180910390f35b610220600480360381019061021b9190611d57565b61131c565b005b61023c60048036038101906102379190611fd9565b6114c8565b005b61025860048036038101906102539190611eec565b61154c565b60405161026591906120bb565b60405180910390f35b828260018282604051610282929190612109565b90815260200160405180910390205f0160019054906101000a900473ffffffffffffffffffffffffffffffffffffffff1673ffffffffffffffffffffffffffffffffffffffff163373ffffffffffffffffffffffffffffffffffffffff1614610317576040517ff2da75f200000000000000000000000000000000000000000000000000000000815260040160405180910390fd5b5f6001868660405161032a929190612109565b90815260200160405180910390206040518060a00160405290815f82015f9054906101000a900460ff161515151581526020015f820160019054906101000a900473ffffffffffffffffffffffffffffffffffffffff1673ffffffffffffffffffffffffffffffffffffffff1673ffffffffffffffffffffffffffffffffffffffff168152602001600182015481526020016002820180546103cb9061214e565b80601f01602080910402602001604051908101604052809291908181526020018280546103f79061214e565b80156104425780601f1061041957610100808354040283529160200191610442565b820191905f5260205f20905b81548152906001019060200180831161042557829003601f168201915b50505050508152602001600382018054806020026020016040519081016040528092919081815260200182805480156104cd57602002820191905f5260205f20905b815f9054906101000a900473ffffffffffffffffffffffffffffffffffffffff1673ffffffffffffffffffffffffffffffffffffffff1681526020019060010190808311610484575b50505050508152505090507f000000000000000000000000000000000000000000000000000000000000000073ffffffffffffffffffffffffffffffffffffffff16637611cb0287878460800151886040518563ffffffff1660e01b815260040161053b94939291906121ba565b5f604051808303815f875af1158015610556573d5f5f3e3d5ffd5b505050506040513d5f823e3d601f19601f8201168201806040525081019061057e919061240f565b50506001808787604051610593929190612109565b90815260200160405180910390205f015f6101000a81548160ff02191690831515021790555085856040516105c9929190612109565b604051809103902086866040516105e1929190612109565b60405180910390207f45b4f2dc04ba811e9f0eb4779ac0016db21bdc2f7bd725e733fe2f82a454aec360405160405180910390a3505050505050565b848460018282604051610631929190612109565b90815260200160405180910390205f0160019054906101000a900473ffffffffffffffffffffffffffffffffffffffff1673ffffffffffffffffffffffffffffffffffffffff163373ffffffffffffffffffffffffffffffffffffffff16146106c6576040517ff2da75f200000000000000000000000000000000000000000000000000000000815260040160405180910390fd5b5f600188886040516106d9929190612109565b90815260200160405180910390206040518060a00160405290815f82015f9054906101000a900460ff161515151581526020015f820160019054906101000a900473ffffffffffffffffffffffffffffffffffffffff1673ffffffffffffffffffffffffffffffffffffffff1673ffffffffffffffffffffffffffffffffffffffff1681526020016001820154815260200160028201805461077a9061214e565b80601f01602080910402602001604051908101604052809291908181526020018280546107a69061214e565b80156107f15780601f106107c8576101008083540402835291602001916107f1565b820191905f5260205f20905b8154815290600101906020018083116107d457829003601f168201915b505050505081526020016003820180548060200260200160405190810160405280929190818152602001828054801561087c57602002820191905f5260205f20905b815f9054906101000a900473ffffffffffffffffffffffffffffffffffffffff1673ffffffffffffffffffffffffffffffffffffffff1681526020019060010190808311610833575b50505050508152505090507f000000000000000000000000000000000000000000000000000000000000000073ffffffffffffffffffffffffffffffffffffffff16637611cb0287878460800151886040518563ffffffff1660e01b81526004016108ea94939291906121ba565b5f604051808303815f875af1158015610905573d5f5f3e3d5ffd5b505050506040513d5f823e3d601f19601f8201168201806040525081019061092d919061240f565b50506001808989604051610942929190612109565b90815260200160405180910390205f015f6101000a81548160ff0219169083151502179055508585604051610978929190612109565b60405180910390208888604051610990929190612109565b60405180910390207f45b4f2dc04ba811e9f0eb4779ac0016db21bdc2f7bd725e733fe2f82a454aec360405160405180910390a35050505050505050565b6060610a7b6001846040516109e391906124a3565b9081526020016040518091039020600301805480602002602001604051908101604052809291908181526020018280548015610a7157602002820191905f5260205f20905b815f9054906101000a900473ffffffffffffffffffffffffffffffffffffffff1673ffffffffffffffffffffffffffffffffffffffff1681526020019060010190808311610a28575b50505050506115f8565b905092915050565b83835f73ffffffffffffffffffffffffffffffffffffffff1660018383604051610aae929190612109565b90815260200160405180910390205f0160019054906101000a900473ffffffffffffffffffffffffffffffffffffffff1673ffffffffffffffffffffffffffffffffffffffff1614610b2c576040517f7568bc3500000000000000000000000000000000000000000000000000000000815260040160405180910390fd5b6040518060a001604052805f151581526020013373ffffffffffffffffffffffffffffffffffffffff1681526020015f815260200185858080601f0160208091040260200160405190810160405280939291908181526020018383808284375f81840152601f19601f8201169050808301925050505050505081526020015f67ffffffffffffffff811115610bc457610bc3611924565b5b604051908082528060200260200182016040528015610bf25781602001602082028036833780820191505090505b5081525060018787604051610c08929190612109565b90815260200160405180910390205f820151815f015f6101000a81548160ff0219169083151502179055506020820151815f0160016101000a81548173ffffffffffffffffffffffffffffffffffffffff021916908373ffffffffffffffffffffffffffffffffffffffff160217905550604082015181600101556060820151816002019081610c989190612650565b506080820151816003019080519060200190610cb59291906117fc565b509050508585604051610cc9929190612109565b60405180910390207fdef375f83e0f3b86cf8ca9fc60e75073470e0e38705f1e215206737edb2a564a8585604051610d0292919061274b565b60405180910390a2505050505050565b838360018282604051610d26929190612109565b90815260200160405180910390205f015f9054906101000a900460ff1615610d875781816040517f096ef083000000000000000000000000000000000000000000000000000000008152600401610d7e92919061276d565b60405180910390fd5b858560018282604051610d9b929190612109565b90815260200160405180910390205f0160019054906101000a900473ffffffffffffffffffffffffffffffffffffffff1673ffffffffffffffffffffffffffffffffffffffff163373ffffffffffffffffffffffffffffffffffffffff1614610e30576040517ff2da75f200000000000000000000000000000000000000000000000000000000815260040160405180910390fd5b5f610f0a7f000000000000000000000000000000000000000000000000000000000000000073ffffffffffffffffffffffffffffffffffffffff1663d5f394886040518163ffffffff1660e01b8152600401602060405180830381865afa158015610e9d573d5f5f3e3d5ffd5b505050506040513d601f19601f82011682018060405250810190610ec1919061278f565b88888080601f0160208091040260200160405190810160405280939291908181526020018383808284375f81840152601f19601f82011690508083019250505050505050611657565b905060018989604051610f1e929190612109565b908152602001604051809103902060030181908060018154018082558091505060019003905f5260205f20015f9091909190916101000a81548173ffffffffffffffffffffffffffffffffffffffff021916908373ffffffffffffffffffffffffffffffffffffffff1602179055508686905060018a8a604051610fa3929190612109565b90815260200160405180910390206001015f828254610fc291906127e7565b925050819055508888604051610fd9929190612109565b60405180910390207f4c4439fb488c666dfac05b75b1eaa33ddec20e80ade108bbfbf9a346101a17fa88889050604051611013919061281a565b60405180910390a2505050505050505050565b61102e611669565b6110375f6116f0565b565b81816001828260405161104d929190612109565b90815260200160405180910390205f015f9054906101000a900460ff16156110ae5781816040517f096ef0830000000000000000000000000000000000000000000000000000000081526004016110a592919061276d565b60405180910390fd5b8383600182826040516110c2929190612109565b90815260200160405180910390205f0160019054906101000a900473ffffffffffffffffffffffffffffffffffffffff1673ffffffffffffffffffffffffffffffffffffffff163373ffffffffffffffffffffffffffffffffffffffff1614611157576040517ff2da75f200000000000000000000000000000000000000000000000000000000815260040160405180910390fd5b600180878760405161116a929190612109565b90815260200160405180910390205f015f6101000a81548160ff02191690831515021790555085856040516111a0929190612109565b60405180910390207f97add12139614f08415043a75d4c656150251bc30d807d1bf5fe2eda77c539f660405160405180910390a2505050505050565b5f5f5f9054906101000a900473ffffffffffffffffffffffffffffffffffffffff16905090565b7f000000000000000000000000000000000000000000000000000000000000000081565b6001818051602081018201805184825260208301602085012081835280955050505050505f91509050805f015f9054906101000a900460ff1690805f0160019054906101000a900473ffffffffffffffffffffffffffffffffffffffff169080600101549080600201805461129b9061214e565b80601f01602080910402602001604051908101604052809291908181526020018280546112c79061214e565b80156113125780601f106112e957610100808354040283529160200191611312565b820191905f5260205f20905b8154815290600101906020018083116112f557829003601f168201915b5050505050905084565b838360018282604051611330929190612109565b90815260200160405180910390205f015f9054906101000a900460ff16156113915781816040517f096ef08300000000000000000000000000000000000000000000000000000000815260040161138892919061276d565b60405180910390fd5b8585600182826040516113a5929190612109565b90815260200160405180910390205f0160019054906101000a900473ffffffffffffffffffffffffffffffffffffffff1673ffffffffffffffffffffffffffffffffffffffff163373ffffffffffffffffffffffffffffffffffffffff161461143a576040517ff2da75f200000000000000000000000000000000000000000000000000000000815260040160405180910390fd5b858560018a8a60405161144e929190612109565b9081526020016040518091039020600201918261146c92919061283d565b50878760405161147d929190612109565b60405180910390207f841de8cd90147293506b2d92fd0b437d946450a4a4a4f399dccc9d76473d72a787876040516114b692919061274b565b60405180910390a25050505050505050565b6114d0611669565b5f73ffffffffffffffffffffffffffffffffffffffff168173ffffffffffffffffffffffffffffffffffffffff1603611540575f6040517f1e4fbdf70000000000000000000000000000000000000000000000000000000081526004016115379190611e5f565b60405180910390fd5b611549816116f0565b50565b606060018260405161155e91906124a3565b90815260200160405180910390206003018054806020026020016040519081016040528092919081815260200182805480156115ec57602002820191905f5260205f20905b815f9054906101000a900473ffffffffffffffffffffffffffffffffffffffff1673ffffffffffffffffffffffffffffffffffffffff16815260200190600101908083116115a3575b50505050509050919050565b6060815160205f60405193505f5f5b8481101561163a576020810260200187015191506001823b039250826001858801843c8284019350600181019050611607565b50602083038552601f19601f840116850160405250505050919050565b5f611661826117b1565b905092915050565b6116716117f5565b73ffffffffffffffffffffffffffffffffffffffff1661168f6111dc565b73ffffffffffffffffffffffffffffffffffffffff16146116ee576116b26117f5565b6040517f118cdaa70000000000000000000000000000000000000000000000000000000081526004016116e59190611e5f565b60405180910390fd5b565b5f5f5f9054906101000a900473ffffffffffffffffffffffffffffffffffffffff169050815f5f6101000a81548173ffffffffffffffffffffffffffffffffffffffff021916908373ffffffffffffffffffffffffffffffffffffffff1602179055508173ffffffffffffffffffffffffffffffffffffffff168173ffffffffffffffffffffffffffffffffffffffff167f8be0079c531659141344cd1fd0a4f28419497f9722a3daafe3b4186f6b6457e060405160405180910390a35050565b5f81518060401b6bfe61000180600a3d393df3000161fffe8211840152600b8101601584015ff09150816117ec5763301164255f526004601cfd5b80835250919050565b5f33905090565b828054828255905f5260205f20908101928215611872579160200282015b82811115611871578251825f6101000a81548173ffffffffffffffffffffffffffffffffffffffff021916908373ffffffffffffffffffffffffffffffffffffffff1602179055509160200191906001019061181a565b5b50905061187f9190611883565b5090565b5b8082111561189a575f815f905550600101611884565b5090565b5f604051905090565b5f5ffd5b5f5ffd5b5f5ffd5b5f5ffd5b5f5ffd5b5f5f83601f8401126118d0576118cf6118af565b5b8235905067ffffffffffffffff8111156118ed576118ec6118b3565b5b602083019150836001820283011115611909576119086118b7565b5b9250929050565b5f5ffd5b5f601f19601f8301169050919050565b7f4e487b71000000000000000000000000000000000000000000000000000000005f52604160045260245ffd5b61195a82611914565b810181811067ffffffffffffffff8211171561197957611978611924565b5b80604052505050565b5f61198b61189e565b90506119978282611951565b919050565b5f67ffffffffffffffff8211156119b6576119b5611924565b5b6119bf82611914565b9050602081019050919050565b828183375f83830152505050565b5f6119ec6119e78461199c565b611982565b905082815260208101848484011115611a0857611a07611910565b5b611a138482856119cc565b509392505050565b5f82601f830112611a2f57611a2e6118af565b5b8135611a3f8482602086016119da565b91505092915050565b5f5f5f60408486031215611a5f57611a5e6118a7565b5b5f84013567ffffffffffffffff811115611a7c57611a7b6118ab565b5b611a88868287016118bb565b9350935050602084013567ffffffffffffffff811115611aab57611aaa6118ab565b5b611ab786828701611a1b565b9150509250925092565b5f5f5f5f5f60608688031215611ada57611ad96118a7565b5b5f86013567ffffffffffffffff811115611af757611af66118ab565b5b611b03888289016118bb565b9550955050602086013567ffffffffffffffff811115611b2657611b256118ab565b5b611b32888289016118bb565b9350935050604086013567ffffffffffffffff811115611b5557611b546118ab565b5b611b6188828901611a1b565b9150509295509295909350565b5f67ffffffffffffffff821115611b8857611b87611924565b5b611b9182611914565b9050602081019050919050565b5f611bb0611bab84611b6e565b611982565b905082815260208101848484011115611bcc57611bcb611910565b5b611bd78482856119cc565b509392505050565b5f82601f830112611bf357611bf26118af565b5b8135611c03848260208601611b9e565b91505092915050565b5f5f60408385031215611c2257611c216118a7565b5b5f83013567ffffffffffffffff811115611c3f57611c3e6118ab565b5b611c4b85828601611bdf565b925050602083013567ffffffffffffffff811115611c6c57611c6b6118ab565b5b611c7885828601611a1b565b9150509250929050565b5f81519050919050565b5f82825260208201905092915050565b8281835e5f83830152505050565b5f611cb482611c82565b611cbe8185611c8c565b9350611cce818560208601611c9c565b611cd781611914565b840191505092915050565b5f6020820190508181035f830152611cfa8184611caa565b905092915050565b5f5f83601f840112611d1757611d166118af565b5b8235905067ffffffffffffffff811115611d3457611d336118b3565b5b602083019150836001820283011115611d5057611d4f6118b7565b5b9250929050565b5f5f5f5f60408587031215611d6f57611d6e6118a7565b5b5f85013567ffffffffffffffff811115611d8c57611d8b6118ab565b5b611d98878288016118bb565b9450945050602085013567ffffffffffffffff811115611dbb57611dba6118ab565b5b611dc787828801611d02565b925092505092959194509250565b5f5f60208385031215611deb57611dea6118a7565b5b5f83013567ffffffffffffffff811115611e0857611e076118ab565b5b611e14858286016118bb565b92509250509250929050565b5f73ffffffffffffffffffffffffffffffffffffffff82169050919050565b5f611e4982611e20565b9050919050565b611e5981611e3f565b82525050565b5f602082019050611e725f830184611e50565b92915050565b5f819050919050565b5f611e9b611e96611e9184611e20565b611e78565b611e20565b9050919050565b5f611eac82611e81565b9050919050565b5f611ebd82611ea2565b9050919050565b611ecd81611eb3565b82525050565b5f602082019050611ee65f830184611ec4565b92915050565b5f60208284031215611f0157611f006118a7565b5b5f82013567ffffffffffffffff811115611f1e57611f1d6118ab565b5b611f2a84828501611bdf565b91505092915050565b5f8115159050919050565b611f4781611f33565b82525050565b5f819050919050565b611f5f81611f4d565b82525050565b5f608082019050611f785f830187611f3e565b611f856020830186611e50565b611f926040830185611f56565b8181036060830152611fa48184611caa565b905095945050505050565b611fb881611e3f565b8114611fc2575f5ffd5b50565b5f81359050611fd381611faf565b92915050565b5f60208284031215611fee57611fed6118a7565b5b5f611ffb84828501611fc5565b91505092915050565b5f81519050919050565b5f82825260208201905092915050565b5f819050602082019050919050565b61203681611e3f565b82525050565b5f612047838361202d565b60208301905092915050565b5f602082019050919050565b5f61206982612004565b612073818561200e565b935061207e8361201e565b805f5b838110156120ae578151612095888261203c565b97506120a083612053565b925050600181019050612081565b5085935050505092915050565b5f6020820190508181035f8301526120d3818461205f565b905092915050565b5f81905092915050565b5f6120f083856120db565b93506120fd8385846119cc565b82840190509392505050565b5f6121158284866120e5565b91508190509392505050565b7f4e487b71000000000000000000000000000000000000000000000000000000005f52602260045260245ffd5b5f600282049050600182168061216557607f821691505b60208210810361217857612177612121565b5b50919050565b5f82825260208201905092915050565b5f612199838561217e565b93506121a68385846119cc565b6121af83611914565b840190509392505050565b5f6060820190508181035f8301526121d381868861218e565b905081810360208301526121e7818561205f565b905081810360408301526121fb8184611caa565b905095945050505050565b5f8151905061221481611faf565b92915050565b5f5ffd5b5f5ffd5b61222b81611f4d565b8114612235575f5ffd5b50565b5f8151905061224681612222565b92915050565b5f67ffffffffffffffff82111561226657612265611924565b5b602082029050602081019050919050565b5f63ffffffff82169050919050565b61228f81612277565b8114612299575f5ffd5b50565b5f815190506122aa81612286565b92915050565b5f606082840312156122c5576122c461221a565b5b6122cf6060611982565b90505f6122de84828501612206565b5f8301525060206122f18482850161229c565b60208301525060406123058482850161229c565b60408301525092915050565b5f61232361231e8461224c565b611982565b90508083825260208201905060608402830185811115612346576123456118b7565b5b835b8181101561236f578061235b88826122b0565b845260208401935050606081019050612348565b5050509392505050565b5f82601f83011261238d5761238c6118af565b5b815161239d848260208601612311565b91505092915050565b5f604082840312156123bb576123ba61221a565b5b6123c56040611982565b90505f6123d484828501612238565b5f83015250602082015167ffffffffffffffff8111156123f7576123f661221e565b5b61240384828501612379565b60208301525092915050565b5f5f60408385031215612425576124246118a7565b5b5f61243285828601612206565b925050602083015167ffffffffffffffff811115612453576124526118ab565b5b61245f858286016123a6565b9150509250929050565b5f81519050919050565b5f61247d82612469565b61248781856120db565b9350612497818560208601611c9c565b80840191505092915050565b5f6124ae8284612473565b915081905092915050565b5f819050815f5260205f209050919050565b5f6020601f8301049050919050565b5f82821b905092915050565b5f600883026125157fffffffffffffffffffffffffffffffffffffffffffffffffffffffffffffffff826124da565b61251f86836124da565b95508019841693508086168417925050509392505050565b5f61255161254c61254784611f4d565b611e78565b611f4d565b9050919050565b5f819050919050565b61256a83612537565b61257e61257682612558565b8484546124e6565b825550505050565b5f5f905090565b612595612586565b6125a0818484612561565b505050565b5b818110156125c3576125b85f8261258d565b6001810190506125a6565b5050565b601f821115612608576125d9816124b9565b6125e2846124cb565b810160208510156125f1578190505b6126056125fd856124cb565b8301826125a5565b50505b505050565b5f82821c905092915050565b5f6126285f198460080261260d565b1980831691505092915050565b5f6126408383612619565b9150826002028217905092915050565b61265982611c82565b67ffffffffffffffff81111561267257612671611924565b5b61267c825461214e565b6126878282856125c7565b5f60209050601f8311600181146126b8575f84156126a6578287015190505b6126b08582612635565b865550612717565b601f1984166126c6866124b9565b5f5b828110156126ed578489015182556001820191506020850194506020810190506126c8565b8683101561270a5784890151612706601f891682612619565b8355505b6001600288020188555050505b505050505050565b5f61272a8385611c8c565b93506127378385846119cc565b61274083611914565b840190509392505050565b5f6020820190508181035f83015261276481848661271f565b90509392505050565b5f6020820190508181035f83015261278681848661218e565b90509392505050565b5f602082840312156127a4576127a36118a7565b5b5f6127b184828501612206565b91505092915050565b7f4e487b71000000000000000000000000000000000000000000000000000000005f52601160045260245ffd5b5f6127f182611f4d565b91506127fc83611f4d565b9250828201905080821115612814576128136127ba565b5b92915050565b5f60208201905061282d5f830184611f56565b92915050565b5f82905092915050565b6128478383612833565b67ffffffffffffffff8111156128605761285f611924565b5b61286a825461214e565b6128758282856125c7565b5f601f8311600181146128a2575f8415612890578287013590505b61289a8582612635565b865550612901565b601f1984166128b0866124b9565b5f5b828110156128d7578489013582556001820191506020850194506020810190506128b2565b868310156128f457848901356128f0601f891682612619565b8355505b6001600288020188555050505b5050505050505056fea2646970667358221220b1b1f91a0661f6b262e5fee09eacd6135c6289b096de6d88c4de5fe91d9232c664736f6c634300081e0033","linkReferences":{}},"methodIdentifiers":{"addChunkToContent(string,bytes)":"5fe50699","contents(string)":"a6acce35","createContent(string,bytes)":"4f1165ce","ethfsFileStore()":"97228f67","freezeContent(string)":"7a2c5701","getContent(string,bytes)":"2647c23d","getContentChunkPointers(string)":"f71e55c6","owner()":"8da5cb5b","renounceOwnership()":"715018a6","submitToEthFSFileStore(string,bytes)":"1a4165e4","submitToEthFSFileStoreWithFileName(string,string,bytes)":"24fcb5b0","transferOwnership(address)":"f2fde38b","updateDetails(string,bytes)":"c3766aff"},"id":44}