{"abi":[{"type":"function","name":"generateProjectHTML","inputs":[{"name":"projectData","type":"bytes","internalType":"bytes"},{"name":"tokenId","type":"uint256","internalType":"uint256"},{"name":"scriptyBuilder","type":"address","internalType":"address"},{"name":"scriptyStorage","type":"address","internalType":"address"}],"outputs":[{"name":"html","type":"string","internalType":"string"}],"stateMutability":"view"},{"type":"function","name":"getProjectDescription","inputs":[],"outputs":[{"name":"description","type":"string","internalType":"string"}],"stateMutability":"pure"},{"type":"function","name":"getProjectName","inputs":[],"outputs":[{"name":"name","type":"string","internalType":"string"}],"stateMutability":"pure"},{"type":"function","name":"getRequiredLibraries","inputs":[],"outputs":[{"name":"libraries","type":"string[]","internalType":"string[]"}],"stateMutability":"pure"}],"bytecode":{"object":"0x6080604052348015600e575f5ffd5b506122c88061001c5f395ff3fe608060405234801561000f575f5ffd5b506004361061004a575f3560e01c8063968b4fe91461004e5780639faf62151461006c578063c06ac7741461008a578063fa99f1b4146100a8575b5f5ffd5b6100566100d8565b6040516100639190610f26565b60405180910390f35b6100746100f8565b6040516100819190610f26565b60405180910390f35b610092610135565b60405161009f9190611049565b60405180910390f35b6100c260048036038101906100bd9190611233565b610234565b6040516100cf9190610f26565b60405180910390f35b606060405180608001604052806048815260200161224b60489139905090565b60606040518060400160405280601a81526020017f4f6e636861696e527567732062792076616c69706f6b6b616e6e000000000000815250905090565b6060600267ffffffffffffffff81111561015257610151611082565b5b60405190808252806020026020018201604052801561018557816020015b60608152602001906001900390816101705790505b5090506040518060400160405280600d81526020017f7275672d70352e6a732e62363400000000000000000000000000000000000000815250815f815181106101d1576101d06112b3565b5b60200260200101819052506040518060400160405280600a81526020017f7275672e6a732e6236340000000000000000000000000000000000000000000081525081600181518110610226576102256112b3565b5b602002602001018190525090565b60605f8580602001905181019061024b9190611647565b90505f610259848388610313565b90505f8573ffffffffffffffffffffffffffffffffffffffff16637dbb90a2836040518263ffffffff1660e01b81526004016102959190611913565b5f60405180830381865afa1580156102af573d5f5f3e3d5ffd5b505050506040513d5f823e3d601f19601f820116820180604052508101906102d791906119a1565b90505f6102e38261084c565b9050806040516020016102f69190611a48565b604051602081830303815290604052945050505050949350505050565b61031b610e39565b5f600167ffffffffffffffff81111561033757610336611082565b5b60405190808252806020026020018201604052801561037057816020015b61035d610e53565b8152602001906001900390816103555790505b5090506040518060e0016040528060405180602001604052805f81525081526020015f73ffffffffffffffffffffffffffffffffffffffff16815260200160405180602001604052805f81525081526020015f60048111156103d5576103d4611718565b5b81526020016103e385610879565b6040516020016103f39190611c31565b604051602081830303815290604052815260200160405180602001604052805f815250815260200160405180602001604052805f815250815250815f815181106104405761043f6112b3565b5b60200260200101819052505f600467ffffffffffffffff81111561046757610466611082565b5b6040519080825280602002602001820160405280156104a057816020015b61048d610e53565b8152602001906001900390816104855790505b5090506040518060e001604052806040518060400160405280600981526020017f7275672d70352e6a73000000000000000000000000000000000000000000000081525081526020018773ffffffffffffffffffffffffffffffffffffffff16815260200160405160200161051490611cd4565b60405160208183030381529060405281526020016001600481111561053c5761053b611718565b5b815260200160405180602001604052805f815250815260200160405180602001604052805f815250815260200160405180602001604052805f815250815250815f8151811061058e5761058d6112b3565b5b60200260200101819052506040518060e0016040528060405180602001604052805f81525081526020015f73ffffffffffffffffffffffffffffffffffffffff16815260200160405180602001604052805f81525081526020015f60048111156105fb576105fa611718565b5b81526020016040518060400160405280601481526020017f3c6469762069643d22727567223e3c2f6469763e000000000000000000000000815250815260200160405180602001604052805f815250815260200160405180602001604052805f81525081525081600181518110610675576106746112b3565b5b60200260200101819052506040518060e0016040528060405180602001604052805f81525081526020015f73ffffffffffffffffffffffffffffffffffffffff16815260200160405180602001604052805f8152508152602001600160048111156106e3576106e2611718565b5b815260200160405180602001604052805f815250815260200160405180602001604052805f815250815260200161071987610943565b815250816002815181106107305761072f6112b3565b5b60200260200101819052506040518060e001604052806040518060400160405280600681526020017f7275672e6a73000000000000000000000000000000000000000000000000000081525081526020018773ffffffffffffffffffffffffffffffffffffffff1681526020016040516020016107ac90611d3c565b6040516020818303038152906040528152602001600160048111156107d4576107d3611718565b5b815260200160405180602001604052805f815250815260200160405180602001604052805f815250815260200160405180602001604052805f81525081525081600381518110610827576108266112b3565b5b602002602001018190525081835f018190525080836020018190525050509392505050565b60606108728260405180606001604052806040815260200161220b604091396001610a2d565b9050919050565b60605f600161088784610bbc565b0190505f8167ffffffffffffffff8111156108a5576108a4611082565b5b6040519080825280601f01601f1916602001820160405280156108d75781602001600182028036833780820191505090505b5090505f82602083010190505b600115610938578080600190039150507f3031323334353637383961626364656600000000000000000000000000000000600a86061a8153600a858161092d5761092c611d5a565b5b0494505f85036108e4575b819350505050919050565b60605f600283610100015160ff161161095c575f61096f565b600283610100015161096e9190611db4565b5b90505f5f90505f8460c00151426109869190611de8565b905062093a8081111561099c57600291506109ad565b6203f4808111156109ac57600191505b5b6109bd8560a0015160ff16610879565b856040015186606001516109d48860800151610d0d565b6109e0895f0151610879565b8960e001516109f18960ff16610879565b6109fd8960ff16610879565b604051602001610a14989796959493929190611f71565b6040516020818303038152906040529350505050919050565b60605f845103610a4d5760405180602001604052805f8152509050610bb5565b5f82610a7e576003600286516004610a659190612069565b610a6f91906120aa565b610a7991906120dd565b610aa5565b600360028651610a8e91906120aa565b610a9891906120dd565b6004610aa49190612069565b5b90505f8167ffffffffffffffff811115610ac257610ac1611082565b5b6040519080825280601f01601f191660200182016040528015610af45781602001600182028036833780820191505090505b509050600185016020820187885189016020810180515f82525b82841015610b69576003840193508351603f8160121c168701518653600186019550603f81600c1c168701518653600186019550603f8160061c168701518653600186019550603f8116870151865360018601955050610b0e565b8082528915610ba95760038c510660018114610b8c5760028114610b9f57610ba7565b603d6001870353603d6002870353610ba7565b603d60018703535b505b50505050505080925050505b9392505050565b5f5f5f90507a184f03e93ff9f4daa797ed6e38ed64bf6a1f0100000000000000008310610c18577a184f03e93ff9f4daa797ed6e38ed64bf6a1f0100000000000000008381610c0e57610c0d611d5a565b5b0492506040810190505b6d04ee2d6d415b85acef81000000008310610c55576d04ee2d6d415b85acef81000000008381610c4b57610c4a611d5a565b5b0492506020810190505b662386f26fc100008310610c8457662386f26fc100008381610c7a57610c79611d5a565b5b0492506010810190505b6305f5e1008310610cad576305f5e1008381610ca357610ca2611d5a565b5b0492506008810190505b6127108310610cd2576127108381610cc857610cc7611d5a565b5b0492506004810190505b60648310610cf55760648381610ceb57610cea611d5a565b5b0492506002810190505b600a8310610d04576001810190505b80915050919050565b60605f825103610d54576040518060400160405280600281526020017f5b5d0000000000000000000000000000000000000000000000000000000000008152509050610e34565b6040518060400160405280600181526020017f5b0000000000000000000000000000000000000000000000000000000000000081525090505f5f90505b8251811015610e10575f811115610dc55781604051602001610db39190612133565b60405160208183030381529060405291505b81838281518110610dd957610dd86112b3565b5b6020026020010151604051602001610df292919061217e565b60405160208183030381529060405291508080600101915050610d91565b5080604051602001610e2291906121e5565b60405160208183030381529060405290505b919050565b604051806040016040528060608152602001606081525090565b6040518060e00160405280606081526020015f73ffffffffffffffffffffffffffffffffffffffff168152602001606081526020015f6004811115610e9b57610e9a611718565b5b81526020016060815260200160608152602001606081525090565b5f81519050919050565b5f82825260208201905092915050565b8281835e5f83830152505050565b5f601f19601f8301169050919050565b5f610ef882610eb6565b610f028185610ec0565b9350610f12818560208601610ed0565b610f1b81610ede565b840191505092915050565b5f6020820190508181035f830152610f3e8184610eee565b905092915050565b5f81519050919050565b5f82825260208201905092915050565b5f819050602082019050919050565b5f82825260208201905092915050565b5f610f8982610eb6565b610f938185610f6f565b9350610fa3818560208601610ed0565b610fac81610ede565b840191505092915050565b5f610fc28383610f7f565b905092915050565b5f602082019050919050565b5f610fe082610f46565b610fea8185610f50565b935083602082028501610ffc85610f60565b805f5b8581101561103757848403895281516110188582610fb7565b945061102383610fca565b925060208a01995050600181019050610fff565b50829750879550505050505092915050565b5f6020820190508181035f8301526110618184610fd6565b905092915050565b5f604051905090565b5f5ffd5b5f5ffd5b5f5ffd5b5f5ffd5b7f4e487b71000000000000000000000000000000000000000000000000000000005f52604160045260245ffd5b6110b882610ede565b810181811067ffffffffffffffff821117156110d7576110d6611082565b5b80604052505050565b5f6110e9611069565b90506110f582826110af565b919050565b5f67ffffffffffffffff82111561111457611113611082565b5b61111d82610ede565b9050602081019050919050565b828183375f83830152505050565b5f61114a611145846110fa565b6110e0565b9050828152602081018484840111156111665761116561107e565b5b61117184828561112a565b509392505050565b5f82601f83011261118d5761118c61107a565b5b813561119d848260208601611138565b91505092915050565b5f819050919050565b6111b8816111a6565b81146111c2575f5ffd5b50565b5f813590506111d3816111af565b92915050565b5f73ffffffffffffffffffffffffffffffffffffffff82169050919050565b5f611202826111d9565b9050919050565b611212816111f8565b811461121c575f5ffd5b50565b5f8135905061122d81611209565b92915050565b5f5f5f5f6080858703121561124b5761124a611072565b5b5f85013567ffffffffffffffff81111561126857611267611076565b5b61127487828801611179565b9450506020611285878288016111c5565b93505060406112968782880161121f565b92505060606112a78782880161121f565b91505092959194509250565b7f4e487b71000000000000000000000000000000000000000000000000000000005f52603260045260245ffd5b5f5ffd5b5f5ffd5b5f815190506112f6816111af565b92915050565b5f67ffffffffffffffff82111561131657611315611082565b5b61131f82610ede565b9050602081019050919050565b5f61133e611339846112fc565b6110e0565b90508281526020810184848401111561135a5761135961107e565b5b611365848285610ed0565b509392505050565b5f82601f8301126113815761138061107a565b5b815161139184826020860161132c565b91505092915050565b5f67ffffffffffffffff8211156113b4576113b3611082565b5b602082029050602081019050919050565b5f5ffd5b5f6113db6113d68461139a565b6110e0565b905080838252602082019050602084028301858111156113fe576113fd6113c5565b5b835b8181101561144557805167ffffffffffffffff8111156114235761142261107a565b5b808601611430898261136d565b85526020850194505050602081019050611400565b5050509392505050565b5f82601f8301126114635761146261107a565b5b81516114738482602086016113c9565b91505092915050565b5f60ff82169050919050565b6114918161147c565b811461149b575f5ffd5b50565b5f815190506114ac81611488565b92915050565b5f61016082840312156114c8576114c76112e0565b5b6114d36101606110e0565b90505f6114e2848285016112e8565b5f83015250602082015167ffffffffffffffff811115611505576115046112e4565b5b6115118482850161136d565b602083015250604082015167ffffffffffffffff811115611535576115346112e4565b5b6115418482850161136d565b604083015250606082015167ffffffffffffffff811115611565576115646112e4565b5b6115718482850161136d565b606083015250608082015167ffffffffffffffff811115611595576115946112e4565b5b6115a18482850161144f565b60808301525060a06115b58482850161149e565b60a08301525060c06115c9848285016112e8565b60c08301525060e082015167ffffffffffffffff8111156115ed576115ec6112e4565b5b6115f98482850161136d565b60e08301525061010061160e8482850161149e565b61010083015250610120611624848285016112e8565b6101208301525061014061163a848285016112e8565b6101408301525092915050565b5f6020828403121561165c5761165b611072565b5b5f82015167ffffffffffffffff81111561167957611678611076565b5b611685848285016114b2565b91505092915050565b5f81519050919050565b5f82825260208201905092915050565b5f819050602082019050919050565b6116c0816111f8565b82525050565b5f81519050919050565b5f82825260208201905092915050565b5f6116ea826116c6565b6116f481856116d0565b9350611704818560208601610ed0565b61170d81610ede565b840191505092915050565b7f4e487b71000000000000000000000000000000000000000000000000000000005f52602160045260245ffd5b6005811061175657611755611718565b5b50565b5f81905061176682611745565b919050565b5f61177582611759565b9050919050565b6117858161176b565b82525050565b5f60e083015f8301518482035f8601526117a58282610f7f565b91505060208301516117ba60208601826116b7565b50604083015184820360408601526117d282826116e0565b91505060608301516117e7606086018261177c565b50608083015184820360808601526117ff82826116e0565b91505060a083015184820360a086015261181982826116e0565b91505060c083015184820360c086015261183382826116e0565b9150508091505092915050565b5f61184b838361178b565b905092915050565b5f602082019050919050565b5f6118698261168e565b6118738185611698565b935083602082028501611885856116a8565b805f5b858110156118c057848403895281516118a18582611840565b94506118ac83611853565b925060208a01995050600181019050611888565b50829750879550505050505092915050565b5f604083015f8301518482035f8601526118ec828261185f565b91505060208301518482036020860152611906828261185f565b9150508091505092915050565b5f6020820190508181035f83015261192b81846118d2565b905092915050565b5f611945611940846110fa565b6110e0565b9050828152602081018484840111156119615761196061107e565b5b61196c848285610ed0565b509392505050565b5f82601f8301126119885761198761107a565b5b8151611998848260208601611933565b91505092915050565b5f602082840312156119b6576119b5611072565b5b5f82015167ffffffffffffffff8111156119d3576119d2611076565b5b6119df84828501611974565b91505092915050565b7f646174613a746578742f68746d6c3b6261736536342c00000000000000000000815250565b5f81905092915050565b5f611a2282610eb6565b611a2c8185611a0e565b9350611a3c818560208601610ed0565b80840191505092915050565b5f611a52826119e8565b601682019150611a628284611a18565b915081905092915050565b7f3c6d65746120636861727365743d227574662d38223e00000000000000000000815250565b7f3c6d657461206e616d653d2276696577706f72742220636f6e74656e743d22775f8201527f696474683d6465766963652d77696474682c696e697469616c2d7363616c653d60208201527f31223e0000000000000000000000000000000000000000000000000000000000604082015250565b5f611b13604383611a0e565b9150611b1e82611a93565b604382019050919050565b7f3c7469746c653e4f6e636861696e527567202300000000000000000000000000815250565b7f3c2f7469746c653e000000000000000000000000000000000000000000000000815250565b7f3c7374796c653e626f64797b646973706c61793a666c65783b6a7573746966795f8201527f2d636f6e74656e743a63656e7465723b616c69676e2d6974656d733a63656e7460208201527f65727d237275677b77696474683a3130302521696d706f7274616e743b68656960408201527f6768743a6175746f21696d706f7274616e743b7d3c2f7374796c653e00000000606082015250565b5f611c1b607c83611a0e565b9150611c2682611b75565b607c82019050919050565b5f611c3b82611a6d565b601682019150611c4a82611b07565b9150611c5582611b29565b601382019150611c658284611a18565b9150611c7082611b4f565b600882019150611c7f82611c0f565b915081905092915050565b7f7275672d70352e6a7300000000000000000000000000000000000000000000005f82015250565b5f611cbe600983610ec0565b9150611cc982611c8a565b602082019050919050565b5f6020820190508181035f830152611ceb81611cb2565b9050919050565b7f7275672e6a7300000000000000000000000000000000000000000000000000005f82015250565b5f611d26600683610ec0565b9150611d3182611cf2565b602082019050919050565b5f6020820190508181035f830152611d5381611d1a565b9050919050565b7f4e487b71000000000000000000000000000000000000000000000000000000005f52601260045260245ffd5b7f4e487b71000000000000000000000000000000000000000000000000000000005f52601160045260245ffd5b5f611dbe8261147c565b9150611dc98361147c565b9250828203905060ff811115611de257611de1611d87565b5b92915050565b5f611df2826111a6565b9150611dfd836111a6565b9250828203905081811115611e1557611e14611d87565b5b92915050565b7f6c657420773d3830302c683d313230302c663d33302c77743d382c77703d0000815250565b7f2c74733d322c6c742c64742c703d000000000000000000000000000000000000815250565b7f2c73643d00000000000000000000000000000000000000000000000000000000815250565b7f2c74723d00000000000000000000000000000000000000000000000000000000815250565b7f2c74643d5b5d2c733d0000000000000000000000000000000000000000000000815250565b7f3b6c657420636d3d000000000000000000000000000000000000000000000000815250565b7f3b746c3d00000000000000000000000000000000000000000000000000000000815250565b7f2c646c3d00000000000000000000000000000000000000000000000000000000815250565b7f3b00000000000000000000000000000000000000000000000000000000000000815250565b5f611f7b82611e1b565b601e82019150611f8b828b611a18565b9150611f9682611e41565b600e82019150611fa6828a611a18565b9150611fb182611e67565b600482019150611fc18289611a18565b9150611fcc82611e8d565b600482019150611fdc8288611a18565b9150611fe782611eb3565b600982019150611ff78287611a18565b915061200282611ed9565b6008820191506120128286611a18565b915061201d82611eff565b60048201915061202d8285611a18565b915061203882611f25565b6004820191506120488284611a18565b915061205382611f4b565b6001820191508190509998505050505050505050565b5f612073826111a6565b915061207e836111a6565b925082820261208c816111a6565b915082820484148315176120a3576120a2611d87565b5b5092915050565b5f6120b4826111a6565b91506120bf836111a6565b92508282019050808211156120d7576120d6611d87565b5b92915050565b5f6120e7826111a6565b91506120f2836111a6565b92508261210257612101611d5a565b5b828204905092915050565b7f2c00000000000000000000000000000000000000000000000000000000000000815250565b5f61213e8284611a18565b91506121498261210d565b60018201915081905092915050565b7f2200000000000000000000000000000000000000000000000000000000000000815250565b5f6121898285611a18565b915061219482612158565b6001820191506121a48284611a18565b91506121af82612158565b6001820191508190509392505050565b7f5d00000000000000000000000000000000000000000000000000000000000000815250565b5f6121f08284611a18565b91506121fb826121bf565b6001820191508190509291505056fe4142434445464748494a4b4c4d4e4f505152535455565758595a6162636465666768696a6b6c6d6e6f707172737475767778797a303132333435363738392b2f46756c6c79206f6e2d636861696e20637573746f6d697a61626c652072756720636f6c6c656374696f6e207769746820636f6d706c6574652070352e6a7320616c676f726974686da264697066735822122093b3231628a6c0086c8592b2bed85929b4954162cba66e9cfdbd0693f51f5eb164736f6c634300081e0033","linkReferences":{}},"methodIdentifiers":{"generateProjectHTML(bytes,uint256,address,address)":"fa99f1b4","getProjectDescription()":"968b4fe9","getProjectName()":"9faf6215","getRequiredLibraries()":"c06ac774"},"id":42}