{"abi":[{"type":"function","name":"BODY_OPEN_RAW","inputs":[],"outputs":[{"name":"","type":"bytes","internalType":"bytes"}],"stateMutability":"view"},{"type":"function","name":"BODY_OPEN_URL_SAFE","inputs":[],"outputs":[{"name":"","type":"bytes","internalType":"bytes"}],"stateMutability":"view"},{"type":"function","name":"BODY_RAW_BYTES","inputs":[],"outputs":[{"name":"","type":"uint256","internalType":"uint256"}],"stateMutability":"view"},{"type":"function","name":"BODY_SAFE_BYTES","inputs":[],"outputs":[{"name":"","type":"uint256","internalType":"uint256"}],"stateMutability":"view"},{"type":"function","name":"DATA_HTML_BASE64_URI_RAW","inputs":[],"outputs":[{"name":"","type":"bytes","internalType":"bytes"}],"stateMutability":"view"},{"type":"function","name":"DATA_HTML_URL_SAFE","inputs":[],"outputs":[{"name":"","type":"bytes","internalType":"bytes"}],"stateMutability":"view"},{"type":"function","name":"HEAD_CLOSE_RAW","inputs":[],"outputs":[{"name":"","type":"bytes","internalType":"bytes"}],"stateMutability":"view"},{"type":"function","name":"HEAD_CLOSE_URL_SAFE","inputs":[],"outputs":[{"name":"","type":"bytes","internalType":"bytes"}],"stateMutability":"view"},{"type":"function","name":"HEAD_OPEN_RAW","inputs":[],"outputs":[{"name":"","type":"bytes","internalType":"bytes"}],"stateMutability":"view"},{"type":"function","name":"HEAD_OPEN_URL_SAFE","inputs":[],"outputs":[{"name":"","type":"bytes","internalType":"bytes"}],"stateMutability":"view"},{"type":"function","name":"HEAD_RAW_BYTES","inputs":[],"outputs":[{"name":"","type":"uint256","internalType":"uint256"}],"stateMutability":"view"},{"type":"function","name":"HEAD_URL_SAFE_BYTES","inputs":[],"outputs":[{"name":"","type":"uint256","internalType":"uint256"}],"stateMutability":"view"},{"type":"function","name":"HTML_BASE64_DATA_URI_BYTES","inputs":[],"outputs":[{"name":"","type":"uint256","internalType":"uint256"}],"stateMutability":"view"},{"type":"function","name":"HTML_BODY_CLOSED_RAW","inputs":[],"outputs":[{"name":"","type":"bytes","internalType":"bytes"}],"stateMutability":"view"},{"type":"function","name":"HTML_BODY_CLOSED_URL_SAFE","inputs":[],"outputs":[{"name":"","type":"bytes","internalType":"bytes"}],"stateMutability":"view"},{"type":"function","name":"HTML_OPEN_RAW","inputs":[],"outputs":[{"name":"","type":"bytes","internalType":"bytes"}],"stateMutability":"view"},{"type":"function","name":"HTML_OPEN_URL_SAFE","inputs":[],"outputs":[{"name":"","type":"bytes","internalType":"bytes"}],"stateMutability":"view"},{"type":"function","name":"HTML_RAW_BYTES","inputs":[],"outputs":[{"name":"","type":"uint256","internalType":"uint256"}],"stateMutability":"view"},{"type":"function","name":"HTML_URL_SAFE_BYTES","inputs":[],"outputs":[{"name":"","type":"uint256","internalType":"uint256"}],"stateMutability":"view"},{"type":"function","name":"RAW_BYTES","inputs":[],"outputs":[{"name":"","type":"uint256","internalType":"uint256"}],"stateMutability":"view"},{"type":"function","name":"URLS_RAW_BYTES","inputs":[],"outputs":[{"name":"","type":"uint256","internalType":"uint256"}],"stateMutability":"view"},{"type":"function","name":"URLS_SAFE_BYTES","inputs":[],"outputs":[{"name":"","type":"uint256","internalType":"uint256"}],"stateMutability":"view"},{"type":"function","name":"URL_SAFE_BYTES","inputs":[],"outputs":[{"name":"","type":"uint256","internalType":"uint256"}],"stateMutability":"view"},{"type":"function","name":"fetchTagContent","inputs":[{"name":"htmlTag","type":"tuple","internalType":"struct HTMLTag","components":[{"name":"name","type":"string","internalType":"string"},{"name":"contractAddress","type":"address","internalType":"address"},{"name":"contractData","type":"bytes","internalType":"bytes"},{"name":"tagType","type":"uint8","internalType":"enum HTMLTagType"},{"name":"tagOpen","type":"bytes","internalType":"bytes"},{"name":"tagClose","type":"bytes","internalType":"bytes"},{"name":"tagContent","type":"bytes","internalType":"bytes"}]}],"outputs":[{"name":"","type":"bytes","internalType":"bytes"}],"stateMutability":"view"},{"type":"function","name":"sizeForBase64Encoding","inputs":[{"name":"value","type":"uint256","internalType":"uint256"}],"outputs":[{"name":"","type":"uint256","internalType":"uint256"}],"stateMutability":"pure"},{"type":"function","name":"tagOpenCloseForHTMLTag","inputs":[{"name":"htmlTag","type":"tuple","internalType":"struct HTMLTag","components":[{"name":"name","type":"string","internalType":"string"},{"name":"contractAddress","type":"address","internalType":"address"},{"name":"contractData","type":"bytes","internalType":"bytes"},{"name":"tagType","type":"uint8","internalType":"enum HTMLTagType"},{"name":"tagOpen","type":"bytes","internalType":"bytes"},{"name":"tagClose","type":"bytes","internalType":"bytes"},{"name":"tagContent","type":"bytes","internalType":"bytes"}]}],"outputs":[{"name":"","type":"bytes","internalType":"bytes"},{"name":"","type":"bytes","internalType":"bytes"}],"stateMutability":"pure"},{"type":"function","name":"tagOpenCloseForHTMLTagURLSafe","inputs":[{"name":"htmlTag","type":"tuple","internalType":"struct HTMLTag","components":[{"name":"name","type":"string","internalType":"string"},{"name":"contractAddress","type":"address","internalType":"address"},{"name":"contractData","type":"bytes","internalType":"bytes"},{"name":"tagType","type":"uint8","internalType":"enum HTMLTagType"},{"name":"tagOpen","type":"bytes","internalType":"bytes"},{"name":"tagClose","type":"bytes","internalType":"bytes"},{"name":"tagContent","type":"bytes","internalType":"bytes"}]}],"outputs":[{"name":"","type":"bytes","internalType":"bytes"},{"name":"","type":"bytes","internalType":"bytes"}],"stateMutability":"pure"}],"bytecode":{"object":"0x6080604052348015600e575f5ffd5b5061161b8061001c5f395ff3fe608060405234801561000f575f5ffd5b50600436106101a7575f3560e01c8063bc689620116100f7578063ce5ad17911610095578063d9237f141161006f578063d9237f14146104a7578063f051dcf8146104c5578063f49717ee146104e3578063f6130adc14610501576101a7565b8063ce5ad1791461044d578063d0c3efa81461046b578063d61974f114610489576101a7565b8063bf35dd0b116100d1578063bf35dd0b146103b0578063c46b294d146103ce578063cd475f26146103ec578063cdea0cef1461041d576101a7565b8063bc68962014610356578063be58b0a914610374578063bee84ae314610392576101a7565b806372617f8a1161016457806387598e521161013e57806387598e52146102cb5780638c8c3796146102e9578063afae76fa1461031a578063b55ccc6214610338576101a7565b806372617f8a1461025f5780637510ac241461028f5780637f369319146102ad576101a7565b8063053f1eb0146101ab57806333174f98146101c95780633708be65146101e75780633d5be2c21461020557806343f2614f14610223578063640bab4114610241575b5f5ffd5b6101b361051f565b6040516101c09190610d9c565b60405180910390f35b6101d1610558565b6040516101de9190610dd4565b60405180910390f35b6101ef61055d565b6040516101fc9190610dd4565b60405180910390f35b61020d610562565b60405161021a9190610d9c565b60405180910390f35b61022b61059b565b6040516102389190610d9c565b60405180910390f35b6102496105d4565b6040516102569190610d9c565b60405180910390f35b61027960048036038101906102749190610e28565b61060d565b6040516102869190610dd4565b60405180910390f35b61029761062d565b6040516102a49190610dd4565b60405180910390f35b6102b5610632565b6040516102c29190610d9c565b60405180910390f35b6102d361066b565b6040516102e09190610dd4565b60405180910390f35b61030360048036038101906102fe91906111df565b610670565b604051610311929190611226565b60405180910390f35b6103226108c3565b60405161032f9190610dd4565b60405180910390f35b6103406108c8565b60405161034d9190610dd4565b60405180910390f35b61035e6108cd565b60405161036b9190610d9c565b60405180910390f35b61037c610906565b6040516103899190610dd4565b60405180910390f35b61039a61090b565b6040516103a79190610dd4565b60405180910390f35b6103b8610910565b6040516103c59190610dd4565b60405180910390f35b6103d6610915565b6040516103e39190610d9c565b60405180910390f35b610406600480360381019061040191906111df565b61094e565b604051610414929190611226565b60405180910390f35b610437600480360381019061043291906111df565b610b30565b6040516104449190610d9c565b60405180910390f35b610455610c05565b6040516104629190610d9c565b60405180910390f35b610473610c3e565b6040516104809190610dd4565b60405180910390f35b610491610c43565b60405161049e9190610d9c565b60405180910390f35b6104af610c7c565b6040516104bc9190610d9c565b60405180910390f35b6104cd610cb5565b6040516104da9190610d9c565b60405180910390f35b6104eb610cee565b6040516104f89190610dd4565b60405180910390f35b610509610cf3565b6040516105169190610d9c565b60405180910390f35b6040518060400160405280601a81526020017f253343253246626f647925334525334325324668746d6c25334500000000000081525081565b600d81565b604581565b6040518060400160405280600781526020017f3c2f686561643e0000000000000000000000000000000000000000000000000081525081565b6040518060400160405280600a81526020017f253343686561642533450000000000000000000000000000000000000000000081525081565b6040518060400160405280600a81526020017f25334368746d6c2533450000000000000000000000000000000000000000000081525081565b5f600360028301816106225761062161125b565b5b046004029050919050565b601681565b6040518060400160405280600a81526020017f253343626f64792533450000000000000000000000000000000000000000000081525081565b602781565b6060806001600481111561068757610686611288565b5b8360600151600481111561069e5761069d611288565b5b03610718576040518060400160405280600881526020017f3c7363726970743e0000000000000000000000000000000000000000000000008152506040518060400160405280600981526020017f3c2f7363726970743e0000000000000000000000000000000000000000000000815250915091506108be565b6002600481111561072c5761072b611288565b5b8360600151600481111561074357610742611288565b5b036107a0576040518060600160405280602981526020016113f2602991396040518060400160405280600b81526020017f223e3c2f7363726970743e000000000000000000000000000000000000000000815250915091506108be565b600360048111156107b4576107b3611288565b5b836060015160048111156107cb576107ca611288565b5b0361082857604051806080016040528060458152602001611464604591396040518060400160405280600b81526020017f223e3c2f7363726970743e000000000000000000000000000000000000000000815250915091506108be565b60048081111561083b5761083a611288565b5b8360600151600481111561085257610851611288565b5b036108af576040518060800160405280604481526020016115a2604491396040518060400160405280600b81526020017f223e3c2f7363726970743e000000000000000000000000000000000000000000815250915091506108be565b82608001518360a00151915091505b915091565b602781565b600d81565b6040518060400160405280600681526020017f3c68746d6c3e000000000000000000000000000000000000000000000000000081525081565b601781565b605a81565b601781565b6040518060400160405280600681526020017f3c686561643e000000000000000000000000000000000000000000000000000081525081565b6060806001600481111561096557610964611288565b5b8360600151600481111561097c5761097b611288565b5b14806109b057506002600481111561099757610996611288565b5b836060015160048111156109ae576109ad611288565b5b145b15610a0d5760405180608001604052806049815260200161141b604991396040518060400160405280601f81526020017f253235323225323533452532353343253235324673637269707425323533450081525091509150610b2b565b60036004811115610a2157610a20611288565b5b83606001516004811115610a3857610a37611288565b5b03610a95576040518060a00160405280607d81526020016114a9607d91396040518060400160405280601f81526020017f253235323225323533452532353343253235324673637269707425323533450081525091509150610b2b565b600480811115610aa857610aa7611288565b5b83606001516004811115610abf57610abe611288565b5b03610b1c576040518060a00160405280607c8152602001611526607c91396040518060400160405280601f81526020017f253235323225323533452532353343253235324673637269707425323533450081525091509150610b2b565b82608001518360a00151915091505b915091565b60605f73ffffffffffffffffffffffffffffffffffffffff16826020015173ffffffffffffffffffffffffffffffffffffffff1614610bf857816020015173ffffffffffffffffffffffffffffffffffffffff16632647c23d835f015184604001516040518363ffffffff1660e01b8152600401610baf929190611307565b5f60405180830381865afa158015610bc9573d5f5f3e3d5ffd5b505050506040513d5f823e3d601f19601f82011682018060405250810190610bf191906113aa565b9050610c00565b8160c0015190505b919050565b6040518060400160405280600681526020017f3c626f64793e000000000000000000000000000000000000000000000000000081525081565b600d81565b6040518060400160405280601581526020017f646174612533417465787425324668746d6c253243000000000000000000000081525081565b6040518060400160405280600d81526020017f253343253246686561642533450000000000000000000000000000000000000081525081565b6040518060400160405280600e81526020017f3c2f626f64793e3c2f68746d6c3e00000000000000000000000000000000000081525081565b601781565b6040518060400160405280601681526020017f646174613a746578742f68746d6c3b6261736536342c0000000000000000000081525081565b5f81519050919050565b5f82825260208201905092915050565b8281835e5f83830152505050565b5f601f19601f8301169050919050565b5f610d6e82610d2c565b610d788185610d36565b9350610d88818560208601610d46565b610d9181610d54565b840191505092915050565b5f6020820190508181035f830152610db48184610d64565b905092915050565b5f819050919050565b610dce81610dbc565b82525050565b5f602082019050610de75f830184610dc5565b92915050565b5f604051905090565b5f5ffd5b5f5ffd5b610e0781610dbc565b8114610e11575f5ffd5b50565b5f81359050610e2281610dfe565b92915050565b5f60208284031215610e3d57610e3c610df6565b5b5f610e4a84828501610e14565b91505092915050565b5f5ffd5b7f4e487b71000000000000000000000000000000000000000000000000000000005f52604160045260245ffd5b610e8d82610d54565b810181811067ffffffffffffffff82111715610eac57610eab610e57565b5b80604052505050565b5f610ebe610ded565b9050610eca8282610e84565b919050565b5f5ffd5b5f5ffd5b5f5ffd5b5f67ffffffffffffffff821115610ef557610ef4610e57565b5b610efe82610d54565b9050602081019050919050565b828183375f83830152505050565b5f610f2b610f2684610edb565b610eb5565b905082815260208101848484011115610f4757610f46610ed7565b5b610f52848285610f0b565b509392505050565b5f82601f830112610f6e57610f6d610ed3565b5b8135610f7e848260208601610f19565b91505092915050565b5f73ffffffffffffffffffffffffffffffffffffffff82169050919050565b5f610fb082610f87565b9050919050565b610fc081610fa6565b8114610fca575f5ffd5b50565b5f81359050610fdb81610fb7565b92915050565b5f67ffffffffffffffff821115610ffb57610ffa610e57565b5b61100482610d54565b9050602081019050919050565b5f61102361101e84610fe1565b610eb5565b90508281526020810184848401111561103f5761103e610ed7565b5b61104a848285610f0b565b509392505050565b5f82601f83011261106657611065610ed3565b5b8135611076848260208601611011565b91505092915050565b6005811061108b575f5ffd5b50565b5f8135905061109c8161107f565b92915050565b5f60e082840312156110b7576110b6610e53565b5b6110c160e0610eb5565b90505f82013567ffffffffffffffff8111156110e0576110df610ecf565b5b6110ec84828501610f5a565b5f8301525060206110ff84828501610fcd565b602083015250604082013567ffffffffffffffff81111561112357611122610ecf565b5b61112f84828501611052565b60408301525060606111438482850161108e565b606083015250608082013567ffffffffffffffff81111561116757611166610ecf565b5b61117384828501611052565b60808301525060a082013567ffffffffffffffff81111561119757611196610ecf565b5b6111a384828501611052565b60a08301525060c082013567ffffffffffffffff8111156111c7576111c6610ecf565b5b6111d384828501611052565b60c08301525092915050565b5f602082840312156111f4576111f3610df6565b5b5f82013567ffffffffffffffff81111561121157611210610dfa565b5b61121d848285016110a2565b91505092915050565b5f6040820190508181035f83015261123e8185610d64565b905081810360208301526112528184610d64565b90509392505050565b7f4e487b71000000000000000000000000000000000000000000000000000000005f52601260045260245ffd5b7f4e487b71000000000000000000000000000000000000000000000000000000005f52602160045260245ffd5b5f81519050919050565b5f82825260208201905092915050565b5f6112d9826112b5565b6112e381856112bf565b93506112f3818560208601610d46565b6112fc81610d54565b840191505092915050565b5f6040820190508181035f83015261131f81856112cf565b905081810360208301526113338184610d64565b90509392505050565b5f61134e61134984610fe1565b610eb5565b90508281526020810184848401111561136a57611369610ed7565b5b611375848285610d46565b509392505050565b5f82601f83011261139157611390610ed3565b5b81516113a184826020860161133c565b91505092915050565b5f602082840312156113bf576113be610df6565b5b5f82015167ffffffffffffffff8111156113dc576113db610dfa565b5b6113e88482850161137d565b9150509291505056fe3c736372697074207372633d22646174613a746578742f6a6176617363726970743b6261736536342c25323533437363726970742532353230737263253235334425323532326461746125323533417465787425323532466a617661736372697074253235334262617365363425323532433c73637269707420747970653d22746578742f6a6176617363726970742b677a697022207372633d22646174613a746578742f6a6176617363726970743b6261736536342c2532353343736372697074253235323074797065253235334425323532327465787425323532466a6176617363726970742532353242677a697025323532322532353230737263253235334425323532326461746125323533417465787425323532466a617661736372697074253235334262617365363425323532432532353343736372697074253235323074797065253235334425323532327465787425323532466a6176617363726970742532353242706e6725323532322532353230737263253235334425323532326461746125323533417465787425323532466a617661736372697074253235334262617365363425323532433c73637269707420747970653d22746578742f6a6176617363726970742b706e6722207372633d22646174613a746578742f6a6176617363726970743b6261736536342ca26469706673582212201084094466f1dffbebdb58a003ebb5d00636cdea26f9728dc121a92ab582b51464736f6c634300081e0033","linkReferences":{}},"methodIdentifiers":{"BODY_OPEN_RAW()":"ce5ad179","BODY_OPEN_URL_SAFE()":"7f369319","BODY_RAW_BYTES()":"33174f98","BODY_SAFE_BYTES()":"be58b0a9","DATA_HTML_BASE64_URI_RAW()":"f6130adc","DATA_HTML_URL_SAFE()":"d61974f1","HEAD_CLOSE_RAW()":"3d5be2c2","HEAD_CLOSE_URL_SAFE()":"d9237f14","HEAD_OPEN_RAW()":"c46b294d","HEAD_OPEN_URL_SAFE()":"43f2614f","HEAD_RAW_BYTES()":"d0c3efa8","HEAD_URL_SAFE_BYTES()":"bf35dd0b","HTML_BASE64_DATA_URI_BYTES()":"7510ac24","HTML_BODY_CLOSED_RAW()":"f051dcf8","HTML_BODY_CLOSED_URL_SAFE()":"053f1eb0","HTML_OPEN_RAW()":"bc689620","HTML_OPEN_URL_SAFE()":"640bab41","HTML_RAW_BYTES()":"b55ccc62","HTML_URL_SAFE_BYTES()":"f49717ee","RAW_BYTES()":"afae76fa","URLS_RAW_BYTES()":"87598e52","URLS_SAFE_BYTES()":"bee84ae3","URL_SAFE_BYTES()":"3708be65","fetchTagContent((string,address,bytes,uint8,bytes,bytes,bytes))":"cdea0cef","sizeForBase64Encoding(uint256)":"72617f8a","tagOpenCloseForHTMLTag((string,address,bytes,uint8,bytes,bytes,bytes))":"8c8c3796","tagOpenCloseForHTMLTagURLSafe((string,address,bytes,uint8,bytes,bytes,bytes))":"cd475f26"},"id":45}