{"abi":[{"type":"constructor","inputs":[{"name":"_fileStoreAddress","type":"address","internalType":"address"}],"stateMutability":"nonpayable"},{"type":"function","name":"fileStore","inputs":[],"outputs":[{"name":"","type":"address","internalType":"contract IFileStore"}],"stateMutability":"view"},{"type":"function","name":"getContent","inputs":[{"name":"name","type":"string","internalType":"string"},{"name":"data","type":"bytes","internalType":"bytes"}],"outputs":[{"name":"script","type":"bytes","internalType":"bytes"}],"stateMutability":"view"}],"bytecode":{"object":"0x60a060405234801561000f575f5ffd5b50604051610961380380610961833981810160405281019061003191906100c9565b8073ffffffffffffffffffffffffffffffffffffffff1660808173ffffffffffffffffffffffffffffffffffffffff1681525050506100f4565b5f5ffd5b5f73ffffffffffffffffffffffffffffffffffffffff82169050919050565b5f6100988261006f565b9050919050565b6100a88161008e565b81146100b2575f5ffd5b50565b5f815190506100c38161009f565b92915050565b5f602082840312156100de576100dd61006b565b5b5f6100eb848285016100b5565b91505092915050565b6080516108506101115f395f81816088015260b101526108505ff3fe608060405234801561000f575f5ffd5b5060043610610034575f3560e01c806321ea07e1146100385780632647c23d14610056575b5f5ffd5b610040610086565b60405161004d9190610280565b60405180910390f35b610070600480360381019061006b9190610443565b6100aa565b60405161007d919061051c565b60405180910390f35b7f000000000000000000000000000000000000000000000000000000000000000081565b60606101517f000000000000000000000000000000000000000000000000000000000000000073ffffffffffffffffffffffffffffffffffffffff1663e0876aa886866040518363ffffffff1660e01b815260040161010a929190610578565b5f60405180830381865afa158015610124573d5f5f3e3d5ffd5b505050506040513d5f823e3d601f19601f8201168201806040525081019061014c91906107d3565b61015a565b90509392505050565b60605f826020015190505f6386d14d8960e01b90508151602060405194505f5f5f5f5f5f5b878110156101e457602081026020018a01519550855194506020860151935060408601519250843b9150818311156101c957885f528460045281602452836044528260645260845ffd5b83830384888d01873c8383038701965060018101905061017f565b50602086038a52601f19601f8701168a01604052505050505050505050919050565b5f73ffffffffffffffffffffffffffffffffffffffff82169050919050565b5f819050919050565b5f61024861024361023e84610206565b610225565b610206565b9050919050565b5f6102598261022e565b9050919050565b5f61026a8261024f565b9050919050565b61027a81610260565b82525050565b5f6020820190506102935f830184610271565b92915050565b5f604051905090565b5f5ffd5b5f5ffd5b5f5ffd5b5f5ffd5b5f5ffd5b5f5f83601f8401126102cb576102ca6102aa565b5b8235905067ffffffffffffffff8111156102e8576102e76102ae565b5b602083019150836001820283011115610304576103036102b2565b5b9250929050565b5f5ffd5b5f601f19601f8301169050919050565b7f4e487b71000000000000000000000000000000000000000000000000000000005f52604160045260245ffd5b6103558261030f565b810181811067ffffffffffffffff821117156103745761037361031f565b5b80604052505050565b5f610386610299565b9050610392828261034c565b919050565b5f67ffffffffffffffff8211156103b1576103b061031f565b5b6103ba8261030f565b9050602081019050919050565b828183375f83830152505050565b5f6103e76103e284610397565b61037d565b9050828152602081018484840111156104035761040261030b565b5b61040e8482856103c7565b509392505050565b5f82601f83011261042a576104296102aa565b5b813561043a8482602086016103d5565b91505092915050565b5f5f5f6040848603121561045a576104596102a2565b5b5f84013567ffffffffffffffff811115610477576104766102a6565b5b610483868287016102b6565b9350935050602084013567ffffffffffffffff8111156104a6576104a56102a6565b5b6104b286828701610416565b9150509250925092565b5f81519050919050565b5f82825260208201905092915050565b8281835e5f83830152505050565b5f6104ee826104bc565b6104f881856104c6565b93506105088185602086016104d6565b6105118161030f565b840191505092915050565b5f6020820190508181035f83015261053481846104e4565b905092915050565b5f82825260208201905092915050565b5f610557838561053c565b93506105648385846103c7565b61056d8361030f565b840190509392505050565b5f6020820190508181035f83015261059181848661054c565b90509392505050565b5f5ffd5b5f5ffd5b5f819050919050565b6105b4816105a2565b81146105be575f5ffd5b50565b5f815190506105cf816105ab565b92915050565b5f67ffffffffffffffff8211156105ef576105ee61031f565b5b602082029050602081019050919050565b5f61060a82610206565b9050919050565b61061a81610600565b8114610624575f5ffd5b50565b5f8151905061063581610611565b92915050565b5f63ffffffff82169050919050565b6106538161063b565b811461065d575f5ffd5b50565b5f8151905061066e8161064a565b92915050565b5f606082840312156106895761068861059a565b5b610693606061037d565b90505f6106a284828501610627565b5f8301525060206106b584828501610660565b60208301525060406106c984828501610660565b60408301525092915050565b5f6106e76106e2846105d5565b61037d565b9050808382526020820190506060840283018581111561070a576107096102b2565b5b835b81811015610733578061071f8882610674565b84526020840193505060608101905061070c565b5050509392505050565b5f82601f830112610751576107506102aa565b5b81516107618482602086016106d5565b91505092915050565b5f6040828403121561077f5761077e61059a565b5b610789604061037d565b90505f610798848285016105c1565b5f83015250602082015167ffffffffffffffff8111156107bb576107ba61059e565b5b6107c78482850161073d565b60208301525092915050565b5f602082840312156107e8576107e76102a2565b5b5f82015167ffffffffffffffff811115610805576108046102a6565b5b6108118482850161076a565b9150509291505056fea2646970667358221220a6336d7501a9ae467f294f239e6cbbd6c0df54accba540f7665b85765db7b1ae64736f6c634300081e0033","linkReferences":{}},"methodIdentifiers":{"fileStore()":"21ea07e1","getContent(string,bytes)":"2647c23d"},"id":51}