{"abi":[{"type":"constructor","inputs":[],"stateMutability":"nonpayable"},{"type":"function","name":"MAX_SUPPLY","inputs":[],"outputs":[{"name":"","type":"uint256","internalType":"uint256"}],"stateMutability":"view"},{"type":"function","name":"agingData","inputs":[{"name":"","type":"uint256","internalType":"uint256"}],"outputs":[{"name":"lastCleaned","type":"uint256","internalType":"uint256"},{"name":"lastSalePrice","type":"uint256","internalType":"uint256"}],"stateMutability":"view"},{"type":"function","name":"approve","inputs":[{"name":"to","type":"address","internalType":"address"},{"name":"tokenId","type":"uint256","internalType":"uint256"}],"outputs":[],"stateMutability":"nonpayable"},{"type":"function","name":"balanceOf","inputs":[{"name":"owner","type":"address","internalType":"address"}],"outputs":[{"name":"","type":"uint256","internalType":"uint256"}],"stateMutability":"view"},{"type":"function","name":"basePrice","inputs":[],"outputs":[{"name":"","type":"uint256","internalType":"uint256"}],"stateMutability":"view"},{"type":"function","name":"burn","inputs":[{"name":"t","type":"uint256","internalType":"uint256"}],"outputs":[],"stateMutability":"nonpayable"},{"type":"function","name":"calculateAgingState","inputs":[{"name":"t","type":"uint256","internalType":"uint256"}],"outputs":[{"name":"dl","type":"uint8","internalType":"uint8"}],"stateMutability":"view"},{"type":"function","name":"cleanRug","inputs":[{"name":"t","type":"uint256","internalType":"uint256"}],"outputs":[],"stateMutability":"payable"},{"type":"function","name":"dirtLevel1Days","inputs":[],"outputs":[{"name":"","type":"uint256","internalType":"uint256"}],"stateMutability":"view"},{"type":"function","name":"dirtLevel2Days","inputs":[],"outputs":[{"name":"","type":"uint256","internalType":"uint256"}],"stateMutability":"view"},{"type":"function","name":"fullLaunderingCost","inputs":[],"outputs":[{"name":"","type":"uint256","internalType":"uint256"}],"stateMutability":"view"},{"type":"function","name":"getApproved","inputs":[{"name":"tokenId","type":"uint256","internalType":"uint256"}],"outputs":[{"name":"","type":"address","internalType":"address"}],"stateMutability":"view"},{"type":"function","name":"getCleaningCost","inputs":[{"name":"dl","type":"uint8","internalType":"uint8"}],"outputs":[{"name":"","type":"uint256","internalType":"uint256"}],"stateMutability":"view"},{"type":"function","name":"getMintPrice","inputs":[{"name":"tl","type":"uint256","internalType":"uint256"}],"outputs":[{"name":"","type":"uint256","internalType":"uint256"}],"stateMutability":"view"},{"type":"function","name":"isApprovedForAll","inputs":[{"name":"owner","type":"address","internalType":"address"},{"name":"operator","type":"address","internalType":"address"}],"outputs":[{"name":"","type":"bool","internalType":"bool"}],"stateMutability":"view"},{"type":"function","name":"launderOnSale","inputs":[{"name":"t","type":"uint256","internalType":"uint256"}],"outputs":[],"stateMutability":"payable"},{"type":"function","name":"launderRug","inputs":[{"name":"t","type":"uint256","internalType":"uint256"}],"outputs":[],"stateMutability":"payable"},{"type":"function","name":"level1CleaningCost","inputs":[],"outputs":[{"name":"","type":"uint256","internalType":"uint256"}],"stateMutability":"view"},{"type":"function","name":"level2CleaningCost","inputs":[],"outputs":[{"name":"","type":"uint256","internalType":"uint256"}],"stateMutability":"view"},{"type":"function","name":"maxSupply","inputs":[],"outputs":[{"name":"","type":"uint256","internalType":"uint256"}],"stateMutability":"pure"},{"type":"function","name":"mintRug","inputs":[{"name":"textRows","type":"string[]","internalType":"string[]"},{"name":"seed","type":"uint256","internalType":"uint256"},{"name":"paletteName","type":"string","internalType":"string"},{"name":"minifiedStripeData","type":"string","internalType":"string"},{"name":"minifiedPalette","type":"string","internalType":"string"},{"name":"filteredCharacterMap","type":"string","internalType":"string"},{"name":"warpThickness","type":"uint8","internalType":"uint8"},{"name":"complexity","type":"uint8","internalType":"uint8"},{"name":"characterCount","type":"uint256","internalType":"uint256"},{"name":"stripeCount","type":"uint256","internalType":"uint256"}],"outputs":[],"stateMutability":"payable"},{"type":"function","name":"name","inputs":[],"outputs":[{"name":"","type":"string","internalType":"string"}],"stateMutability":"view"},{"type":"function","name":"onchainRugsHTMLGenerator","inputs":[],"outputs":[{"name":"","type":"address","internalType":"address"}],"stateMutability":"view"},{"type":"function","name":"owner","inputs":[],"outputs":[{"name":"","type":"address","internalType":"address"}],"stateMutability":"view"},{"type":"function","name":"ownerOf","inputs":[{"name":"tokenId","type":"uint256","internalType":"uint256"}],"outputs":[{"name":"","type":"address","internalType":"address"}],"stateMutability":"view"},{"type":"function","name":"paused","inputs":[],"outputs":[{"name":"","type":"bool","internalType":"bool"}],"stateMutability":"view"},{"type":"function","name":"renounceOwnership","inputs":[],"outputs":[],"stateMutability":"nonpayable"},{"type":"function","name":"royaltyPercentage","inputs":[],"outputs":[{"name":"","type":"uint256","internalType":"uint256"}],"stateMutability":"view"},{"type":"function","name":"rugEthFSStorage","inputs":[],"outputs":[{"name":"","type":"address","internalType":"address"}],"stateMutability":"view"},{"type":"function","name":"rugScriptyBuilder","inputs":[],"outputs":[{"name":"","type":"address","internalType":"address"}],"stateMutability":"view"},{"type":"function","name":"rugs","inputs":[{"name":"","type":"uint256","internalType":"uint256"}],"outputs":[{"name":"seed","type":"uint256","internalType":"uint256"},{"name":"paletteName","type":"string","internalType":"string"},{"name":"minifiedPalette","type":"string","internalType":"string"},{"name":"minifiedStripeData","type":"string","internalType":"string"},{"name":"warpThickness","type":"uint8","internalType":"uint8"},{"name":"mintTime","type":"uint256","internalType":"uint256"},{"name":"filteredCharacterMap","type":"string","internalType":"string"},{"name":"complexity","type":"uint8","internalType":"uint8"},{"name":"characterCount","type":"uint256","internalType":"uint256"},{"name":"stripeCount","type":"uint256","internalType":"uint256"}],"stateMutability":"view"},{"type":"function","name":"safeTransferFrom","inputs":[{"name":"from","type":"address","internalType":"address"},{"name":"to","type":"address","internalType":"address"},{"name":"tokenId","type":"uint256","internalType":"uint256"}],"outputs":[],"stateMutability":"nonpayable"},{"type":"function","name":"safeTransferFrom","inputs":[{"name":"from","type":"address","internalType":"address"},{"name":"to","type":"address","internalType":"address"},{"name":"tokenId","type":"uint256","internalType":"uint256"},{"name":"data","type":"bytes","internalType":"bytes"}],"outputs":[],"stateMutability":"nonpayable"},{"type":"function","name":"setApprovalForAll","inputs":[{"name":"operator","type":"address","internalType":"address"},{"name":"approved","type":"bool","internalType":"bool"}],"outputs":[],"stateMutability":"nonpayable"},{"type":"function","name":"setPaused","inputs":[{"name":"p","type":"bool","internalType":"bool"}],"outputs":[],"stateMutability":"nonpayable"},{"type":"function","name":"setRugScriptyContracts","inputs":[{"name":"_rugScriptyBuilder","type":"address","internalType":"address"},{"name":"_rugEthFSStorage","type":"address","internalType":"address"},{"name":"_onchainRugsHTMLGenerator","type":"address","internalType":"address"}],"outputs":[],"stateMutability":"nonpayable"},{"type":"function","name":"supportsInterface","inputs":[{"name":"i","type":"bytes4","internalType":"bytes4"}],"outputs":[{"name":"","type":"bool","internalType":"bool"}],"stateMutability":"view"},{"type":"function","name":"symbol","inputs":[],"outputs":[{"name":"","type":"string","internalType":"string"}],"stateMutability":"view"},{"type":"function","name":"tokenURI","inputs":[{"name":"tokenId","type":"uint256","internalType":"uint256"}],"outputs":[{"name":"","type":"string","internalType":"string"}],"stateMutability":"view"},{"type":"function","name":"totalSupply","inputs":[],"outputs":[{"name":"","type":"uint256","internalType":"uint256"}],"stateMutability":"view"},{"type":"function","name":"transferFrom","inputs":[{"name":"from","type":"address","internalType":"address"},{"name":"to","type":"address","internalType":"address"},{"name":"tokenId","type":"uint256","internalType":"uint256"}],"outputs":[],"stateMutability":"nonpayable"},{"type":"function","name":"transferOwnership","inputs":[{"name":"newOwner","type":"address","internalType":"address"}],"outputs":[],"stateMutability":"nonpayable"},{"type":"function","name":"updateAgingThresholds","inputs":[{"name":"d1","type":"uint256","internalType":"uint256"},{"name":"d2","type":"uint256","internalType":"uint256"}],"outputs":[],"stateMutability":"nonpayable"},{"type":"function","name":"updateBasePrice","inputs":[{"name":"p","type":"uint256","internalType":"uint256"}],"outputs":[],"stateMutability":"nonpayable"},{"type":"function","name":"updateCleaningCost","inputs":[{"name":"l","type":"uint8","internalType":"uint8"},{"name":"c","type":"uint256","internalType":"uint256"}],"outputs":[],"stateMutability":"nonpayable"},{"type":"function","name":"updateLaunderingCost","inputs":[{"name":"c","type":"uint256","internalType":"uint256"}],"outputs":[],"stateMutability":"nonpayable"},{"type":"function","name":"updateRoyaltyPercentage","inputs":[{"name":"p","type":"uint256","internalType":"uint256"}],"outputs":[],"stateMutability":"nonpayable"},{"type":"function","name":"usedTextHashes","inputs":[{"name":"","type":"bytes32","internalType":"bytes32"}],"outputs":[{"name":"","type":"bool","internalType":"bool"}],"stateMutability":"view"},{"type":"event","name":"AgingThresholdsUpdated","inputs":[],"anonymous":false},{"type":"event","name":"Approval","inputs":[{"name":"owner","type":"address","indexed":true,"internalType":"address"},{"name":"approved","type":"address","indexed":true,"internalType":"address"},{"name":"tokenId","type":"uint256","indexed":true,"internalType":"uint256"}],"anonymous":false},{"type":"event","name":"ApprovalForAll","inputs":[{"name":"owner","type":"address","indexed":true,"internalType":"address"},{"name":"operator","type":"address","indexed":true,"internalType":"address"},{"name":"approved","type":"bool","indexed":false,"internalType":"bool"}],"anonymous":false},{"type":"event","name":"BatchMetadataUpdate","inputs":[{"name":"_fromTokenId","type":"uint256","indexed":false,"internalType":"uint256"},{"name":"_toTokenId","type":"uint256","indexed":false,"internalType":"uint256"}],"anonymous":false},{"type":"event","name":"MetadataUpdate","inputs":[{"name":"_tokenId","type":"uint256","indexed":false,"internalType":"uint256"}],"anonymous":false},{"type":"event","name":"OwnershipTransferred","inputs":[{"name":"previousOwner","type":"address","indexed":true,"internalType":"address"},{"name":"newOwner","type":"address","indexed":true,"internalType":"address"}],"anonymous":false},{"type":"event","name":"PricingUpdated","inputs":[{"name":"parameter","type":"string","indexed":false,"internalType":"string"},{"name":"oldValue","type":"uint256","indexed":false,"internalType":"uint256"},{"name":"newValue","type":"uint256","indexed":false,"internalType":"uint256"}],"anonymous":false},{"type":"event","name":"RugCleaned","inputs":[{"name":"tokenId","type":"uint256","indexed":true,"internalType":"uint256"},{"name":"cleaner","type":"address","indexed":true,"internalType":"address"},{"name":"cost","type":"uint256","indexed":false,"internalType":"uint256"},{"name":"dirtLevel","type":"uint8","indexed":false,"internalType":"uint8"}],"anonymous":false},{"type":"event","name":"RugLaundered","inputs":[{"name":"tokenId","type":"uint256","indexed":true,"internalType":"uint256"},{"name":"cleaner","type":"address","indexed":true,"internalType":"address"},{"name":"cost","type":"uint256","indexed":false,"internalType":"uint256"}],"anonymous":false},{"type":"event","name":"RugMinted","inputs":[{"name":"tokenId","type":"uint256","indexed":true,"internalType":"uint256"},{"name":"owner","type":"address","indexed":true,"internalType":"address"},{"name":"textRows","type":"string[]","indexed":false,"internalType":"string[]"},{"name":"seed","type":"uint256","indexed":false,"internalType":"uint256"}],"anonymous":false},{"type":"event","name":"Transfer","inputs":[{"name":"from","type":"address","indexed":true,"internalType":"address"},{"name":"to","type":"address","indexed":true,"internalType":"address"},{"name":"tokenId","type":"uint256","indexed":true,"internalType":"uint256"}],"anonymous":false},{"type":"error","name":"ERC721IncorrectOwner","inputs":[{"name":"sender","type":"address","internalType":"address"},{"name":"tokenId","type":"uint256","internalType":"uint256"},{"name":"owner","type":"address","internalType":"address"}]},{"type":"error","name":"ERC721InsufficientApproval","inputs":[{"name":"operator","type":"address","internalType":"address"},{"name":"tokenId","type":"uint256","internalType":"uint256"}]},{"type":"error","name":"ERC721InvalidApprover","inputs":[{"name":"approver","type":"address","internalType":"address"}]},{"type":"error","name":"ERC721InvalidOperator","inputs":[{"name":"operator","type":"address","internalType":"address"}]},{"type":"error","name":"ERC721InvalidOwner","inputs":[{"name":"owner","type":"address","internalType":"address"}]},{"type":"error","name":"ERC721InvalidReceiver","inputs":[{"name":"receiver","type":"address","internalType":"address"}]},{"type":"error","name":"ERC721InvalidSender","inputs":[{"name":"sender","type":"address","internalType":"address"}]},{"type":"error","name":"ERC721NonexistentToken","inputs":[{"name":"tokenId","type":"uint256","internalType":"uint256"}]},{"type":"error","name":"OwnableInvalidOwner","inputs":[{"name":"owner","type":"address","internalType":"address"}]},{"type":"error","name":"OwnableUnauthorizedAccount","inputs":[{"name":"account","type":"address","internalType":"address"}]}],"bytecode":{"object":"0x608060405264e8d4a5100060095564e8d4a51000600a5564e8d4a51000600b5564e8d4a51000600c556103e8600d556203f480600e5562093a80600f555f60105f6101000a81548160ff021916908315150217905550348015610060575f5ffd5b50336040518060400160405280600c81526020017f4f6e636861696e205275677300000000000000000000000000000000000000008152506040518060400160405280600481526020017f5255475300000000000000000000000000000000000000000000000000000000815250815f90816100dc9190610474565b5080600190816100ec9190610474565b5050505f73ffffffffffffffffffffffffffffffffffffffff168173ffffffffffffffffffffffffffffffffffffffff160361015f575f6040517f1e4fbdf70000000000000000000000000000000000000000000000000000000081526004016101569190610582565b60405180910390fd5b61016e8161017460201b60201c565b5061059b565b5f60075f9054906101000a900473ffffffffffffffffffffffffffffffffffffffff1690508160075f6101000a81548173ffffffffffffffffffffffffffffffffffffffff021916908373ffffffffffffffffffffffffffffffffffffffff1602179055508173ffffffffffffffffffffffffffffffffffffffff168173ffffffffffffffffffffffffffffffffffffffff167f8be0079c531659141344cd1fd0a4f28419497f9722a3daafe3b4186f6b6457e060405160405180910390a35050565b5f81519050919050565b7f4e487b71000000000000000000000000000000000000000000000000000000005f52604160045260245ffd5b7f4e487b71000000000000000000000000000000000000000000000000000000005f52602260045260245ffd5b5f60028204905060018216806102b257607f821691505b6020821081036102c5576102c461026e565b5b50919050565b5f819050815f5260205f209050919050565b5f6020601f8301049050919050565b5f82821b905092915050565b5f600883026103277fffffffffffffffffffffffffffffffffffffffffffffffffffffffffffffffff826102ec565b61033186836102ec565b95508019841693508086168417925050509392505050565b5f819050919050565b5f819050919050565b5f61037561037061036b84610349565b610352565b610349565b9050919050565b5f819050919050565b61038e8361035b565b6103a261039a8261037c565b8484546102f8565b825550505050565b5f5f905090565b6103b96103aa565b6103c4818484610385565b505050565b5b818110156103e7576103dc5f826103b1565b6001810190506103ca565b5050565b601f82111561042c576103fd816102cb565b610406846102dd565b81016020851015610415578190505b610429610421856102dd565b8301826103c9565b50505b505050565b5f82821c905092915050565b5f61044c5f1984600802610431565b1980831691505092915050565b5f610464838361043d565b9150826002028217905092915050565b61047d82610237565b67ffffffffffffffff81111561049657610495610241565b5b6104a0825461029b565b6104ab8282856103eb565b5f60209050601f8311600181146104dc575f84156104ca578287015190505b6104d48582610459565b86555061053b565b601f1984166104ea866102cb565b5f5b82811015610511578489015182556001820191506020850194506020810190506104ec565b8683101561052e578489015161052a601f89168261043d565b8355505b6001600288020188555050505b505050505050565b5f73ffffffffffffffffffffffffffffffffffffffff82169050919050565b5f61056c82610543565b9050919050565b61057c81610562565b82525050565b5f6020820190506105955f830184610573565b92915050565b615f12806105a85f395ff3fe608060405260043610610292575f3560e01c80636352211e11610159578063b88d4fde116100c0578063e0052a1211610079578063e0052a12146109d4578063e4f9f43a14610a10578063e73a782514610a3a578063e985e9c514610a64578063f2fde38b14610aa0578063fd5baa8814610ac857610292565b8063b88d4fde146108c4578063ba195263146108ec578063c3034cdd14610928578063c7876ea414610944578063c87b56dd1461096e578063d5abeb01146109aa57610292565b80638fb96141116101125780638fb961411461079d57806395d89b41146107d95780639a3cff7614610803578063a22cb46514610848578063a58b0a7214610870578063ad12c05c1461089a57610292565b80636352211e14610693578063665db583146106cf57806370a08231146106f7578063715018a6146107335780638a71bb2d146107495780638da5cb5b1461077357610292565b80632fa22401116101fd57806342966c68116101b657806342966c681461059957806346b13edc146105c15780634f44b188146105e9578063559e775b146106055780635c975abb14610641578063621bb6691461066b57610292565b80632fa224011461048e57806330e80234146104b857806332cb6b0c146104f55780633b3eda811461051f5780633dcf810f1461054757806342842e0e1461057157610292565b80630f495d0c1161024f5780630f495d0c146103a457806316c38b3c146103c057806318160ddd146103e857806323b872dd14610412578063276f2e0e1461043a5780632d1ec8fd1461046457610292565b806301ffc9a714610296578063020c0433146102d257806304f049ad146102ee57806306fdde0314610316578063081812fc14610340578063095ea7b31461037c575b5f5ffd5b3480156102a1575f5ffd5b506102bc60048036038101906102b79190613b7a565b610af0565b6040516102c99190613bbf565b60405180910390f35b6102ec60048036038101906102e79190613c0b565b610b01565b005b3480156102f9575f5ffd5b50610314600480360381019061030f9190613c36565b610c26565b005b348015610321575f5ffd5b5061032a610c6c565b6040516103379190613ce4565b60405180910390f35b34801561034b575f5ffd5b5061036660048036038101906103619190613c0b565b610cfb565b6040516103739190613d43565b60405180910390f35b348015610387575f5ffd5b506103a2600480360381019061039d9190613d86565b610d16565b005b6103be60048036038101906103b99190614008565b610d2c565b005b3480156103cb575f5ffd5b506103e660048036038101906103e19190614197565b61119a565b005b3480156103f3575f5ffd5b506103fc6111be565b60405161040991906141d1565b60405180910390f35b34801561041d575f5ffd5b50610438600480360381019061043391906141ea565b6111cc565b005b348015610445575f5ffd5b5061044e6112cb565b60405161045b91906141d1565b60405180910390f35b34801561046f575f5ffd5b506104786112d1565b60405161048591906141d1565b60405180910390f35b348015610499575f5ffd5b506104a26112d7565b6040516104af9190613d43565b60405180910390f35b3480156104c3575f5ffd5b506104de60048036038101906104d99190613c0b565b6112fd565b6040516104ec92919061423a565b60405180910390f35b348015610500575f5ffd5b5061050961131d565b60405161051691906141d1565b60405180910390f35b34801561052a575f5ffd5b5061054560048036038101906105409190613c0b565b611323565b005b348015610552575f5ffd5b5061055b611370565b60405161056891906141d1565b60405180910390f35b34801561057c575f5ffd5b50610597600480360381019061059291906141ea565b611376565b005b3480156105a4575f5ffd5b506105bf60048036038101906105ba9190613c0b565b611395565b005b3480156105cc575f5ffd5b506105e760048036038101906105e29190614261565b6114d8565b005b61060360048036038101906105fe9190613c0b565b6115a6565b005b348015610610575f5ffd5b5061062b60048036038101906106269190613c0b565b61172a565b60405161063891906141d1565b60405180910390f35b34801561064c575f5ffd5b50610655611735565b6040516106629190613bbf565b60405180910390f35b348015610676575f5ffd5b50610691600480360381019061068c9190613c0b565b611747565b005b34801561069e575f5ffd5b506106b960048036038101906106b49190613c0b565b611794565b6040516106c69190613d43565b60405180910390f35b3480156106da575f5ffd5b506106f560048036038101906106f091906142b1565b6117a5565b005b348015610702575f5ffd5b5061071d600480360381019061071891906142ef565b611852565b60405161072a91906141d1565b60405180910390f35b34801561073e575f5ffd5b50610747611908565b005b348015610754575f5ffd5b5061075d61191b565b60405161076a91906141d1565b60405180910390f35b34801561077e575f5ffd5b50610787611921565b6040516107949190613d43565b60405180910390f35b3480156107a8575f5ffd5b506107c360048036038101906107be919061431a565b611949565b6040516107d091906141d1565b60405180910390f35b3480156107e4575f5ffd5b506107ed61197d565b6040516107fa9190613ce4565b60405180910390f35b34801561080e575f5ffd5b5061082960048036038101906108249190613c0b565b611a0d565b60405161083f9a99989796959493929190614354565b60405180910390f35b348015610853575f5ffd5b5061086e6004803603810190610869919061440a565b611c8d565b005b34801561087b575f5ffd5b50610884611ca3565b6040516108919190613d43565b60405180910390f35b3480156108a5575f5ffd5b506108ae611cc8565b6040516108bb91906141d1565b60405180910390f35b3480156108cf575f5ffd5b506108ea60048036038101906108e591906144e6565b611cce565b005b3480156108f7575f5ffd5b50610912600480360381019061090d9190614599565b611cf3565b60405161091f9190613bbf565b60405180910390f35b610942600480360381019061093d9190613c0b565b611d10565b005b34801561094f575f5ffd5b50610958611e5f565b60405161096591906141d1565b60405180910390f35b348015610979575f5ffd5b50610994600480360381019061098f9190613c0b565b611e65565b6040516109a19190613ce4565b60405180910390f35b3480156109b5575f5ffd5b506109be6125f9565b6040516109cb91906141d1565b60405180910390f35b3480156109df575f5ffd5b506109fa60048036038101906109f59190613c0b565b612602565b604051610a0791906145c4565b60405180910390f35b348015610a1b575f5ffd5b50610a2461266f565b604051610a319190613d43565b60405180910390f35b348015610a45575f5ffd5b50610a4e612694565b604051610a5b91906141d1565b60405180910390f35b348015610a6f575f5ffd5b50610a8a6004803603810190610a8591906145dd565b61269a565b604051610a979190613bbf565b60405180910390f35b348015610aab575f5ffd5b50610ac66004803603810190610ac191906142ef565b612728565b005b348015610ad3575f5ffd5b50610aee6004803603810190610ae99190613c0b565b6127ac565b005b5f610afa826127f9565b9050919050565b3373ffffffffffffffffffffffffffffffffffffffff16610b2182611794565b73ffffffffffffffffffffffffffffffffffffffff1614610b77576040517f08c379a0000000000000000000000000000000000000000000000000000000008152600401610b6e90614665565b60405180910390fd5b600c54341015610bbc576040517f08c379a0000000000000000000000000000000000000000000000000000000008152600401610bb3906146cd565b60405180910390fd5b4260145f8381526020019081526020015f205f01819055503373ffffffffffffffffffffffffffffffffffffffff16817f1bf45b0277ca720c30bd5b8340f3ca2cc97a9257f2862a225ae34f6af11deed234604051610c1b91906141d1565b60405180910390a350565b610c2e612859565b81600e8190555080600f819055507f9766aa1854a184e3548baef2e807f178908a14c8ce5557f84bbae7e8b7b1881060405160405180910390a15050565b60605f8054610c7a90614718565b80601f0160208091040260200160405190810160405280929190818152602001828054610ca690614718565b8015610cf15780601f10610cc857610100808354040283529160200191610cf1565b820191905f5260205f20905b815481529060010190602001808311610cd457829003601f168201915b5050505050905090565b5f610d05826128e0565b50610d0f82612966565b9050919050565b610d288282610d2361299f565b6129a6565b5050565b60105f9054906101000a900460ff1615610d7b576040517f08c379a0000000000000000000000000000000000000000000000000000000008152600401610d7290614792565b60405180910390fd5b610457610d866129b8565b10610dc6576040517f08c379a0000000000000000000000000000000000000000000000000000000008152600401610dbd906147fa565b60405180910390fd5b5f8a51118015610dd8575060058a5111155b610e17576040517f08c379a0000000000000000000000000000000000000000000000000000000008152600401610e0e90614862565b60405180910390fd5b60018460ff1610158015610e2f575060058460ff1611155b610e6e576040517f08c379a0000000000000000000000000000000000000000000000000000000008152600401610e65906148ca565b60405180910390fd5b610e788a5161172a565b341015610eba576040517f08c379a0000000000000000000000000000000000000000000000000000000008152600401610eb1906146cd565b60405180910390fd5b5f8903610ef157424433604051602001610ed69392919061494d565b604051602081830303815290604052805190602001205f1c98505b5f610efb8b6129c1565b905060155f8281526020019081526020015f205f9054906101000a900460ff1615610f5b576040517f08c379a0000000000000000000000000000000000000000000000000000000008152600401610f52906149d3565b60405180910390fd5b600160155f8381526020019081526020015f205f6101000a81548160ff0219169083151502179055505f6001610f8f6129b8565b610f999190614a1e565b90506040518061016001604052808c81526020018b81526020018981526020018a81526020018d81526020018760ff1681526020014281526020018881526020018660ff1681526020018581526020018481525060135f8381526020019081526020015f205f820151815f0155602082015181600101908161101b9190614bf1565b5060408201518160020190816110319190614bf1565b5060608201518160030190816110479190614bf1565b506080820151816004019080519060200190611064929190613a24565b5060a0820151816005015f6101000a81548160ff021916908360ff16021790555060c0820151816006015560e08201518160070190816110a49190614bf1565b50610100820151816008015f6101000a81548160ff021916908360ff160217905550610120820151816009015561014082015181600a015590505060405180604001604052804281526020015f81525060145f8381526020019081526020015f205f820151815f01556020820151816001015590505060085f81548092919061112c90614cc0565b919050555061113b33826129f0565b3373ffffffffffffffffffffffffffffffffffffffff16817f3180a95ebb1c45d97d28fabb74799fba191bba22c5303030187343603c821c9f8e8e604051611184929190614e0a565b60405180910390a3505050505050505050505050565b6111a2612859565b8060105f6101000a81548160ff02191690831515021790555050565b5f6111c76129b8565b905090565b5f73ffffffffffffffffffffffffffffffffffffffff168273ffffffffffffffffffffffffffffffffffffffff160361123c575f6040517f64a0ae920000000000000000000000000000000000000000000000000000000081526004016112339190613d43565b60405180910390fd5b5f61124f838361124a61299f565b612a0d565b90508373ffffffffffffffffffffffffffffffffffffffff168173ffffffffffffffffffffffffffffffffffffffff16146112c5578382826040517f64283d7b0000000000000000000000000000000000000000000000000000000081526004016112bc93929190614e38565b60405180910390fd5b50505050565b600f5481565b600a5481565b601060019054906101000a900473ffffffffffffffffffffffffffffffffffffffff1681565b6014602052805f5260405f205f91509050805f0154908060010154905082565b61045781565b61132b612859565b7fb6899173d39b2c8e29bc496fa4c56e9f1c68456555914f98be5c5da88d84a87b600c548260405161135e929190614eb7565b60405180910390a180600c8190555050565b600c5481565b61139083838360405180602001604052805f815250611cce565b505050565b3373ffffffffffffffffffffffffffffffffffffffff166113b582611794565b73ffffffffffffffffffffffffffffffffffffffff161461140b576040517f08c379a000000000000000000000000000000000000000000000000000000000815260040161140290614665565b60405180910390fd5b60135f8281526020019081526020015f205f5f82015f9055600182015f6114329190613a7b565b600282015f6114419190613a7b565b600382015f6114509190613a7b565b600482015f61145f9190613ab8565b600582015f6101000a81549060ff0219169055600682015f9055600782015f6114889190613a7b565b600882015f6101000a81549060ff0219169055600982015f9055600a82015f9055505060145f8281526020019081526020015f205f5f82015f9055600182015f905550506114d581612c18565b50565b6114e0612859565b82601060016101000a81548173ffffffffffffffffffffffffffffffffffffffff021916908373ffffffffffffffffffffffffffffffffffffffff1602179055508160115f6101000a81548173ffffffffffffffffffffffffffffffffffffffff021916908373ffffffffffffffffffffffffffffffffffffffff1602179055508060125f6101000a81548173ffffffffffffffffffffffffffffffffffffffff021916908373ffffffffffffffffffffffffffffffffffffffff160217905550505050565b3373ffffffffffffffffffffffffffffffffffffffff166115c682611794565b73ffffffffffffffffffffffffffffffffffffffff161461161c576040517f08c379a000000000000000000000000000000000000000000000000000000000815260040161161390614665565b60405180910390fd5b5f61162682612602565b90505f8160ff161161166d576040517f08c379a000000000000000000000000000000000000000000000000000000000815260040161166490614f3b565b60405180910390fd5b5f61167782611949565b9050803410156116bc576040517f08c379a00000000000000000000000000000000000000000000000000000000081526004016116b3906146cd565b60405180910390fd5b4260145f8581526020019081526020015f205f01819055503373ffffffffffffffffffffffffffffffffffffffff16837f66dc400bfc11b32cf205ca1b32138f264727be51a9e0fb8e10e6d5965f4cc089838560405161171d929190614f59565b60405180910390a3505050565b5f6009549050919050565b60105f9054906101000a900460ff1681565b61174f612859565b7fb6899173d39b2c8e29bc496fa4c56e9f1c68456555914f98be5c5da88d84a87b600d5482604051611782929190614fca565b60405180910390a180600d8190555050565b5f61179e826128e0565b9050919050565b6117ad612859565b60018260ff16036117ff577fb6899173d39b2c8e29bc496fa4c56e9f1c68456555914f98be5c5da88d84a87b600a54826040516117eb92919061504e565b60405180910390a180600a8190555061184e565b60028260ff160361184d577fb6899173d39b2c8e29bc496fa4c56e9f1c68456555914f98be5c5da88d84a87b600b548260405161183d9291906150d2565b60405180910390a180600b819055505b5b5050565b5f5f73ffffffffffffffffffffffffffffffffffffffff168273ffffffffffffffffffffffffffffffffffffffff16036118c3575f6040517f89c62b640000000000000000000000000000000000000000000000000000000081526004016118ba9190613d43565b60405180910390fd5b60035f8373ffffffffffffffffffffffffffffffffffffffff1673ffffffffffffffffffffffffffffffffffffffff1681526020019081526020015f20549050919050565b611910612859565b6119195f612c9a565b565b600d5481565b5f60075f9054906101000a900473ffffffffffffffffffffffffffffffffffffffff16905090565b5f60018260ff160361195f57600a549050611978565b60028260ff160361197457600b549050611978565b5f90505b919050565b60606001805461198c90614718565b80601f01602080910402602001604051908101604052809291908181526020018280546119b890614718565b8015611a035780601f106119da57610100808354040283529160200191611a03565b820191905f5260205f20905b8154815290600101906020018083116119e657829003601f168201915b5050505050905090565b6013602052805f5260405f205f91509050805f015490806001018054611a3290614718565b80601f0160208091040260200160405190810160405280929190818152602001828054611a5e90614718565b8015611aa95780601f10611a8057610100808354040283529160200191611aa9565b820191905f5260205f20905b815481529060010190602001808311611a8c57829003601f168201915b505050505090806002018054611abe90614718565b80601f0160208091040260200160405190810160405280929190818152602001828054611aea90614718565b8015611b355780601f10611b0c57610100808354040283529160200191611b35565b820191905f5260205f20905b815481529060010190602001808311611b1857829003601f168201915b505050505090806003018054611b4a90614718565b80601f0160208091040260200160405190810160405280929190818152602001828054611b7690614718565b8015611bc15780601f10611b9857610100808354040283529160200191611bc1565b820191905f5260205f20905b815481529060010190602001808311611ba457829003601f168201915b505050505090806005015f9054906101000a900460ff1690806006015490806007018054611bee90614718565b80601f0160208091040260200160405190810160405280929190818152602001828054611c1a90614718565b8015611c655780601f10611c3c57610100808354040283529160200191611c65565b820191905f5260205f20905b815481529060010190602001808311611c4857829003601f168201915b505050505090806008015f9054906101000a900460ff169080600901549080600a015490508a565b611c9f611c9861299f565b8383612d5d565b5050565b60125f9054906101000a900473ffffffffffffffffffffffffffffffffffffffff1681565b600b5481565b611cd98484846111cc565b611ced611ce461299f565b85858585612ec6565b50505050565b6015602052805f5260405f205f915054906101000a900460ff1681565b3373ffffffffffffffffffffffffffffffffffffffff16611d3082611794565b73ffffffffffffffffffffffffffffffffffffffff1614611d86576040517f08c379a0000000000000000000000000000000000000000000000000000000008152600401611d7d90614665565b60405180910390fd5b60145f8281526020019081526020015f20600101543411611ddc576040517f08c379a0000000000000000000000000000000000000000000000000000000008152600401611dd390615156565b60405180910390fd5b3460145f8381526020019081526020015f20600101819055504260145f8381526020019081526020015f205f01819055503373ffffffffffffffffffffffffffffffffffffffff16817f1bf45b0277ca720c30bd5b8340f3ca2cc97a9257f2862a225ae34f6af11deed25f604051611e5491906151ad565b60405180910390a350565b60095481565b60605f73ffffffffffffffffffffffffffffffffffffffff16611e8783611794565b73ffffffffffffffffffffffffffffffffffffffff1603611edd576040517f08c379a0000000000000000000000000000000000000000000000000000000008152600401611ed490615210565b60405180910390fd5b5f60135f8481526020019081526020015f20604051806101600160405290815f8201548152602001600182018054611f1490614718565b80601f0160208091040260200160405190810160405280929190818152602001828054611f4090614718565b8015611f8b5780601f10611f6257610100808354040283529160200191611f8b565b820191905f5260205f20905b815481529060010190602001808311611f6e57829003601f168201915b50505050508152602001600282018054611fa490614718565b80601f0160208091040260200160405190810160405280929190818152602001828054611fd090614718565b801561201b5780601f10611ff25761010080835404028352916020019161201b565b820191905f5260205f20905b815481529060010190602001808311611ffe57829003601f168201915b5050505050815260200160038201805461203490614718565b80601f016020809104026020016040519081016040528092919081815260200182805461206090614718565b80156120ab5780601f10612082576101008083540402835291602001916120ab565b820191905f5260205f20905b81548152906001019060200180831161208e57829003601f168201915b5050505050815260200160048201805480602002602001604051908101604052809291908181526020015f905b82821015612180578382905f5260205f200180546120f590614718565b80601f016020809104026020016040519081016040528092919081815260200182805461212190614718565b801561216c5780601f106121435761010080835404028352916020019161216c565b820191905f5260205f20905b81548152906001019060200180831161214f57829003601f168201915b5050505050815260200190600101906120d8565b505050508152602001600582015f9054906101000a900460ff1660ff1660ff168152602001600682015481526020016007820180546121be90614718565b80601f01602080910402602001604051908101604052809291908181526020018280546121ea90614718565b80156122355780601f1061220c57610100808354040283529160200191612235565b820191905f5260205f20905b81548152906001019060200180831161221857829003601f168201915b50505050508152602001600882015f9054906101000a900460ff1660ff1660ff16815260200160098201548152602001600a8201548152505090505f61227a84612602565b90505f73ffffffffffffffffffffffffffffffffffffffff16601060019054906101000a900473ffffffffffffffffffffffffffffffffffffffff1673ffffffffffffffffffffffffffffffffffffffff160361230c576040517f08c379a000000000000000000000000000000000000000000000000000000000815260040161230390615278565b60405180910390fd5b5f73ffffffffffffffffffffffffffffffffffffffff1660115f9054906101000a900473ffffffffffffffffffffffffffffffffffffffff1673ffffffffffffffffffffffffffffffffffffffff160361239b576040517f08c379a0000000000000000000000000000000000000000000000000000000008152600401612392906152e0565b60405180910390fd5b5f73ffffffffffffffffffffffffffffffffffffffff1660125f9054906101000a900473ffffffffffffffffffffffffffffffffffffffff1673ffffffffffffffffffffffffffffffffffffffff160361242a576040517f08c379a00000000000000000000000000000000000000000000000000000000081526004016124219061536e565b60405180910390fd5b5f8260405160200161243c9190615535565b60405160208183030381529060405290505f60125f9054906101000a900473ffffffffffffffffffffffffffffffffffffffff1673ffffffffffffffffffffffffffffffffffffffff1663fa99f1b48388601060019054906101000a900473ffffffffffffffffffffffffffffffffffffffff1660115f9054906101000a900473ffffffffffffffffffffffffffffffffffffffff166040518563ffffffff1660e01b81526004016124f194939291906155a7565b5f60405180830381865afa15801561250b573d5f5f3e3d5ffd5b505050506040513d5f823e3d601f19601f82011682018060405250810190612533919061565f565b90505f6125cb61254288613072565b83612551886080015151613072565b61255f896101200151613072565b89602001516125728b6101400151613072565b6125838c610100015160ff16613072565b6125938d60a0015160ff16613072565b61259f8d60ff16613072565b6040516020016125b799989796959493929190615b40565b60405160208183030381529060405261313c565b9050806040516020016125de9190615c52565b60405160208183030381529060405295505050505050919050565b5f610457905090565b5f5f60145f8481526020019081526020015f206040518060400160405290815f820154815260200160018201548152505090505f815f0151426126459190615c77565b9050600f5481106126595760029250612668565b600e54811061266757600192505b5b5050919050565b60115f9054906101000a900473ffffffffffffffffffffffffffffffffffffffff1681565b600e5481565b5f60055f8473ffffffffffffffffffffffffffffffffffffffff1673ffffffffffffffffffffffffffffffffffffffff1681526020019081526020015f205f8373ffffffffffffffffffffffffffffffffffffffff1673ffffffffffffffffffffffffffffffffffffffff1681526020019081526020015f205f9054906101000a900460ff16905092915050565b612730612859565b5f73ffffffffffffffffffffffffffffffffffffffff168173ffffffffffffffffffffffffffffffffffffffff16036127a0575f6040517f1e4fbdf70000000000000000000000000000000000000000000000000000000081526004016127979190613d43565b60405180910390fd5b6127a981612c9a565b50565b6127b4612859565b7fb6899173d39b2c8e29bc496fa4c56e9f1c68456555914f98be5c5da88d84a87b600954826040516127e7929190615cf4565b60405180910390a18060098190555050565b5f634906490660e01b7bffffffffffffffffffffffffffffffffffffffffffffffffffffffff1916827bffffffffffffffffffffffffffffffffffffffffffffffffffffffff19161480612852575061285182613169565b5b9050919050565b61286161299f565b73ffffffffffffffffffffffffffffffffffffffff1661287f611921565b73ffffffffffffffffffffffffffffffffffffffff16146128de576128a261299f565b6040517f118cdaa70000000000000000000000000000000000000000000000000000000081526004016128d59190613d43565b60405180910390fd5b565b5f5f6128eb8361324a565b90505f73ffffffffffffffffffffffffffffffffffffffff168173ffffffffffffffffffffffffffffffffffffffff160361295d57826040517f7e27328900000000000000000000000000000000000000000000000000000000815260040161295491906141d1565b60405180910390fd5b80915050919050565b5f60045f8381526020019081526020015f205f9054906101000a900473ffffffffffffffffffffffffffffffffffffffff169050919050565b5f33905090565b6129b38383836001613283565b505050565b5f600854905090565b5f816040516020016129d39190615d2e565b604051602081830303815290604052805190602001209050919050565b612a09828260405180602001604052805f815250613442565b5050565b5f5f612a188461324a565b90505f73ffffffffffffffffffffffffffffffffffffffff168373ffffffffffffffffffffffffffffffffffffffff1614612a5957612a58818486613465565b5b5f73ffffffffffffffffffffffffffffffffffffffff168173ffffffffffffffffffffffffffffffffffffffff1614612ae457612a985f855f5f613283565b600160035f8373ffffffffffffffffffffffffffffffffffffffff1673ffffffffffffffffffffffffffffffffffffffff1681526020019081526020015f205f82825403925050819055505b5f73ffffffffffffffffffffffffffffffffffffffff168573ffffffffffffffffffffffffffffffffffffffff1614612b6357600160035f8773ffffffffffffffffffffffffffffffffffffffff1673ffffffffffffffffffffffffffffffffffffffff1681526020019081526020015f205f82825401925050819055505b8460025f8681526020019081526020015f205f6101000a81548173ffffffffffffffffffffffffffffffffffffffff021916908373ffffffffffffffffffffffffffffffffffffffff160217905550838573ffffffffffffffffffffffffffffffffffffffff168273ffffffffffffffffffffffffffffffffffffffff167fddf252ad1be2c89b69c2b068fc378daa952ba7f163c4a11628f55a4df523b3ef60405160405180910390a4809150509392505050565b5f612c245f835f612a0d565b90505f73ffffffffffffffffffffffffffffffffffffffff168173ffffffffffffffffffffffffffffffffffffffff1603612c9657816040517f7e273289000000000000000000000000000000000000000000000000000000008152600401612c8d91906141d1565b60405180910390fd5b5050565b5f60075f9054906101000a900473ffffffffffffffffffffffffffffffffffffffff1690508160075f6101000a81548173ffffffffffffffffffffffffffffffffffffffff021916908373ffffffffffffffffffffffffffffffffffffffff1602179055508173ffffffffffffffffffffffffffffffffffffffff168173ffffffffffffffffffffffffffffffffffffffff167f8be0079c531659141344cd1fd0a4f28419497f9722a3daafe3b4186f6b6457e060405160405180910390a35050565b5f73ffffffffffffffffffffffffffffffffffffffff168273ffffffffffffffffffffffffffffffffffffffff1603612dcd57816040517f5b08ba18000000000000000000000000000000000000000000000000000000008152600401612dc49190613d43565b60405180910390fd5b8060055f8573ffffffffffffffffffffffffffffffffffffffff1673ffffffffffffffffffffffffffffffffffffffff1681526020019081526020015f205f8473ffffffffffffffffffffffffffffffffffffffff1673ffffffffffffffffffffffffffffffffffffffff1681526020019081526020015f205f6101000a81548160ff0219169083151502179055508173ffffffffffffffffffffffffffffffffffffffff168373ffffffffffffffffffffffffffffffffffffffff167f17307eab39ab6107e8899845ad3d59bd9653f200f220920489ca2b5937696c3183604051612eb99190613bbf565b60405180910390a3505050565b5f8373ffffffffffffffffffffffffffffffffffffffff163b111561306b578273ffffffffffffffffffffffffffffffffffffffff1663150b7a02868685856040518563ffffffff1660e01b8152600401612f249493929190615d4e565b6020604051808303815f875af1925050508015612f5f57506040513d601f19601f82011682018060405250810190612f5c9190615dac565b60015b612fe0573d805f8114612f8d576040519150601f19603f3d011682016040523d82523d5f602084013e612f92565b606091505b505f815103612fd857836040517f64a0ae92000000000000000000000000000000000000000000000000000000008152600401612fcf9190613d43565b60405180910390fd5b805160208201fd5b63150b7a0260e01b7bffffffffffffffffffffffffffffffffffffffffffffffffffffffff1916817bffffffffffffffffffffffffffffffffffffffffffffffffffffffff19161461306957836040517f64a0ae920000000000000000000000000000000000000000000000000000000081526004016130609190613d43565b60405180910390fd5b505b5050505050565b60605f600161308084613528565b0190505f8167ffffffffffffffff81111561309e5761309d613dc8565b5b6040519080825280601f01601f1916602001820160405280156130d05781602001600182028036833780820191505090505b5090505f82602083010190505b600115613131578080600190039150507f3031323334353637383961626364656600000000000000000000000000000000600a86061a8153600a858161312657613125615dd7565b5b0494505f85036130dd575b819350505050919050565b606061316282604051806060016040528060408152602001615e9d604091396001613679565b9050919050565b5f7f80ac58cd000000000000000000000000000000000000000000000000000000007bffffffffffffffffffffffffffffffffffffffffffffffffffffffff1916827bffffffffffffffffffffffffffffffffffffffffffffffffffffffff1916148061323357507f5b5e139f000000000000000000000000000000000000000000000000000000007bffffffffffffffffffffffffffffffffffffffffffffffffffffffff1916827bffffffffffffffffffffffffffffffffffffffffffffffffffffffff1916145b80613243575061324282613808565b5b9050919050565b5f60025f8381526020019081526020015f205f9054906101000a900473ffffffffffffffffffffffffffffffffffffffff169050919050565b80806132bb57505f73ffffffffffffffffffffffffffffffffffffffff168273ffffffffffffffffffffffffffffffffffffffff1614155b156133ed575f6132ca846128e0565b90505f73ffffffffffffffffffffffffffffffffffffffff168373ffffffffffffffffffffffffffffffffffffffff161415801561333457508273ffffffffffffffffffffffffffffffffffffffff168173ffffffffffffffffffffffffffffffffffffffff1614155b80156133475750613345818461269a565b155b1561338957826040517fa9fbf51f0000000000000000000000000000000000000000000000000000000081526004016133809190613d43565b60405180910390fd5b81156133eb57838573ffffffffffffffffffffffffffffffffffffffff168273ffffffffffffffffffffffffffffffffffffffff167f8c5be1e5ebec7d5bd14f71427d1e84f3dd0314c0f7b2291e5b200ac8c7c3b92560405160405180910390a45b505b8360045f8581526020019081526020015f205f6101000a81548173ffffffffffffffffffffffffffffffffffffffff021916908373ffffffffffffffffffffffffffffffffffffffff16021790555050505050565b61344c8383613871565b61346061345761299f565b5f858585612ec6565b505050565b613470838383613964565b613523575f73ffffffffffffffffffffffffffffffffffffffff168373ffffffffffffffffffffffffffffffffffffffff16036134e457806040517f7e2732890000000000000000000000000000000000000000000000000000000081526004016134db91906141d1565b60405180910390fd5b81816040517f177e802f00000000000000000000000000000000000000000000000000000000815260040161351a929190615e04565b60405180910390fd5b505050565b5f5f5f90507a184f03e93ff9f4daa797ed6e38ed64bf6a1f0100000000000000008310613584577a184f03e93ff9f4daa797ed6e38ed64bf6a1f010000000000000000838161357a57613579615dd7565b5b0492506040810190505b6d04ee2d6d415b85acef810000000083106135c1576d04ee2d6d415b85acef810000000083816135b7576135b6615dd7565b5b0492506020810190505b662386f26fc1000083106135f057662386f26fc1000083816135e6576135e5615dd7565b5b0492506010810190505b6305f5e1008310613619576305f5e100838161360f5761360e615dd7565b5b0492506008810190505b612710831061363e57612710838161363457613633615dd7565b5b0492506004810190505b60648310613661576064838161365757613656615dd7565b5b0492506002810190505b600a8310613670576001810190505b80915050919050565b60605f8451036136995760405180602001604052805f8152509050613801565b5f826136ca5760036002865160046136b19190615e2b565b6136bb9190614a1e565b6136c59190615e6c565b6136f1565b6003600286516136da9190614a1e565b6136e49190615e6c565b60046136f09190615e2b565b5b90505f8167ffffffffffffffff81111561370e5761370d613dc8565b5b6040519080825280601f01601f1916602001820160405280156137405781602001600182028036833780820191505090505b509050600185016020820187885189016020810180515f82525b828410156137b5576003840193508351603f8160121c168701518653600186019550603f81600c1c168701518653600186019550603f8160061c168701518653600186019550603f811687015186536001860195505061375a565b80825289156137f55760038c5106600181146137d857600281146137eb576137f3565b603d6001870353603d60028703536137f3565b603d60018703535b505b50505050505080925050505b9392505050565b5f7f01ffc9a7000000000000000000000000000000000000000000000000000000007bffffffffffffffffffffffffffffffffffffffffffffffffffffffff1916827bffffffffffffffffffffffffffffffffffffffffffffffffffffffff1916149050919050565b5f73ffffffffffffffffffffffffffffffffffffffff168273ffffffffffffffffffffffffffffffffffffffff16036138e1575f6040517f64a0ae920000000000000000000000000000000000000000000000000000000081526004016138d89190613d43565b60405180910390fd5b5f6138ed83835f612a0d565b90505f73ffffffffffffffffffffffffffffffffffffffff168173ffffffffffffffffffffffffffffffffffffffff161461395f575f6040517f73c6ac6e0000000000000000000000000000000000000000000000000000000081526004016139569190613d43565b60405180910390fd5b505050565b5f5f73ffffffffffffffffffffffffffffffffffffffff168373ffffffffffffffffffffffffffffffffffffffff1614158015613a1b57508273ffffffffffffffffffffffffffffffffffffffff168473ffffffffffffffffffffffffffffffffffffffff1614806139dc57506139db848461269a565b5b80613a1a57508273ffffffffffffffffffffffffffffffffffffffff16613a0283612966565b73ffffffffffffffffffffffffffffffffffffffff16145b5b90509392505050565b828054828255905f5260205f20908101928215613a6a579160200282015b82811115613a69578251829081613a599190614bf1565b5091602001919060010190613a42565b5b509050613a779190613ad6565b5090565b508054613a8790614718565b5f825580601f10613a985750613ab5565b601f0160209004905f5260205f2090810190613ab49190613af9565b5b50565b5080545f8255905f5260205f2090810190613ad39190613ad6565b50565b5b80821115613af5575f8181613aec9190613a7b565b50600101613ad7565b5090565b5b80821115613b10575f815f905550600101613afa565b5090565b5f604051905090565b5f5ffd5b5f5ffd5b5f7fffffffff0000000000000000000000000000000000000000000000000000000082169050919050565b613b5981613b25565b8114613b63575f5ffd5b50565b5f81359050613b7481613b50565b92915050565b5f60208284031215613b8f57613b8e613b1d565b5b5f613b9c84828501613b66565b91505092915050565b5f8115159050919050565b613bb981613ba5565b82525050565b5f602082019050613bd25f830184613bb0565b92915050565b5f819050919050565b613bea81613bd8565b8114613bf4575f5ffd5b50565b5f81359050613c0581613be1565b92915050565b5f60208284031215613c2057613c1f613b1d565b5b5f613c2d84828501613bf7565b91505092915050565b5f5f60408385031215613c4c57613c4b613b1d565b5b5f613c5985828601613bf7565b9250506020613c6a85828601613bf7565b9150509250929050565b5f81519050919050565b5f82825260208201905092915050565b8281835e5f83830152505050565b5f601f19601f8301169050919050565b5f613cb682613c74565b613cc08185613c7e565b9350613cd0818560208601613c8e565b613cd981613c9c565b840191505092915050565b5f6020820190508181035f830152613cfc8184613cac565b905092915050565b5f73ffffffffffffffffffffffffffffffffffffffff82169050919050565b5f613d2d82613d04565b9050919050565b613d3d81613d23565b82525050565b5f602082019050613d565f830184613d34565b92915050565b613d6581613d23565b8114613d6f575f5ffd5b50565b5f81359050613d8081613d5c565b92915050565b5f5f60408385031215613d9c57613d9b613b1d565b5b5f613da985828601613d72565b9250506020613dba85828601613bf7565b9150509250929050565b5f5ffd5b7f4e487b71000000000000000000000000000000000000000000000000000000005f52604160045260245ffd5b613dfe82613c9c565b810181811067ffffffffffffffff82111715613e1d57613e1c613dc8565b5b80604052505050565b5f613e2f613b14565b9050613e3b8282613df5565b919050565b5f67ffffffffffffffff821115613e5a57613e59613dc8565b5b602082029050602081019050919050565b5f5ffd5b5f5ffd5b5f67ffffffffffffffff821115613e8d57613e8c613dc8565b5b613e9682613c9c565b9050602081019050919050565b828183375f83830152505050565b5f613ec3613ebe84613e73565b613e26565b905082815260208101848484011115613edf57613ede613e6f565b5b613eea848285613ea3565b509392505050565b5f82601f830112613f0657613f05613dc4565b5b8135613f16848260208601613eb1565b91505092915050565b5f613f31613f2c84613e40565b613e26565b90508083825260208201905060208402830185811115613f5457613f53613e6b565b5b835b81811015613f9b57803567ffffffffffffffff811115613f7957613f78613dc4565b5b808601613f868982613ef2565b85526020850194505050602081019050613f56565b5050509392505050565b5f82601f830112613fb957613fb8613dc4565b5b8135613fc9848260208601613f1f565b91505092915050565b5f60ff82169050919050565b613fe781613fd2565b8114613ff1575f5ffd5b50565b5f8135905061400281613fde565b92915050565b5f5f5f5f5f5f5f5f5f5f6101408b8d03121561402757614026613b1d565b5b5f8b013567ffffffffffffffff81111561404457614043613b21565b5b6140508d828e01613fa5565b9a505060206140618d828e01613bf7565b99505060408b013567ffffffffffffffff81111561408257614081613b21565b5b61408e8d828e01613ef2565b98505060608b013567ffffffffffffffff8111156140af576140ae613b21565b5b6140bb8d828e01613ef2565b97505060808b013567ffffffffffffffff8111156140dc576140db613b21565b5b6140e88d828e01613ef2565b96505060a08b013567ffffffffffffffff81111561410957614108613b21565b5b6141158d828e01613ef2565b95505060c06141268d828e01613ff4565b94505060e06141378d828e01613ff4565b9350506101006141498d828e01613bf7565b92505061012061415b8d828e01613bf7565b9150509295989b9194979a5092959850565b61417681613ba5565b8114614180575f5ffd5b50565b5f813590506141918161416d565b92915050565b5f602082840312156141ac576141ab613b1d565b5b5f6141b984828501614183565b91505092915050565b6141cb81613bd8565b82525050565b5f6020820190506141e45f8301846141c2565b92915050565b5f5f5f6060848603121561420157614200613b1d565b5b5f61420e86828701613d72565b935050602061421f86828701613d72565b925050604061423086828701613bf7565b9150509250925092565b5f60408201905061424d5f8301856141c2565b61425a60208301846141c2565b9392505050565b5f5f5f6060848603121561427857614277613b1d565b5b5f61428586828701613d72565b935050602061429686828701613d72565b92505060406142a786828701613d72565b9150509250925092565b5f5f604083850312156142c7576142c6613b1d565b5b5f6142d485828601613ff4565b92505060206142e585828601613bf7565b9150509250929050565b5f6020828403121561430457614303613b1d565b5b5f61431184828501613d72565b91505092915050565b5f6020828403121561432f5761432e613b1d565b5b5f61433c84828501613ff4565b91505092915050565b61434e81613fd2565b82525050565b5f610140820190506143685f83018d6141c2565b818103602083015261437a818c613cac565b9050818103604083015261438e818b613cac565b905081810360608301526143a2818a613cac565b90506143b16080830189614345565b6143be60a08301886141c2565b81810360c08301526143d08187613cac565b90506143df60e0830186614345565b6143ed6101008301856141c2565b6143fb6101208301846141c2565b9b9a5050505050505050505050565b5f5f604083850312156144205761441f613b1d565b5b5f61442d85828601613d72565b925050602061443e85828601614183565b9150509250929050565b5f67ffffffffffffffff82111561446257614461613dc8565b5b61446b82613c9c565b9050602081019050919050565b5f61448a61448584614448565b613e26565b9050828152602081018484840111156144a6576144a5613e6f565b5b6144b1848285613ea3565b509392505050565b5f82601f8301126144cd576144cc613dc4565b5b81356144dd848260208601614478565b91505092915050565b5f5f5f5f608085870312156144fe576144fd613b1d565b5b5f61450b87828801613d72565b945050602061451c87828801613d72565b935050604061452d87828801613bf7565b925050606085013567ffffffffffffffff81111561454e5761454d613b21565b5b61455a878288016144b9565b91505092959194509250565b5f819050919050565b61457881614566565b8114614582575f5ffd5b50565b5f813590506145938161456f565b92915050565b5f602082840312156145ae576145ad613b1d565b5b5f6145bb84828501614585565b91505092915050565b5f6020820190506145d75f830184614345565b92915050565b5f5f604083850312156145f3576145f2613b1d565b5b5f61460085828601613d72565b925050602061461185828601613d72565b9150509250929050565b7f4e6f74206f776e657200000000000000000000000000000000000000000000005f82015250565b5f61464f600983613c7e565b915061465a8261461b565b602082019050919050565b5f6020820190508181035f83015261467c81614643565b9050919050565b7f496e73756666696369656e74207061796d656e740000000000000000000000005f82015250565b5f6146b7601483613c7e565b91506146c282614683565b602082019050919050565b5f6020820190508181035f8301526146e4816146ab565b9050919050565b7f4e487b71000000000000000000000000000000000000000000000000000000005f52602260045260245ffd5b5f600282049050600182168061472f57607f821691505b602082108103614742576147416146eb565b5b50919050565b7f436f6e74726163742069732070617573656400000000000000000000000000005f82015250565b5f61477c601283613c7e565b915061478782614748565b602082019050919050565b5f6020820190508181035f8301526147a981614770565b9050919050565b7f4d617820737570706c79207265616368656400000000000000000000000000005f82015250565b5f6147e4601283613c7e565b91506147ef826147b0565b602082019050919050565b5f6020820190508181035f830152614811816147d8565b9050919050565b7f496e76616c69642074657874206c656e677468000000000000000000000000005f82015250565b5f61484c601383613c7e565b915061485782614818565b602082019050919050565b5f6020820190508181035f83015261487981614840565b9050919050565b7f496e76616c6964207761727020746869636b6e657373000000000000000000005f82015250565b5f6148b4601683613c7e565b91506148bf82614880565b602082019050919050565b5f6020820190508181035f8301526148e1816148a8565b9050919050565b5f819050919050565b6149026148fd82613bd8565b6148e8565b82525050565b5f8160601b9050919050565b5f61491e82614908565b9050919050565b5f61492f82614914565b9050919050565b61494761494282613d23565b614925565b82525050565b5f61495882866148f1565b60208201915061496882856148f1565b6020820191506149788284614936565b601482019150819050949350505050565b7f5465787420616c7265616479207573656420696e20636f6c6c656374696f6e005f82015250565b5f6149bd601f83613c7e565b91506149c882614989565b602082019050919050565b5f6020820190508181035f8301526149ea816149b1565b9050919050565b7f4e487b71000000000000000000000000000000000000000000000000000000005f52601160045260245ffd5b5f614a2882613bd8565b9150614a3383613bd8565b9250828201905080821115614a4b57614a4a6149f1565b5b92915050565b5f819050815f5260205f209050919050565b5f6020601f8301049050919050565b5f82821b905092915050565b5f60088302614aad7fffffffffffffffffffffffffffffffffffffffffffffffffffffffffffffffff82614a72565b614ab78683614a72565b95508019841693508086168417925050509392505050565b5f819050919050565b5f614af2614aed614ae884613bd8565b614acf565b613bd8565b9050919050565b5f819050919050565b614b0b83614ad8565b614b1f614b1782614af9565b848454614a7e565b825550505050565b5f5f905090565b614b36614b27565b614b41818484614b02565b505050565b5b81811015614b6457614b595f82614b2e565b600181019050614b47565b5050565b601f821115614ba957614b7a81614a51565b614b8384614a63565b81016020851015614b92578190505b614ba6614b9e85614a63565b830182614b46565b50505b505050565b5f82821c905092915050565b5f614bc95f1984600802614bae565b1980831691505092915050565b5f614be18383614bba565b9150826002028217905092915050565b614bfa82613c74565b67ffffffffffffffff811115614c1357614c12613dc8565b5b614c1d8254614718565b614c28828285614b68565b5f60209050601f831160018114614c59575f8415614c47578287015190505b614c518582614bd6565b865550614cb8565b601f198416614c6786614a51565b5f5b82811015614c8e57848901518255600182019150602085019450602081019050614c69565b86831015614cab5784890151614ca7601f891682614bba565b8355505b6001600288020188555050505b505050505050565b5f614cca82613bd8565b91507fffffffffffffffffffffffffffffffffffffffffffffffffffffffffffffffff8203614cfc57614cfb6149f1565b5b600182019050919050565b5f81519050919050565b5f82825260208201905092915050565b5f819050602082019050919050565b5f82825260208201905092915050565b5f614d4a82613c74565b614d548185614d30565b9350614d64818560208601613c8e565b614d6d81613c9c565b840191505092915050565b5f614d838383614d40565b905092915050565b5f602082019050919050565b5f614da182614d07565b614dab8185614d11565b935083602082028501614dbd85614d21565b805f5b85811015614df85784840389528151614dd98582614d78565b9450614de483614d8b565b925060208a01995050600181019050614dc0565b50829750879550505050505092915050565b5f6040820190508181035f830152614e228185614d97565b9050614e3160208301846141c2565b9392505050565b5f606082019050614e4b5f830186613d34565b614e5860208301856141c2565b614e656040830184613d34565b949350505050565b7f66756c6c4c61756e646572696e67436f737400000000000000000000000000005f82015250565b5f614ea1601283613c7e565b9150614eac82614e6d565b602082019050919050565b5f6060820190508181035f830152614ece81614e95565b9050614edd60208301856141c2565b614eea60408301846141c2565b9392505050565b7f416c726561647920636c65616e000000000000000000000000000000000000005f82015250565b5f614f25600d83613c7e565b9150614f3082614ef1565b602082019050919050565b5f6020820190508181035f830152614f5281614f19565b9050919050565b5f604082019050614f6c5f8301856141c2565b614f796020830184614345565b9392505050565b7f726f79616c747950657263656e746167650000000000000000000000000000005f82015250565b5f614fb4601183613c7e565b9150614fbf82614f80565b602082019050919050565b5f6060820190508181035f830152614fe181614fa8565b9050614ff060208301856141c2565b614ffd60408301846141c2565b9392505050565b7f6c6576656c31436c65616e696e67436f737400000000000000000000000000005f82015250565b5f615038601283613c7e565b915061504382615004565b602082019050919050565b5f6060820190508181035f8301526150658161502c565b905061507460208301856141c2565b61508160408301846141c2565b9392505050565b7f6c6576656c32436c65616e696e67436f737400000000000000000000000000005f82015250565b5f6150bc601283613c7e565b91506150c782615088565b602082019050919050565b5f6060820190508181035f8301526150e9816150b0565b90506150f860208301856141c2565b61510560408301846141c2565b9392505050565b7f53616c65207072696365206d75737420626520686967686572000000000000005f82015250565b5f615140601983613c7e565b915061514b8261510c565b602082019050919050565b5f6020820190508181035f83015261516d81615134565b9050919050565b5f819050919050565b5f61519761519261518d84615174565b614acf565b613bd8565b9050919050565b6151a78161517d565b82525050565b5f6020820190506151c05f83018461519e565b92915050565b7f546f6b656e20646f6573206e6f742065786973740000000000000000000000005f82015250565b5f6151fa601483613c7e565b9150615205826151c6565b602082019050919050565b5f6020820190508181035f830152615227816151ee565b9050919050565b7f527567536372697074794275696c646572206e6f7420636f6e666967757265645f82015250565b5f615262602083613c7e565b915061526d8261522e565b602082019050919050565b5f6020820190508181035f83015261528f81615256565b9050919050565b7f527567457468465353746f72616765206e6f7420636f6e6669677572656400005f82015250565b5f6152ca601e83613c7e565b91506152d582615296565b602082019050919050565b5f6020820190508181035f8301526152f7816152be565b9050919050565b7f4f6e636861696e5275677348544d4c47656e657261746f72206e6f7420636f6e5f8201527f6669677572656400000000000000000000000000000000000000000000000000602082015250565b5f615358602783613c7e565b9150615363826152fe565b604082019050919050565b5f6020820190508181035f8301526153858161534c565b9050919050565b61539581613bd8565b82525050565b5f82825260208201905092915050565b5f6153b582614d07565b6153bf818561539b565b9350836020820285016153d185614d21565b805f5b8581101561540c57848403895281516153ed8582614d78565b94506153f883614d8b565b925060208a019950506001810190506153d4565b50829750879550505050505092915050565b61542781613fd2565b82525050565b5f61016083015f8301516154435f86018261538c565b506020830151848203602086015261545b8282614d40565b915050604083015184820360408601526154758282614d40565b9150506060830151848203606086015261548f8282614d40565b915050608083015184820360808601526154a982826153ab565b91505060a08301516154be60a086018261541e565b5060c08301516154d160c086018261538c565b5060e083015184820360e08601526154e98282614d40565b91505061010083015161550061010086018261541e565b5061012083015161551561012086018261538c565b5061014083015161552a61014086018261538c565b508091505092915050565b5f6020820190508181035f83015261554d818461542d565b905092915050565b5f81519050919050565b5f82825260208201905092915050565b5f61557982615555565b615583818561555f565b9350615593818560208601613c8e565b61559c81613c9c565b840191505092915050565b5f6080820190508181035f8301526155bf818761556f565b90506155ce60208301866141c2565b6155db6040830185613d34565b6155e86060830184613d34565b95945050505050565b5f6156036155fe84613e73565b613e26565b90508281526020810184848401111561561f5761561e613e6f565b5b61562a848285613c8e565b509392505050565b5f82601f83011261564657615645613dc4565b5b81516156568482602086016155f1565b91505092915050565b5f6020828403121561567457615673613b1d565b5b5f82015167ffffffffffffffff81111561569157615690613b21565b5b61569d84828501615632565b91505092915050565b5f81905092915050565b7f7b226e616d65223a224f6e636861696e527567202300000000000000000000005f82015250565b5f6156e46015836156a6565b91506156ef826156b0565b601582019050919050565b5f61570482613c74565b61570e81856156a6565b935061571e818560208601613c8e565b80840191505092915050565b7f222c226465736372697074696f6e223a224f6e636861696e52756773206279205f8201527f76616c69706f6b6b616e6e222c22696d616765223a2268747470733a2f2f6f6e60208201527f636861696e727567732e78797a2f6c6f676f2e706e67222c22616e696d61746960408201527f6f6e5f75726c223a220000000000000000000000000000000000000000000000606082015250565b5f6157d06069836156a6565b91506157db8261572a565b606982019050919050565b7f222c2261747472696275746573223a5b7b2274726169745f74797065223a22545f8201527f657874204c696e6573222c2276616c7565223a22000000000000000000000000602082015250565b5f6158406034836156a6565b915061584b826157e6565b603482019050919050565b7f227d2c7b2274726169745f74797065223a2243686172616374657220436f756e5f8201527f74222c2276616c7565223a220000000000000000000000000000000000000000602082015250565b5f6158b0602c836156a6565b91506158bb82615856565b602c82019050919050565b7f227d2c7b2274726169745f74797065223a2250616c65747465204e616d65222c5f8201527f2276616c7565223a220000000000000000000000000000000000000000000000602082015250565b5f6159206029836156a6565b915061592b826158c6565b602982019050919050565b7f227d2c7b2274726169745f74797065223a2253747269706520436f756e74222c5f8201527f2276616c7565223a220000000000000000000000000000000000000000000000602082015250565b5f6159906029836156a6565b915061599b82615936565b602982019050919050565b7f227d2c7b2274726169745f74797065223a22436f6d706c6578697479222c22765f8201527f616c7565223a2200000000000000000000000000000000000000000000000000602082015250565b5f615a006027836156a6565b9150615a0b826159a6565b602782019050919050565b7f227d2c7b2274726169745f74797065223a225761727020546869636b6e6573735f8201527f222c2276616c7565223a22000000000000000000000000000000000000000000602082015250565b5f615a70602b836156a6565b9150615a7b82615a16565b602b82019050919050565b7f227d2c7b2274726169745f74797065223a2244697274204c6576656c222c22765f8201527f616c7565223a2200000000000000000000000000000000000000000000000000602082015250565b5f615ae06027836156a6565b9150615aeb82615a86565b602782019050919050565b7f227d5d7d000000000000000000000000000000000000000000000000000000005f82015250565b5f615b2a6004836156a6565b9150615b3582615af6565b600482019050919050565b5f615b4a826156d8565b9150615b56828c6156fa565b9150615b61826157c4565b9150615b6d828b6156fa565b9150615b7882615834565b9150615b84828a6156fa565b9150615b8f826158a4565b9150615b9b82896156fa565b9150615ba682615914565b9150615bb282886156fa565b9150615bbd82615984565b9150615bc982876156fa565b9150615bd4826159f4565b9150615be082866156fa565b9150615beb82615a64565b9150615bf782856156fa565b9150615c0282615ad4565b9150615c0e82846156fa565b9150615c1982615b1e565b91508190509a9950505050505050505050565b7f646174613a6170706c69636174696f6e2f6a736f6e3b6261736536342c000000815250565b5f615c5c82615c2c565b601d82019150615c6c82846156fa565b915081905092915050565b5f615c8182613bd8565b9150615c8c83613bd8565b9250828203905081811115615ca457615ca36149f1565b5b92915050565b7f62617365507269636500000000000000000000000000000000000000000000005f82015250565b5f615cde600983613c7e565b9150615ce982615caa565b602082019050919050565b5f6060820190508181035f830152615d0b81615cd2565b9050615d1a60208301856141c2565b615d2760408301846141c2565b9392505050565b5f6020820190508181035f830152615d468184614d97565b905092915050565b5f608082019050615d615f830187613d34565b615d6e6020830186613d34565b615d7b60408301856141c2565b8181036060830152615d8d818461556f565b905095945050505050565b5f81519050615da681613b50565b92915050565b5f60208284031215615dc157615dc0613b1d565b5b5f615dce84828501615d98565b91505092915050565b7f4e487b71000000000000000000000000000000000000000000000000000000005f52601260045260245ffd5b5f604082019050615e175f830185613d34565b615e2460208301846141c2565b9392505050565b5f615e3582613bd8565b9150615e4083613bd8565b9250828202615e4e81613bd8565b91508282048414831517615e6557615e646149f1565b5b5092915050565b5f615e7682613bd8565b9150615e8183613bd8565b925082615e9157615e90615dd7565b5b82820490509291505056fe4142434445464748494a4b4c4d4e4f505152535455565758595a6162636465666768696a6b6c6d6e6f707172737475767778797a303132333435363738392b2fa2646970667358221220ac32a82877e44742adeed8ebe18c03b99b29e1f314556d2303e764cb011376f364736f6c634300081e0033","linkReferences":{}},"methodIdentifiers":{"MAX_SUPPLY()":"32cb6b0c","agingData(uint256)":"30e80234","approve(address,uint256)":"095ea7b3","balanceOf(address)":"70a08231","basePrice()":"c7876ea4","burn(uint256)":"42966c68","calculateAgingState(uint256)":"e0052a12","cleanRug(uint256)":"4f44b188","dirtLevel1Days()":"e73a7825","dirtLevel2Days()":"276f2e0e","fullLaunderingCost()":"3dcf810f","getApproved(uint256)":"081812fc","getCleaningCost(uint8)":"8fb96141","getMintPrice(uint256)":"559e775b","isApprovedForAll(address,address)":"e985e9c5","launderOnSale(uint256)":"c3034cdd","launderRug(uint256)":"020c0433","level1CleaningCost()":"2d1ec8fd","level2CleaningCost()":"ad12c05c","maxSupply()":"d5abeb01","mintRug(string[],uint256,string,string,string,string,uint8,uint8,uint256,uint256)":"0f495d0c","name()":"06fdde03","onchainRugsHTMLGenerator()":"a58b0a72","owner()":"8da5cb5b","ownerOf(uint256)":"6352211e","paused()":"5c975abb","renounceOwnership()":"715018a6","royaltyPercentage()":"8a71bb2d","rugEthFSStorage()":"e4f9f43a","rugScriptyBuilder()":"2fa22401","rugs(uint256)":"9a3cff76","safeTransferFrom(address,address,uint256)":"42842e0e","safeTransferFrom(address,address,uint256,bytes)":"b88d4fde","setApprovalForAll(address,bool)":"a22cb465","setPaused(bool)":"16c38b3c","setRugScriptyContracts(address,address,address)":"46b13edc","supportsInterface(bytes4)":"01ffc9a7","symbol()":"95d89b41","tokenURI(uint256)":"c87b56dd","totalSupply()":"18160ddd","transferFrom(address,address,uint256)":"23b872dd","transferOwnership(address)":"f2fde38b","updateAgingThresholds(uint256,uint256)":"04f049ad","updateBasePrice(uint256)":"fd5baa88","updateCleaningCost(uint8,uint256)":"665db583","updateLaunderingCost(uint256)":"3b3eda81","updateRoyaltyPercentage(uint256)":"621bb669","usedTextHashes(bytes32)":"ba195263"},"id":41}