{"abi":[{"type":"function","name":"BODY_OPEN_RAW","inputs":[],"outputs":[{"name":"","type":"bytes","internalType":"bytes"}],"stateMutability":"view"},{"type":"function","name":"BODY_OPEN_URL_SAFE","inputs":[],"outputs":[{"name":"","type":"bytes","internalType":"bytes"}],"stateMutability":"view"},{"type":"function","name":"BODY_RAW_BYTES","inputs":[],"outputs":[{"name":"","type":"uint256","internalType":"uint256"}],"stateMutability":"view"},{"type":"function","name":"BODY_SAFE_BYTES","inputs":[],"outputs":[{"name":"","type":"uint256","internalType":"uint256"}],"stateMutability":"view"},{"type":"function","name":"DATA_HTML_BASE64_URI_RAW","inputs":[],"outputs":[{"name":"","type":"bytes","internalType":"bytes"}],"stateMutability":"view"},{"type":"function","name":"DATA_HTML_URL_SAFE","inputs":[],"outputs":[{"name":"","type":"bytes","internalType":"bytes"}],"stateMutability":"view"},{"type":"function","name":"HEAD_CLOSE_RAW","inputs":[],"outputs":[{"name":"","type":"bytes","internalType":"bytes"}],"stateMutability":"view"},{"type":"function","name":"HEAD_CLOSE_URL_SAFE","inputs":[],"outputs":[{"name":"","type":"bytes","internalType":"bytes"}],"stateMutability":"view"},{"type":"function","name":"HEAD_OPEN_RAW","inputs":[],"outputs":[{"name":"","type":"bytes","internalType":"bytes"}],"stateMutability":"view"},{"type":"function","name":"HEAD_OPEN_URL_SAFE","inputs":[],"outputs":[{"name":"","type":"bytes","internalType":"bytes"}],"stateMutability":"view"},{"type":"function","name":"HEAD_RAW_BYTES","inputs":[],"outputs":[{"name":"","type":"uint256","internalType":"uint256"}],"stateMutability":"view"},{"type":"function","name":"HEAD_URL_SAFE_BYTES","inputs":[],"outputs":[{"name":"","type":"uint256","internalType":"uint256"}],"stateMutability":"view"},{"type":"function","name":"HTML_BASE64_DATA_URI_BYTES","inputs":[],"outputs":[{"name":"","type":"uint256","internalType":"uint256"}],"stateMutability":"view"},{"type":"function","name":"HTML_BODY_CLOSED_RAW","inputs":[],"outputs":[{"name":"","type":"bytes","internalType":"bytes"}],"stateMutability":"view"},{"type":"function","name":"HTML_BODY_CLOSED_URL_SAFE","inputs":[],"outputs":[{"name":"","type":"bytes","internalType":"bytes"}],"stateMutability":"view"},{"type":"function","name":"HTML_OPEN_RAW","inputs":[],"outputs":[{"name":"","type":"bytes","internalType":"bytes"}],"stateMutability":"view"},{"type":"function","name":"HTML_OPEN_URL_SAFE","inputs":[],"outputs":[{"name":"","type":"bytes","internalType":"bytes"}],"stateMutability":"view"},{"type":"function","name":"HTML_RAW_BYTES","inputs":[],"outputs":[{"name":"","type":"uint256","internalType":"uint256"}],"stateMutability":"view"},{"type":"function","name":"HTML_URL_SAFE_BYTES","inputs":[],"outputs":[{"name":"","type":"uint256","internalType":"uint256"}],"stateMutability":"view"},{"type":"function","name":"RAW_BYTES","inputs":[],"outputs":[{"name":"","type":"uint256","internalType":"uint256"}],"stateMutability":"view"},{"type":"function","name":"URLS_RAW_BYTES","inputs":[],"outputs":[{"name":"","type":"uint256","internalType":"uint256"}],"stateMutability":"view"},{"type":"function","name":"URLS_SAFE_BYTES","inputs":[],"outputs":[{"name":"","type":"uint256","internalType":"uint256"}],"stateMutability":"view"},{"type":"function","name":"URL_SAFE_BYTES","inputs":[],"outputs":[{"name":"","type":"uint256","internalType":"uint256"}],"stateMutability":"view"},{"type":"function","name":"fetchTagContent","inputs":[{"name":"htmlTag","type":"tuple","internalType":"struct HTMLTag","components":[{"name":"name","type":"string","internalType":"string"},{"name":"contractAddress","type":"address","internalType":"address"},{"name":"contractData","type":"bytes","internalType":"bytes"},{"name":"tagType","type":"uint8","internalType":"enum HTMLTagType"},{"name":"tagOpen","type":"bytes","internalType":"bytes"},{"name":"tagClose","type":"bytes","internalType":"bytes"},{"name":"tagContent","type":"bytes","internalType":"bytes"}]}],"outputs":[{"name":"","type":"bytes","internalType":"bytes"}],"stateMutability":"view"},{"type":"function","name":"getEncodedHTML","inputs":[{"name":"htmlRequest","type":"tuple","internalType":"struct HTMLRequest","components":[{"name":"headTags","type":"tuple[]","internalType":"struct HTMLTag[]","components":[{"name":"name","type":"string","internalType":"string"},{"name":"contractAddress","type":"address","internalType":"address"},{"name":"contractData","type":"bytes","internalType":"bytes"},{"name":"tagType","type":"uint8","internalType":"enum HTMLTagType"},{"name":"tagOpen","type":"bytes","internalType":"bytes"},{"name":"tagClose","type":"bytes","internalType":"bytes"},{"name":"tagContent","type":"bytes","internalType":"bytes"}]},{"name":"bodyTags","type":"tuple[]","internalType":"struct HTMLTag[]","components":[{"name":"name","type":"string","internalType":"string"},{"name":"contractAddress","type":"address","internalType":"address"},{"name":"contractData","type":"bytes","internalType":"bytes"},{"name":"tagType","type":"uint8","internalType":"enum HTMLTagType"},{"name":"tagOpen","type":"bytes","internalType":"bytes"},{"name":"tagClose","type":"bytes","internalType":"bytes"},{"name":"tagContent","type":"bytes","internalType":"bytes"}]}]}],"outputs":[{"name":"","type":"bytes","internalType":"bytes"}],"stateMutability":"view"},{"type":"function","name":"getEncodedHTMLString","inputs":[{"name":"htmlRequest","type":"tuple","internalType":"struct HTMLRequest","components":[{"name":"headTags","type":"tuple[]","internalType":"struct HTMLTag[]","components":[{"name":"name","type":"string","internalType":"string"},{"name":"contractAddress","type":"address","internalType":"address"},{"name":"contractData","type":"bytes","internalType":"bytes"},{"name":"tagType","type":"uint8","internalType":"enum HTMLTagType"},{"name":"tagOpen","type":"bytes","internalType":"bytes"},{"name":"tagClose","type":"bytes","internalType":"bytes"},{"name":"tagContent","type":"bytes","internalType":"bytes"}]},{"name":"bodyTags","type":"tuple[]","internalType":"struct HTMLTag[]","components":[{"name":"name","type":"string","internalType":"string"},{"name":"contractAddress","type":"address","internalType":"address"},{"name":"contractData","type":"bytes","internalType":"bytes"},{"name":"tagType","type":"uint8","internalType":"enum HTMLTagType"},{"name":"tagOpen","type":"bytes","internalType":"bytes"},{"name":"tagClose","type":"bytes","internalType":"bytes"},{"name":"tagContent","type":"bytes","internalType":"bytes"}]}]}],"outputs":[{"name":"","type":"string","internalType":"string"}],"stateMutability":"view"},{"type":"function","name":"getHTML","inputs":[{"name":"htmlRequest","type":"tuple","internalType":"struct HTMLRequest","components":[{"name":"headTags","type":"tuple[]","internalType":"struct HTMLTag[]","components":[{"name":"name","type":"string","internalType":"string"},{"name":"contractAddress","type":"address","internalType":"address"},{"name":"contractData","type":"bytes","internalType":"bytes"},{"name":"tagType","type":"uint8","internalType":"enum HTMLTagType"},{"name":"tagOpen","type":"bytes","internalType":"bytes"},{"name":"tagClose","type":"bytes","internalType":"bytes"},{"name":"tagContent","type":"bytes","internalType":"bytes"}]},{"name":"bodyTags","type":"tuple[]","internalType":"struct HTMLTag[]","components":[{"name":"name","type":"string","internalType":"string"},{"name":"contractAddress","type":"address","internalType":"address"},{"name":"contractData","type":"bytes","internalType":"bytes"},{"name":"tagType","type":"uint8","internalType":"enum HTMLTagType"},{"name":"tagOpen","type":"bytes","internalType":"bytes"},{"name":"tagClose","type":"bytes","internalType":"bytes"},{"name":"tagContent","type":"bytes","internalType":"bytes"}]}]}],"outputs":[{"name":"","type":"bytes","internalType":"bytes"}],"stateMutability":"view"},{"type":"function","name":"getHTMLString","inputs":[{"name":"htmlRequest","type":"tuple","internalType":"struct HTMLRequest","components":[{"name":"headTags","type":"tuple[]","internalType":"struct HTMLTag[]","components":[{"name":"name","type":"string","internalType":"string"},{"name":"contractAddress","type":"address","internalType":"address"},{"name":"contractData","type":"bytes","internalType":"bytes"},{"name":"tagType","type":"uint8","internalType":"enum HTMLTagType"},{"name":"tagOpen","type":"bytes","internalType":"bytes"},{"name":"tagClose","type":"bytes","internalType":"bytes"},{"name":"tagContent","type":"bytes","internalType":"bytes"}]},{"name":"bodyTags","type":"tuple[]","internalType":"struct HTMLTag[]","components":[{"name":"name","type":"string","internalType":"string"},{"name":"contractAddress","type":"address","internalType":"address"},{"name":"contractData","type":"bytes","internalType":"bytes"},{"name":"tagType","type":"uint8","internalType":"enum HTMLTagType"},{"name":"tagOpen","type":"bytes","internalType":"bytes"},{"name":"tagClose","type":"bytes","internalType":"bytes"},{"name":"tagContent","type":"bytes","internalType":"bytes"}]}]}],"outputs":[{"name":"","type":"string","internalType":"string"}],"stateMutability":"view"},{"type":"function","name":"sizeForBase64Encoding","inputs":[{"name":"value","type":"uint256","internalType":"uint256"}],"outputs":[{"name":"","type":"uint256","internalType":"uint256"}],"stateMutability":"pure"},{"type":"function","name":"tagOpenCloseForHTMLTag","inputs":[{"name":"htmlTag","type":"tuple","internalType":"struct HTMLTag","components":[{"name":"name","type":"string","internalType":"string"},{"name":"contractAddress","type":"address","internalType":"address"},{"name":"contractData","type":"bytes","internalType":"bytes"},{"name":"tagType","type":"uint8","internalType":"enum HTMLTagType"},{"name":"tagOpen","type":"bytes","internalType":"bytes"},{"name":"tagClose","type":"bytes","internalType":"bytes"},{"name":"tagContent","type":"bytes","internalType":"bytes"}]}],"outputs":[{"name":"","type":"bytes","internalType":"bytes"},{"name":"","type":"bytes","internalType":"bytes"}],"stateMutability":"pure"},{"type":"function","name":"tagOpenCloseForHTMLTagURLSafe","inputs":[{"name":"htmlTag","type":"tuple","internalType":"struct HTMLTag","components":[{"name":"name","type":"string","internalType":"string"},{"name":"contractAddress","type":"address","internalType":"address"},{"name":"contractData","type":"bytes","internalType":"bytes"},{"name":"tagType","type":"uint8","internalType":"enum HTMLTagType"},{"name":"tagOpen","type":"bytes","internalType":"bytes"},{"name":"tagClose","type":"bytes","internalType":"bytes"},{"name":"tagContent","type":"bytes","internalType":"bytes"}]}],"outputs":[{"name":"","type":"bytes","internalType":"bytes"},{"name":"","type":"bytes","internalType":"bytes"}],"stateMutability":"pure"}],"bytecode":{"object":"0x6080604052348015600e575f5ffd5b506121398061001c5f395ff3fe608060405234801561000f575f5ffd5b50600436106101e3575f3560e01c8063b55ccc621161010d578063ce5ad179116100a0578063d9237f141161006f578063d9237f14146105a3578063f051dcf8146105c1578063f49717ee146105df578063f6130adc146105fd576101e3565b8063ce5ad17914610519578063d0c3efa814610537578063d5ed88ce14610555578063d61974f114610585576101e3565b8063bf35dd0b116100dc578063bf35dd0b1461047c578063c46b294d1461049a578063cd475f26146104b8578063cdea0cef146104e9576101e3565b8063b55ccc6214610404578063bc68962014610422578063be58b0a914610440578063bee84ae31461045e576101e3565b806372617f8a1161018557806387598e521161015457806387598e52146103675780638c8c379614610385578063a891b35e146103b6578063afae76fa146103e6576101e3565b806372617f8a146102cb5780637510ac24146102fb5780637dbb90a2146103195780637f36931914610349576101e3565b80633708be65116101c15780633708be65146102535780633d5be2c21461027157806343f2614f1461028f578063640bab41146102ad576101e3565b8063053f1eb0146101e75780632bee68071461020557806333174f9814610235575b5f5ffd5b6101ef61061b565b6040516101fc91906115d1565b60405180910390f35b61021f600480360381019061021a9190611af5565b610654565b60405161022c91906115d1565b60405180910390f35b61023d6106eb565b60405161024a9190611b54565b60405180910390f35b61025b6106f0565b6040516102689190611b54565b60405180910390f35b6102796106f5565b60405161028691906115d1565b60405180910390f35b61029761072e565b6040516102a491906115d1565b60405180910390f35b6102b5610767565b6040516102c291906115d1565b60405180910390f35b6102e560048036038101906102e09190611b97565b6107a0565b6040516102f29190611b54565b60405180910390f35b6103036107c0565b6040516103109190611b54565b60405180910390f35b610333600480360381019061032e9190611af5565b6107c5565b60405161034091906115d1565b60405180910390f35b6103516109c2565b60405161035e91906115d1565b60405180910390f35b61036f6109fb565b60405161037c9190611b54565b60405180910390f35b61039f600480360381019061039a9190611bc2565b610a00565b6040516103ad929190611c09565b60405180910390f35b6103d060048036038101906103cb9190611af5565b610c53565b6040516103dd9190611c90565b60405180910390f35b6103ee610c65565b6040516103fb9190611b54565b60405180910390f35b61040c610c6a565b6040516104199190611b54565b60405180910390f35b61042a610c6f565b60405161043791906115d1565b60405180910390f35b610448610ca8565b6040516104559190611b54565b60405180910390f35b610466610cad565b6040516104739190611b54565b60405180910390f35b610484610cb2565b6040516104919190611b54565b60405180910390f35b6104a2610cb7565b6040516104af91906115d1565b60405180910390f35b6104d260048036038101906104cd9190611bc2565b610cf0565b6040516104e0929190611c09565b60405180910390f35b61050360048036038101906104fe9190611bc2565b610ed2565b60405161051091906115d1565b60405180910390f35b610521610fa7565b60405161052e91906115d1565b60405180910390f35b61053f610fe0565b60405161054c9190611b54565b60405180910390f35b61056f600480360381019061056a9190611af5565b610fe5565b60405161057c9190611c90565b60405180910390f35b61058d610ff7565b60405161059a91906115d1565b60405180910390f35b6105ab611030565b6040516105b891906115d1565b60405180910390f35b6105c9611069565b6040516105d691906115d1565b60405180910390f35b6105e76110a2565b6040516105f49190611b54565b60405180910390f35b6106056110a7565b60405161061291906115d1565b60405180910390f35b6040518060400160405280601a81526020017f253343253246626f647925334525334325324668746d6c25334500000000000081525081565b60605f610660836107c5565b90505f61066d82516107a0565b90506016810190505f61067f826110e0565b90506106c96040518060400160405280601681526020017f646174613a746578742f68746d6c3b6261736536342c000000000000000000008152508261110990919063ffffffff16565b6106e0835f5f84611122909392919063ffffffff16565b809350505050919050565b600d81565b604581565b6040518060400160405280600781526020017f3c2f686561643e0000000000000000000000000000000000000000000000000081525081565b6040518060400160405280600a81526020017f253343686561642533450000000000000000000000000000000000000000000081525081565b6040518060400160405280600a81526020017f25334368746d6c2533450000000000000000000000000000000000000000000081525081565b5f600360028301816107b5576107b4611cb0565b5b046004029050919050565b601681565b60605f5f835f01515111156107e4576107e1835f01515f61124a565b90505b5f8360200151511115610804576107ff83602001515f61124a565b810190505b5f610816610811836113ef565b6110e0565b90506108606040518060400160405280600681526020017f3c68746d6c3e00000000000000000000000000000000000000000000000000008152508261110990919063ffffffff16565b6108a86040518060400160405280600681526020017f3c686561643e00000000000000000000000000000000000000000000000000008152508261110990919063ffffffff16565b5f845f01515111156108c3576108c281855f01515f6113fe565b5b61090b6040518060400160405280600781526020017f3c2f686561643e000000000000000000000000000000000000000000000000008152508261110990919063ffffffff16565b6109536040518060400160405280600681526020017f3c626f64793e00000000000000000000000000000000000000000000000000008152508261110990919063ffffffff16565b5f84602001515111156109705761096f8185602001515f6113fe565b5b6109b86040518060400160405280600e81526020017f3c2f626f64793e3c2f68746d6c3e0000000000000000000000000000000000008152508261110990919063ffffffff16565b8092505050919050565b6040518060400160405280600a81526020017f253343626f64792533450000000000000000000000000000000000000000000081525081565b602781565b60608060016004811115610a1757610a16611cdd565b5b83606001516004811115610a2e57610a2d611cdd565b5b03610aa8576040518060400160405280600881526020017f3c7363726970743e0000000000000000000000000000000000000000000000008152506040518060400160405280600981526020017f3c2f7363726970743e000000000000000000000000000000000000000000000081525091509150610c4e565b60026004811115610abc57610abb611cdd565b5b83606001516004811115610ad357610ad2611cdd565b5b03610b3057604051806060016040528060298152602001611f10602991396040518060400160405280600b81526020017f223e3c2f7363726970743e00000000000000000000000000000000000000000081525091509150610c4e565b60036004811115610b4457610b43611cdd565b5b83606001516004811115610b5b57610b5a611cdd565b5b03610bb857604051806080016040528060458152602001611f82604591396040518060400160405280600b81526020017f223e3c2f7363726970743e00000000000000000000000000000000000000000081525091509150610c4e565b600480811115610bcb57610bca611cdd565b5b83606001516004811115610be257610be1611cdd565b5b03610c3f576040518060800160405280604481526020016120c0604491396040518060400160405280600b81526020017f223e3c2f7363726970743e00000000000000000000000000000000000000000081525091509150610c4e565b82608001518360a00151915091505b915091565b6060610c5e82610654565b9050919050565b602781565b600d81565b6040518060400160405280600681526020017f3c68746d6c3e000000000000000000000000000000000000000000000000000081525081565b601781565b605a81565b601781565b6040518060400160405280600681526020017f3c686561643e000000000000000000000000000000000000000000000000000081525081565b60608060016004811115610d0757610d06611cdd565b5b83606001516004811115610d1e57610d1d611cdd565b5b1480610d52575060026004811115610d3957610d38611cdd565b5b83606001516004811115610d5057610d4f611cdd565b5b145b15610daf57604051806080016040528060498152602001611f39604991396040518060400160405280601f81526020017f253235323225323533452532353343253235324673637269707425323533450081525091509150610ecd565b60036004811115610dc357610dc2611cdd565b5b83606001516004811115610dda57610dd9611cdd565b5b03610e37576040518060a00160405280607d8152602001611fc7607d91396040518060400160405280601f81526020017f253235323225323533452532353343253235324673637269707425323533450081525091509150610ecd565b600480811115610e4a57610e49611cdd565b5b83606001516004811115610e6157610e60611cdd565b5b03610ebe576040518060a00160405280607c8152602001612044607c91396040518060400160405280601f81526020017f253235323225323533452532353343253235324673637269707425323533450081525091509150610ecd565b82608001518360a00151915091505b915091565b60605f73ffffffffffffffffffffffffffffffffffffffff16826020015173ffffffffffffffffffffffffffffffffffffffff1614610f9a57816020015173ffffffffffffffffffffffffffffffffffffffff16632647c23d835f015184604001516040518363ffffffff1660e01b8152600401610f51929190611d0a565b5f60405180830381865afa158015610f6b573d5f5f3e3d5ffd5b505050506040513d5f823e3d601f19601f82011682018060405250810190610f939190611dad565b9050610fa2565b8160c0015190505b919050565b6040518060400160405280600681526020017f3c626f64793e000000000000000000000000000000000000000000000000000081525081565b600d81565b6060610ff0826107c5565b9050919050565b6040518060400160405280601581526020017f646174612533417465787425324668746d6c253243000000000000000000000081525081565b6040518060400160405280600d81526020017f253343253246686561642533450000000000000000000000000000000000000081525081565b6040518060400160405280600e81526020017f3c2f626f64793e3c2f68746d6c3e00000000000000000000000000000000000081525081565b601781565b6040518060400160405280601681526020017f646174613a746578742f68746d6c3b6261736536342c0000000000000000000081525081565b60606040516060830180820180604052505060408301808252506020810191505f825250919050565b611114828251611439565b61111e828261149e565b5050565b5f835190505f8451036111355750611244565b5f5f6003600284010460021b9150600383069050831561115c576001811481151501820391505b6111668783611439565b6040517f4142434445464748494a4b4c4d4e4f505152535455565758595a616263646566601f526102308615027f6768696a6b6c6d6e6f707172737475767778797a303132333435363738392d5f03603f52875160208901018488015b600115611219576003890198508851603f8160121c16518353603f81600c1c16516001840153603f8160061c16516002840153603f8116516003840153600483019250818a106112135750611219565b506111c3565b8661123357603d841515830353603d6001851460011b8303535b848a51018a52826040525050505050505b50505050565b5f5f83510361125b575f90506113e9565b60608060605f5f875190505f5b61128b89828151811061127e5761127d611df4565b5b6020026020010151610ed2565b9350838982815181106112a1576112a0611df4565b5b602002602001015160c001819052508780156112ff5750600160048111156112cc576112cb611cdd565b5b8982815181106112df576112de611df4565b5b60200260200101516060015160048111156112fd576112fc611cdd565b5b145b156113175761130e84516107a0565b8301925061131e565b8351830192505b87156113545761134789828151811061133a57611339611df4565b5b6020026020010151610cf0565b8096508197505050611380565b61137789828151811061136a57611369611df4565b5b6020026020010151610a00565b80965081975050505b8589828151811061139457611393611df4565b5b602002602001015160800181905250848982815181106113b7576113b6611df4565b5b602002602001015160a00181905250855183019250845183019250818160010191508110611268578296505050505050505b92915050565b5f602790508181019050919050565b5f5b6114258484838151811061141757611416611df4565b5b6020026020010151846114db565b825181600101915081106114005750505050565b5f6114438361154c565b90505f8284516114539190611e4e565b905080821015611498576040517f08c379a000000000000000000000000000000000000000000000000000000000815260040161148f90611ef1565b60405180910390fd5b50505050565b8051602082019150808201602084510184015b818410156114ce57835181526020840193506020810190506114b1565b5050808351018352505050565b6114f282608001518461110990919063ffffffff16565b8015611518576115138260c001515f5f86611122909392919063ffffffff16565b611530565b61152f8260c001518461110990919063ffffffff16565b5b6115478260a001518461110990919063ffffffff16565b505050565b5f5f6040602084035103905080915050919050565b5f81519050919050565b5f82825260208201905092915050565b8281835e5f83830152505050565b5f601f19601f8301169050919050565b5f6115a382611561565b6115ad818561156b565b93506115bd81856020860161157b565b6115c681611589565b840191505092915050565b5f6020820190508181035f8301526115e98184611599565b905092915050565b5f604051905090565b5f5ffd5b5f5ffd5b5f5ffd5b7f4e487b71000000000000000000000000000000000000000000000000000000005f52604160045260245ffd5b61163c82611589565b810181811067ffffffffffffffff8211171561165b5761165a611606565b5b80604052505050565b5f61166d6115f1565b90506116798282611633565b919050565b5f5ffd5b5f5ffd5b5f67ffffffffffffffff8211156116a05761169f611606565b5b602082029050602081019050919050565b5f5ffd5b5f5ffd5b5f67ffffffffffffffff8211156116d3576116d2611606565b5b6116dc82611589565b9050602081019050919050565b828183375f83830152505050565b5f611709611704846116b9565b611664565b905082815260208101848484011115611725576117246116b5565b5b6117308482856116e9565b509392505050565b5f82601f83011261174c5761174b611682565b5b813561175c8482602086016116f7565b91505092915050565b5f73ffffffffffffffffffffffffffffffffffffffff82169050919050565b5f61178e82611765565b9050919050565b61179e81611784565b81146117a8575f5ffd5b50565b5f813590506117b981611795565b92915050565b5f67ffffffffffffffff8211156117d9576117d8611606565b5b6117e282611589565b9050602081019050919050565b5f6118016117fc846117bf565b611664565b90508281526020810184848401111561181d5761181c6116b5565b5b6118288482856116e9565b509392505050565b5f82601f83011261184457611843611682565b5b81356118548482602086016117ef565b91505092915050565b60058110611869575f5ffd5b50565b5f8135905061187a8161185d565b92915050565b5f60e0828403121561189557611894611602565b5b61189f60e0611664565b90505f82013567ffffffffffffffff8111156118be576118bd61167e565b5b6118ca84828501611738565b5f8301525060206118dd848285016117ab565b602083015250604082013567ffffffffffffffff8111156119015761190061167e565b5b61190d84828501611830565b60408301525060606119218482850161186c565b606083015250608082013567ffffffffffffffff8111156119455761194461167e565b5b61195184828501611830565b60808301525060a082013567ffffffffffffffff8111156119755761197461167e565b5b61198184828501611830565b60a08301525060c082013567ffffffffffffffff8111156119a5576119a461167e565b5b6119b184828501611830565b60c08301525092915050565b5f6119cf6119ca84611686565b611664565b905080838252602082019050602084028301858111156119f2576119f16116b1565b5b835b81811015611a3957803567ffffffffffffffff811115611a1757611a16611682565b5b808601611a248982611880565b855260208501945050506020810190506119f4565b5050509392505050565b5f82601f830112611a5757611a56611682565b5b8135611a678482602086016119bd565b91505092915050565b5f60408284031215611a8557611a84611602565b5b611a8f6040611664565b90505f82013567ffffffffffffffff811115611aae57611aad61167e565b5b611aba84828501611a43565b5f83015250602082013567ffffffffffffffff811115611add57611adc61167e565b5b611ae984828501611a43565b60208301525092915050565b5f60208284031215611b0a57611b096115fa565b5b5f82013567ffffffffffffffff811115611b2757611b266115fe565b5b611b3384828501611a70565b91505092915050565b5f819050919050565b611b4e81611b3c565b82525050565b5f602082019050611b675f830184611b45565b92915050565b611b7681611b3c565b8114611b80575f5ffd5b50565b5f81359050611b9181611b6d565b92915050565b5f60208284031215611bac57611bab6115fa565b5b5f611bb984828501611b83565b91505092915050565b5f60208284031215611bd757611bd66115fa565b5b5f82013567ffffffffffffffff811115611bf457611bf36115fe565b5b611c0084828501611880565b91505092915050565b5f6040820190508181035f830152611c218185611599565b90508181036020830152611c358184611599565b90509392505050565b5f81519050919050565b5f82825260208201905092915050565b5f611c6282611c3e565b611c6c8185611c48565b9350611c7c81856020860161157b565b611c8581611589565b840191505092915050565b5f6020820190508181035f830152611ca88184611c58565b905092915050565b7f4e487b71000000000000000000000000000000000000000000000000000000005f52601260045260245ffd5b7f4e487b71000000000000000000000000000000000000000000000000000000005f52602160045260245ffd5b5f6040820190508181035f830152611d228185611c58565b90508181036020830152611d368184611599565b90509392505050565b5f611d51611d4c846117bf565b611664565b905082815260208101848484011115611d6d57611d6c6116b5565b5b611d7884828561157b565b509392505050565b5f82601f830112611d9457611d93611682565b5b8151611da4848260208601611d3f565b91505092915050565b5f60208284031215611dc257611dc16115fa565b5b5f82015167ffffffffffffffff811115611ddf57611dde6115fe565b5b611deb84828501611d80565b91505092915050565b7f4e487b71000000000000000000000000000000000000000000000000000000005f52603260045260245ffd5b7f4e487b71000000000000000000000000000000000000000000000000000000005f52601160045260245ffd5b5f611e5882611b3c565b9150611e6383611b3c565b9250828201905080821115611e7b57611e7a611e21565b5b92915050565b7f44796e616d69634275666665723a20417070656e64696e67206f7574206f66205f8201527f626f756e64732e00000000000000000000000000000000000000000000000000602082015250565b5f611edb602783611c48565b9150611ee682611e81565b604082019050919050565b5f6020820190508181035f830152611f0881611ecf565b905091905056fe3c736372697074207372633d22646174613a746578742f6a6176617363726970743b6261736536342c25323533437363726970742532353230737263253235334425323532326461746125323533417465787425323532466a617661736372697074253235334262617365363425323532433c73637269707420747970653d22746578742f6a6176617363726970742b677a697022207372633d22646174613a746578742f6a6176617363726970743b6261736536342c2532353343736372697074253235323074797065253235334425323532327465787425323532466a6176617363726970742532353242677a697025323532322532353230737263253235334425323532326461746125323533417465787425323532466a617661736372697074253235334262617365363425323532432532353343736372697074253235323074797065253235334425323532327465787425323532466a6176617363726970742532353242706e6725323532322532353230737263253235334425323532326461746125323533417465787425323532466a617661736372697074253235334262617365363425323532433c73637269707420747970653d22746578742f6a6176617363726970742b706e6722207372633d22646174613a746578742f6a6176617363726970743b6261736536342ca2646970667358221220b7bc384ca0da832a3ea3e403d99983a77c7f7f5847ebaa24a95233bced6a1ef064736f6c634300081e0033","linkReferences":{}},"methodIdentifiers":{"BODY_OPEN_RAW()":"ce5ad179","BODY_OPEN_URL_SAFE()":"7f369319","BODY_RAW_BYTES()":"33174f98","BODY_SAFE_BYTES()":"be58b0a9","DATA_HTML_BASE64_URI_RAW()":"f6130adc","DATA_HTML_URL_SAFE()":"d61974f1","HEAD_CLOSE_RAW()":"3d5be2c2","HEAD_CLOSE_URL_SAFE()":"d9237f14","HEAD_OPEN_RAW()":"c46b294d","HEAD_OPEN_URL_SAFE()":"43f2614f","HEAD_RAW_BYTES()":"d0c3efa8","HEAD_URL_SAFE_BYTES()":"bf35dd0b","HTML_BASE64_DATA_URI_BYTES()":"7510ac24","HTML_BODY_CLOSED_RAW()":"f051dcf8","HTML_BODY_CLOSED_URL_SAFE()":"053f1eb0","HTML_OPEN_RAW()":"bc689620","HTML_OPEN_URL_SAFE()":"640bab41","HTML_RAW_BYTES()":"b55ccc62","HTML_URL_SAFE_BYTES()":"f49717ee","RAW_BYTES()":"afae76fa","URLS_RAW_BYTES()":"87598e52","URLS_SAFE_BYTES()":"bee84ae3","URL_SAFE_BYTES()":"3708be65","fetchTagContent((string,address,bytes,uint8,bytes,bytes,bytes))":"cdea0cef","getEncodedHTML(((string,address,bytes,uint8,bytes,bytes,bytes)[],(string,address,bytes,uint8,bytes,bytes,bytes)[]))":"2bee6807","getEncodedHTMLString(((string,address,bytes,uint8,bytes,bytes,bytes)[],(string,address,bytes,uint8,bytes,bytes,bytes)[]))":"a891b35e","getHTML(((string,address,bytes,uint8,bytes,bytes,bytes)[],(string,address,bytes,uint8,bytes,bytes,bytes)[]))":"7dbb90a2","getHTMLString(((string,address,bytes,uint8,bytes,bytes,bytes)[],(string,address,bytes,uint8,bytes,bytes,bytes)[]))":"d5ed88ce","sizeForBase64Encoding(uint256)":"72617f8a","tagOpenCloseForHTMLTag((string,address,bytes,uint8,bytes,bytes,bytes))":"8c8c3796","tagOpenCloseForHTMLTagURLSafe((string,address,bytes,uint8,bytes,bytes,bytes))":"cd475f26"},"id":52}